{
	"contracts/StrongHands.sol": {
		"StrongHands": {
			"abi": [
				{
					"inputs": [
						{
							"internalType": "uint256",
							"name": "lockTime",
							"type": "uint256"
						}
					],
					"stateMutability": "nonpayable",
					"type": "constructor"
				},
				{
					"stateMutability": "payable",
					"type": "fallback"
				},
				{
					"inputs": [],
					"name": "depositedAmount",
					"outputs": [
						{
							"internalType": "uint256",
							"name": "",
							"type": "uint256"
						}
					],
					"stateMutability": "view",
					"type": "function"
				},
				{
					"inputs": [],
					"name": "getCurrentBalanceOfATokens",
					"outputs": [
						{
							"internalType": "uint256",
							"name": "a",
							"type": "uint256"
						}
					],
					"stateMutability": "view",
					"type": "function"
				},
				{
					"inputs": [],
					"name": "getMyEther",
					"outputs": [],
					"stateMutability": "payable",
					"type": "function"
				},
				{
					"inputs": [],
					"name": "getUserData",
					"outputs": [
						{
							"internalType": "uint256",
							"name": "v",
							"type": "uint256"
						}
					],
					"stateMutability": "view",
					"type": "function"
				},
				{
					"inputs": [],
					"name": "sendEther",
					"outputs": [],
					"stateMutability": "payable",
					"type": "function"
				},
				{
					"inputs": [],
					"name": "sendKajmakToOwner",
					"outputs": [],
					"stateMutability": "payable",
					"type": "function"
				},
				{
					"stateMutability": "payable",
					"type": "receive"
				}
			],
			"devdoc": {
				"kind": "dev",
				"methods": {},
				"version": 1
			},
			"evm": {
				"assembly": "    /* \"contracts/StrongHands.sol\":606:7032  contract StrongHands... */\n  mstore(0x40, 0xc0)\n    /* \"contracts/StrongHands.sol\":1090:1530  constructor(uint lockTime)  ... */\n  callvalue\n  dup1\n  iszero\n  tag_1\n  jumpi\n  0x00\n  dup1\n  revert\ntag_1:\n  pop\n  mload(0x40)\n  sub(codesize, bytecodeSize)\n  dup1\n  bytecodeSize\n  dup4\n  codecopy\n  dup2\n  dup2\n  add\n  0x40\n  mstore\n  dup2\n  add\n  swap1\n  tag_2\n  swap2\n  swap1\n  tag_3\n  jump\t// in\ntag_2:\n    /* \"contracts/StrongHands.sol\":1145:1155  msg.sender */\n  caller\n    /* \"contracts/StrongHands.sol\":1135:1142  manager */\n  0x02\n  0x00\n    /* \"contracts/StrongHands.sol\":1135:1155  manager = msg.sender */\n  0x0100\n  exp\n  dup2\n  sload\n  dup2\n  0xffffffffffffffffffffffffffffffffffffffff\n  mul\n  not\n  and\n  swap1\n  dup4\n  0xffffffffffffffffffffffffffffffffffffffff\n  and\n  mul\n  or\n  swap1\n  sstore\n  pop\n    /* \"contracts/StrongHands.sol\":1183:1191  lockTime */\n  dup1\n    /* \"contracts/StrongHands.sol\":1166:1191  timeToBeLocked = lockTime */\n  0x80\n  dup2\n  dup2\n  mstore\n  pop\n  pop\n    /* \"contracts/StrongHands.sol\":1215:1257  0xd0A1E359811322d97991E03f863a0C30C2cF029C */\n  0xd0a1e359811322d97991e03f863a0c30c2cf029c\n    /* \"contracts/StrongHands.sol\":1202:1258  weth = ERC20(0xd0A1E359811322d97991E03f863a0C30C2cF029C) */\n  0xffffffffffffffffffffffffffffffffffffffff\n  and\n  0xa0\n  dup2\n  0xffffffffffffffffffffffffffffffffffffffff\n  and\n  dup2\n  mstore\n  pop\n  pop\n    /* \"contracts/StrongHands.sol\":1318:1360  0x88757f2f99175387aB4C6a4b3067c77A695b0349 */\n  0x88757f2f99175387ab4c6a4b3067c77a695b0349\n    /* \"contracts/StrongHands.sol\":1269:1277  provider */\n  0x03\n  0x00\n    /* \"contracts/StrongHands.sol\":1269:1362  provider = ILendingPoolAddressesProvider(address(0x88757f2f99175387aB4C6a4b3067c77A695b0349)) */\n  0x0100\n  exp\n  dup2\n  sload\n  dup2\n  0xffffffffffffffffffffffffffffffffffffffff\n  mul\n  not\n  and\n  swap1\n  dup4\n  0xffffffffffffffffffffffffffffffffffffffff\n  and\n  mul\n  or\n  swap1\n  sstore\n  pop\n    /* \"contracts/StrongHands.sol\":1401:1409  provider */\n  0x03\n  0x00\n  swap1\n  sload\n  swap1\n  0x0100\n  exp\n  swap1\n  div\n  0xffffffffffffffffffffffffffffffffffffffff\n  and\n    /* \"contracts/StrongHands.sol\":1401:1424  provider.getLendingPool */\n  0xffffffffffffffffffffffffffffffffffffffff\n  and\n  0x0261bf8b\n    /* \"contracts/StrongHands.sol\":1401:1426  provider.getLendingPool() */\n  mload(0x40)\n  dup2\n  0xffffffff\n  and\n  0xe0\n  shl\n  dup2\n  mstore\n  0x04\n  add\n  0x20\n  mload(0x40)\n  dup1\n  dup4\n  sub\n  dup2\n  dup7\n  gas\n  staticcall\n  iszero\n  dup1\n  iszero\n  tag_7\n  jumpi\n  returndatasize\n  0x00\n  dup1\n  returndatacopy\n  revert(0x00, returndatasize)\ntag_7:\n  pop\n  pop\n  pop\n  pop\n  mload(0x40)\n  returndatasize\n  not(0x1f)\n  0x1f\n  dup3\n  add\n  and\n  dup3\n  add\n  dup1\n  0x40\n  mstore\n  pop\n  dup2\n  add\n  swap1\n  tag_8\n  swap2\n  swap1\n  tag_9\n  jump\t// in\ntag_8:\n    /* \"contracts/StrongHands.sol\":1373:1385  lending_pool */\n  0x04\n  0x00\n    /* \"contracts/StrongHands.sol\":1373:1427  lending_pool = ILendingPool(provider.getLendingPool()) */\n  0x0100\n  exp\n  dup2\n  sload\n  dup2\n  0xffffffffffffffffffffffffffffffffffffffff\n  mul\n  not\n  and\n  swap1\n  dup4\n  0xffffffffffffffffffffffffffffffffffffffff\n  and\n  mul\n  or\n  swap1\n  sstore\n  pop\n    /* \"contracts/StrongHands.sol\":1456:1457  0 */\n  0x00\n    /* \"contracts/StrongHands.sol\":1438:1453  depositedAmount */\n  0x05\n    /* \"contracts/StrongHands.sol\":1438:1457  depositedAmount = 0 */\n  dup2\n  swap1\n  sstore\n  pop\n    /* \"contracts/StrongHands.sol\":1468:1472  weth */\n  mload(0xa0)\n    /* \"contracts/StrongHands.sol\":1468:1480  weth.approve */\n  0xffffffffffffffffffffffffffffffffffffffff\n  and\n  0x095ea7b3\n    /* \"contracts/StrongHands.sol\":1489:1501  lending_pool */\n  0x04\n  0x00\n  swap1\n  sload\n  swap1\n  0x0100\n  exp\n  swap1\n  div\n  0xffffffffffffffffffffffffffffffffffffffff\n  and\n    /* \"contracts/StrongHands.sol\":1504:1521  type(uint256).max */\n  0xffffffffffffffffffffffffffffffffffffffffffffffffffffffffffffffff\n    /* \"contracts/StrongHands.sol\":1468:1522  weth.approve(address(lending_pool), type(uint256).max) */\n  mload(0x40)\n  dup4\n  0xffffffff\n  and\n  0xe0\n  shl\n  dup2\n  mstore\n  0x04\n  add\n  tag_10\n  swap3\n  swap2\n  swap1\n  tag_11\n  jump\t// in\ntag_10:\n  0x20\n  mload(0x40)\n  dup1\n  dup4\n  sub\n  dup2\n  0x00\n  dup8\n  gas\n  call\n  iszero\n  dup1\n  iszero\n  tag_13\n  jumpi\n  returndatasize\n  0x00\n  dup1\n  returndatacopy\n  revert(0x00, returndatasize)\ntag_13:\n  pop\n  pop\n  pop\n  pop\n  mload(0x40)\n  returndatasize\n  not(0x1f)\n  0x1f\n  dup3\n  add\n  and\n  dup3\n  add\n  dup1\n  0x40\n  mstore\n  pop\n  dup2\n  add\n  swap1\n  tag_14\n  swap2\n  swap1\n  tag_15\n  jump\t// in\ntag_14:\n  pop\n    /* \"contracts/StrongHands.sol\":1090:1530  constructor(uint lockTime)  ... */\n  pop\n    /* \"contracts/StrongHands.sol\":606:7032  contract StrongHands... */\n  jump(tag_16)\n    /* \"#utility.yul\":88:205   */\ntag_18:\n    /* \"#utility.yul\":197:198   */\n  0x00\n    /* \"#utility.yul\":194:195   */\n  dup1\n    /* \"#utility.yul\":187:199   */\n  revert\n    /* \"#utility.yul\":334:411   */\ntag_20:\n    /* \"#utility.yul\":371:378   */\n  0x00\n    /* \"#utility.yul\":400:405   */\n  dup2\n    /* \"#utility.yul\":389:405   */\n  swap1\n  pop\n    /* \"#utility.yul\":334:411   */\n  swap2\n  swap1\n  pop\n  jump\t// out\n    /* \"#utility.yul\":417:539   */\ntag_21:\n    /* \"#utility.yul\":490:514   */\n  tag_38\n    /* \"#utility.yul\":508:513   */\n  dup2\n    /* \"#utility.yul\":490:514   */\n  tag_20\n  jump\t// in\ntag_38:\n    /* \"#utility.yul\":483:488   */\n  dup2\n    /* \"#utility.yul\":480:515   */\n  eq\n    /* \"#utility.yul\":470:533   */\n  tag_39\n  jumpi\n    /* \"#utility.yul\":529:530   */\n  0x00\n    /* \"#utility.yul\":526:527   */\n  dup1\n    /* \"#utility.yul\":519:531   */\n  revert\n    /* \"#utility.yul\":470:533   */\ntag_39:\n    /* \"#utility.yul\":417:539   */\n  pop\n  jump\t// out\n    /* \"#utility.yul\":545:688   */\ntag_22:\n    /* \"#utility.yul\":602:607   */\n  0x00\n    /* \"#utility.yul\":633:639   */\n  dup2\n    /* \"#utility.yul\":627:640   */\n  mload\n    /* \"#utility.yul\":618:640   */\n  swap1\n  pop\n    /* \"#utility.yul\":649:682   */\n  tag_41\n    /* \"#utility.yul\":676:681   */\n  dup2\n    /* \"#utility.yul\":649:682   */\n  tag_21\n  jump\t// in\ntag_41:\n    /* \"#utility.yul\":545:688   */\n  swap3\n  swap2\n  pop\n  pop\n  jump\t// out\n    /* \"#utility.yul\":694:1045   */\ntag_3:\n    /* \"#utility.yul\":764:770   */\n  0x00\n    /* \"#utility.yul\":813:815   */\n  0x20\n    /* \"#utility.yul\":801:810   */\n  dup3\n    /* \"#utility.yul\":792:799   */\n  dup5\n    /* \"#utility.yul\":788:811   */\n  sub\n    /* \"#utility.yul\":784:816   */\n  slt\n    /* \"#utility.yul\":781:900   */\n  iszero\n  tag_43\n  jumpi\n    /* \"#utility.yul\":819:898   */\n  tag_44\n  tag_18\n  jump\t// in\ntag_44:\n    /* \"#utility.yul\":781:900   */\ntag_43:\n    /* \"#utility.yul\":939:940   */\n  0x00\n    /* \"#utility.yul\":964:1028   */\n  tag_45\n    /* \"#utility.yul\":1020:1027   */\n  dup5\n    /* \"#utility.yul\":1011:1017   */\n  dup3\n    /* \"#utility.yul\":1000:1009   */\n  dup6\n    /* \"#utility.yul\":996:1018   */\n  add\n    /* \"#utility.yul\":964:1028   */\n  tag_22\n  jump\t// in\ntag_45:\n    /* \"#utility.yul\":954:1028   */\n  swap2\n  pop\n    /* \"#utility.yul\":910:1038   */\n  pop\n    /* \"#utility.yul\":694:1045   */\n  swap3\n  swap2\n  pop\n  pop\n  jump\t// out\n    /* \"#utility.yul\":1051:1177   */\ntag_23:\n    /* \"#utility.yul\":1088:1095   */\n  0x00\n    /* \"#utility.yul\":1128:1170   */\n  0xffffffffffffffffffffffffffffffffffffffff\n    /* \"#utility.yul\":1121:1126   */\n  dup3\n    /* \"#utility.yul\":1117:1171   */\n  and\n    /* \"#utility.yul\":1106:1171   */\n  swap1\n  pop\n    /* \"#utility.yul\":1051:1177   */\n  swap2\n  swap1\n  pop\n  jump\t// out\n    /* \"#utility.yul\":1183:1279   */\ntag_24:\n    /* \"#utility.yul\":1220:1227   */\n  0x00\n    /* \"#utility.yul\":1249:1273   */\n  tag_48\n    /* \"#utility.yul\":1267:1272   */\n  dup3\n    /* \"#utility.yul\":1249:1273   */\n  tag_23\n  jump\t// in\ntag_48:\n    /* \"#utility.yul\":1238:1273   */\n  swap1\n  pop\n    /* \"#utility.yul\":1183:1279   */\n  swap2\n  swap1\n  pop\n  jump\t// out\n    /* \"#utility.yul\":1285:1407   */\ntag_25:\n    /* \"#utility.yul\":1358:1382   */\n  tag_50\n    /* \"#utility.yul\":1376:1381   */\n  dup2\n    /* \"#utility.yul\":1358:1382   */\n  tag_24\n  jump\t// in\ntag_50:\n    /* \"#utility.yul\":1351:1356   */\n  dup2\n    /* \"#utility.yul\":1348:1383   */\n  eq\n    /* \"#utility.yul\":1338:1401   */\n  tag_51\n  jumpi\n    /* \"#utility.yul\":1397:1398   */\n  0x00\n    /* \"#utility.yul\":1394:1395   */\n  dup1\n    /* \"#utility.yul\":1387:1399   */\n  revert\n    /* \"#utility.yul\":1338:1401   */\ntag_51:\n    /* \"#utility.yul\":1285:1407   */\n  pop\n  jump\t// out\n    /* \"#utility.yul\":1413:1556   */\ntag_26:\n    /* \"#utility.yul\":1470:1475   */\n  0x00\n    /* \"#utility.yul\":1501:1507   */\n  dup2\n    /* \"#utility.yul\":1495:1508   */\n  mload\n    /* \"#utility.yul\":1486:1508   */\n  swap1\n  pop\n    /* \"#utility.yul\":1517:1550   */\n  tag_53\n    /* \"#utility.yul\":1544:1549   */\n  dup2\n    /* \"#utility.yul\":1517:1550   */\n  tag_25\n  jump\t// in\ntag_53:\n    /* \"#utility.yul\":1413:1556   */\n  swap3\n  swap2\n  pop\n  pop\n  jump\t// out\n    /* \"#utility.yul\":1562:1913   */\ntag_9:\n    /* \"#utility.yul\":1632:1638   */\n  0x00\n    /* \"#utility.yul\":1681:1683   */\n  0x20\n    /* \"#utility.yul\":1669:1678   */\n  dup3\n    /* \"#utility.yul\":1660:1667   */\n  dup5\n    /* \"#utility.yul\":1656:1679   */\n  sub\n    /* \"#utility.yul\":1652:1684   */\n  slt\n    /* \"#utility.yul\":1649:1768   */\n  iszero\n  tag_55\n  jumpi\n    /* \"#utility.yul\":1687:1766   */\n  tag_56\n  tag_18\n  jump\t// in\ntag_56:\n    /* \"#utility.yul\":1649:1768   */\ntag_55:\n    /* \"#utility.yul\":1807:1808   */\n  0x00\n    /* \"#utility.yul\":1832:1896   */\n  tag_57\n    /* \"#utility.yul\":1888:1895   */\n  dup5\n    /* \"#utility.yul\":1879:1885   */\n  dup3\n    /* \"#utility.yul\":1868:1877   */\n  dup6\n    /* \"#utility.yul\":1864:1886   */\n  add\n    /* \"#utility.yul\":1832:1896   */\n  tag_26\n  jump\t// in\ntag_57:\n    /* \"#utility.yul\":1822:1896   */\n  swap2\n  pop\n    /* \"#utility.yul\":1778:1906   */\n  pop\n    /* \"#utility.yul\":1562:1913   */\n  swap3\n  swap2\n  pop\n  pop\n  jump\t// out\n    /* \"#utility.yul\":1919:2037   */\ntag_27:\n    /* \"#utility.yul\":2006:2030   */\n  tag_59\n    /* \"#utility.yul\":2024:2029   */\n  dup2\n    /* \"#utility.yul\":2006:2030   */\n  tag_24\n  jump\t// in\ntag_59:\n    /* \"#utility.yul\":2001:2004   */\n  dup3\n    /* \"#utility.yul\":1994:2031   */\n  mstore\n    /* \"#utility.yul\":1919:2037   */\n  pop\n  pop\n  jump\t// out\n    /* \"#utility.yul\":2043:2161   */\ntag_28:\n    /* \"#utility.yul\":2130:2154   */\n  tag_61\n    /* \"#utility.yul\":2148:2153   */\n  dup2\n    /* \"#utility.yul\":2130:2154   */\n  tag_20\n  jump\t// in\ntag_61:\n    /* \"#utility.yul\":2125:2128   */\n  dup3\n    /* \"#utility.yul\":2118:2155   */\n  mstore\n    /* \"#utility.yul\":2043:2161   */\n  pop\n  pop\n  jump\t// out\n    /* \"#utility.yul\":2167:2499   */\ntag_11:\n    /* \"#utility.yul\":2288:2292   */\n  0x00\n    /* \"#utility.yul\":2326:2328   */\n  0x40\n    /* \"#utility.yul\":2315:2324   */\n  dup3\n    /* \"#utility.yul\":2311:2329   */\n  add\n    /* \"#utility.yul\":2303:2329   */\n  swap1\n  pop\n    /* \"#utility.yul\":2339:2410   */\n  tag_63\n    /* \"#utility.yul\":2407:2408   */\n  0x00\n    /* \"#utility.yul\":2396:2405   */\n  dup4\n    /* \"#utility.yul\":2392:2409   */\n  add\n    /* \"#utility.yul\":2383:2389   */\n  dup6\n    /* \"#utility.yul\":2339:2410   */\n  tag_27\n  jump\t// in\ntag_63:\n    /* \"#utility.yul\":2420:2492   */\n  tag_64\n    /* \"#utility.yul\":2488:2490   */\n  0x20\n    /* \"#utility.yul\":2477:2486   */\n  dup4\n    /* \"#utility.yul\":2473:2491   */\n  add\n    /* \"#utility.yul\":2464:2470   */\n  dup5\n    /* \"#utility.yul\":2420:2492   */\n  tag_28\n  jump\t// in\ntag_64:\n    /* \"#utility.yul\":2167:2499   */\n  swap4\n  swap3\n  pop\n  pop\n  pop\n  jump\t// out\n    /* \"#utility.yul\":2505:2595   */\ntag_29:\n    /* \"#utility.yul\":2539:2546   */\n  0x00\n    /* \"#utility.yul\":2582:2587   */\n  dup2\n    /* \"#utility.yul\":2575:2588   */\n  iszero\n    /* \"#utility.yul\":2568:2589   */\n  iszero\n    /* \"#utility.yul\":2557:2589   */\n  swap1\n  pop\n    /* \"#utility.yul\":2505:2595   */\n  swap2\n  swap1\n  pop\n  jump\t// out\n    /* \"#utility.yul\":2601:2717   */\ntag_30:\n    /* \"#utility.yul\":2671:2692   */\n  tag_67\n    /* \"#utility.yul\":2686:2691   */\n  dup2\n    /* \"#utility.yul\":2671:2692   */\n  tag_29\n  jump\t// in\ntag_67:\n    /* \"#utility.yul\":2664:2669   */\n  dup2\n    /* \"#utility.yul\":2661:2693   */\n  eq\n    /* \"#utility.yul\":2651:2711   */\n  tag_68\n  jumpi\n    /* \"#utility.yul\":2707:2708   */\n  0x00\n    /* \"#utility.yul\":2704:2705   */\n  dup1\n    /* \"#utility.yul\":2697:2709   */\n  revert\n    /* \"#utility.yul\":2651:2711   */\ntag_68:\n    /* \"#utility.yul\":2601:2717   */\n  pop\n  jump\t// out\n    /* \"#utility.yul\":2723:2860   */\ntag_31:\n    /* \"#utility.yul\":2777:2782   */\n  0x00\n    /* \"#utility.yul\":2808:2814   */\n  dup2\n    /* \"#utility.yul\":2802:2815   */\n  mload\n    /* \"#utility.yul\":2793:2815   */\n  swap1\n  pop\n    /* \"#utility.yul\":2824:2854   */\n  tag_70\n    /* \"#utility.yul\":2848:2853   */\n  dup2\n    /* \"#utility.yul\":2824:2854   */\n  tag_30\n  jump\t// in\ntag_70:\n    /* \"#utility.yul\":2723:2860   */\n  swap3\n  swap2\n  pop\n  pop\n  jump\t// out\n    /* \"#utility.yul\":2866:3211   */\ntag_15:\n    /* \"#utility.yul\":2933:2939   */\n  0x00\n    /* \"#utility.yul\":2982:2984   */\n  0x20\n    /* \"#utility.yul\":2970:2979   */\n  dup3\n    /* \"#utility.yul\":2961:2968   */\n  dup5\n    /* \"#utility.yul\":2957:2980   */\n  sub\n    /* \"#utility.yul\":2953:2985   */\n  slt\n    /* \"#utility.yul\":2950:3069   */\n  iszero\n  tag_72\n  jumpi\n    /* \"#utility.yul\":2988:3067   */\n  tag_73\n  tag_18\n  jump\t// in\ntag_73:\n    /* \"#utility.yul\":2950:3069   */\ntag_72:\n    /* \"#utility.yul\":3108:3109   */\n  0x00\n    /* \"#utility.yul\":3133:3194   */\n  tag_74\n    /* \"#utility.yul\":3186:3193   */\n  dup5\n    /* \"#utility.yul\":3177:3183   */\n  dup3\n    /* \"#utility.yul\":3166:3175   */\n  dup6\n    /* \"#utility.yul\":3162:3184   */\n  add\n    /* \"#utility.yul\":3133:3194   */\n  tag_31\n  jump\t// in\ntag_74:\n    /* \"#utility.yul\":3123:3194   */\n  swap2\n  pop\n    /* \"#utility.yul\":3079:3204   */\n  pop\n    /* \"#utility.yul\":2866:3211   */\n  swap3\n  swap2\n  pop\n  pop\n  jump\t// out\n    /* \"contracts/StrongHands.sol\":606:7032  contract StrongHands... */\ntag_16:\n  mload(0x80)\n  mload(0xa0)\n  codecopy(0x00, dataOffset(sub_0), dataSize(sub_0))\n  0x00\n  assignImmutable(\"0x2cc0d3dcb20652cd8f106aee76b6a7391771a130885634c0eb2bbe3cde796691\")\n  0x00\n  assignImmutable(\"0xcc143a676b82d5e07b2c9d57717b403ab3c58caa273a42cdb95b15980141a86c\")\n  return(0x00, dataSize(sub_0))\nstop\n\nsub_0: assembly {\n        /* \"contracts/StrongHands.sol\":606:7032  contract StrongHands... */\n      mstore(0x40, 0x80)\n      jumpi(tag_1, lt(calldatasize, 0x04))\n      shr(0xe0, calldataload(0x00))\n      dup1\n      0x0e29df22\n      eq\n      tag_3\n      jumpi\n      dup1\n      0x1d01364c\n      eq\n      tag_4\n      jumpi\n      dup1\n      0x22e8c87d\n      eq\n      tag_5\n      jumpi\n      dup1\n      0xc3d40853\n      eq\n      tag_6\n      jumpi\n      dup1\n      0xdb88031a\n      eq\n      tag_7\n      jumpi\n      dup1\n      0xe2ec0c2d\n      eq\n      tag_8\n      jumpi\n      jump(tag_2)\n    tag_1:\n      jumpi(tag_2, calldatasize)\n      stop\n    tag_2:\n      stop\n        /* \"contracts/StrongHands.sol\":1821:2270  function sendEther() public payable... */\n    tag_3:\n      tag_13\n      tag_14\n      jump\t// in\n    tag_13:\n      stop\n        /* \"contracts/StrongHands.sol\":1016:1043  uint public depositedAmount */\n    tag_4:\n      callvalue\n      dup1\n      iszero\n      tag_15\n      jumpi\n      0x00\n      dup1\n      revert\n    tag_15:\n      pop\n      tag_16\n      tag_17\n      jump\t// in\n    tag_16:\n      mload(0x40)\n      tag_18\n      swap2\n      swap1\n      tag_19\n      jump\t// in\n    tag_18:\n      mload(0x40)\n      dup1\n      swap2\n      sub\n      swap1\n      return\n        /* \"contracts/StrongHands.sol\":1627:1735  function getUserData() public view returns(uint v)... */\n    tag_5:\n      callvalue\n      dup1\n      iszero\n      tag_20\n      jumpi\n      0x00\n      dup1\n      revert\n    tag_20:\n      pop\n      tag_21\n      tag_22\n      jump\t// in\n    tag_21:\n      mload(0x40)\n      tag_23\n      swap2\n      swap1\n      tag_19\n      jump\t// in\n    tag_23:\n      mload(0x40)\n      dup1\n      swap2\n      sub\n      swap1\n      return\n        /* \"contracts/StrongHands.sol\":6084:6303  function getCurrentBalanceOfATokens() public view returns(uint a)... */\n    tag_6:\n      callvalue\n      dup1\n      iszero\n      tag_24\n      jumpi\n      0x00\n      dup1\n      revert\n    tag_24:\n      pop\n      tag_25\n      tag_26\n      jump\t// in\n    tag_25:\n      mload(0x40)\n      tag_27\n      swap2\n      swap1\n      tag_19\n      jump\t// in\n    tag_27:\n      mload(0x40)\n      dup1\n      swap2\n      sub\n      swap1\n      return\n        /* \"contracts/StrongHands.sol\":2483:5237  function getMyEther() public payable... */\n    tag_7:\n      tag_28\n      tag_29\n      jump\t// in\n    tag_28:\n      stop\n        /* \"contracts/StrongHands.sol\":5371:5692  function sendKajmakToOwner() public payable onlyOwner... */\n    tag_8:\n      tag_30\n      tag_31\n      jump\t// in\n    tag_30:\n      stop\n        /* \"contracts/StrongHands.sol\":1821:2270  function sendEther() public payable... */\n    tag_14:\n        /* \"contracts/StrongHands.sol\":1893:1894  0 */\n      0x00\n        /* \"contracts/StrongHands.sol\":1881:1890  msg.value */\n      callvalue\n        /* \"contracts/StrongHands.sol\":1881:1894  msg.value > 0 */\n      gt\n        /* \"contracts/StrongHands.sol\":1873:1927  require(msg.value > 0, \"You must send some tokens...\") */\n      tag_33\n      jumpi\n      mload(0x40)\n      0x08c379a000000000000000000000000000000000000000000000000000000000\n      dup2\n      mstore\n      0x04\n      add\n      tag_34\n      swap1\n      tag_35\n      jump\t// in\n    tag_34:\n      mload(0x40)\n      dup1\n      swap2\n      sub\n      swap1\n      revert\n    tag_33:\n        /* \"contracts/StrongHands.sol\":1968:1977  msg.value */\n      callvalue\n        /* \"contracts/StrongHands.sol\":1938:1946  allUsers */\n      0x00\n        /* \"contracts/StrongHands.sol\":1938:1958  allUsers[msg.sender] */\n      dup1\n        /* \"contracts/StrongHands.sol\":1947:1957  msg.sender */\n      caller\n        /* \"contracts/StrongHands.sol\":1938:1958  allUsers[msg.sender] */\n      0xffffffffffffffffffffffffffffffffffffffff\n      and\n      0xffffffffffffffffffffffffffffffffffffffff\n      and\n      dup2\n      mstore\n      0x20\n      add\n      swap1\n      dup2\n      mstore\n      0x20\n      add\n      0x00\n      keccak256\n        /* \"contracts/StrongHands.sol\":1938:1964  allUsers[msg.sender].value */\n      0x00\n      add\n      0x00\n        /* \"contracts/StrongHands.sol\":1938:1977  allUsers[msg.sender].value += msg.value */\n      dup3\n      dup3\n      sload\n      tag_36\n      swap2\n      swap1\n      tag_37\n      jump\t// in\n    tag_36:\n      swap3\n      pop\n      pop\n      dup2\n      swap1\n      sstore\n      pop\n        /* \"contracts/StrongHands.sol\":2020:2035  block.timestamp */\n      timestamp\n        /* \"contracts/StrongHands.sol\":1988:1996  allUsers */\n      0x00\n        /* \"contracts/StrongHands.sol\":1988:2008  allUsers[msg.sender] */\n      dup1\n        /* \"contracts/StrongHands.sol\":1997:2007  msg.sender */\n      caller\n        /* \"contracts/StrongHands.sol\":1988:2008  allUsers[msg.sender] */\n      0xffffffffffffffffffffffffffffffffffffffff\n      and\n      0xffffffffffffffffffffffffffffffffffffffff\n      and\n      dup2\n      mstore\n      0x20\n      add\n      swap1\n      dup2\n      mstore\n      0x20\n      add\n      0x00\n      keccak256\n        /* \"contracts/StrongHands.sol\":1988:2017  allUsers[msg.sender].lockTime */\n      0x01\n      add\n        /* \"contracts/StrongHands.sol\":1988:2035  allUsers[msg.sender].lockTime = block.timestamp */\n      dup2\n      swap1\n      sstore\n      pop\n        /* \"contracts/StrongHands.sol\":2078:2083  false */\n      0x00\n        /* \"contracts/StrongHands.sol\":2049:2083  allUsers[msg.sender].flag == false */\n      iszero\n      iszero\n        /* \"contracts/StrongHands.sol\":2049:2057  allUsers */\n      0x00\n        /* \"contracts/StrongHands.sol\":2049:2069  allUsers[msg.sender] */\n      dup1\n        /* \"contracts/StrongHands.sol\":2058:2068  msg.sender */\n      caller\n        /* \"contracts/StrongHands.sol\":2049:2069  allUsers[msg.sender] */\n      0xffffffffffffffffffffffffffffffffffffffff\n      and\n      0xffffffffffffffffffffffffffffffffffffffff\n      and\n      dup2\n      mstore\n      0x20\n      add\n      swap1\n      dup2\n      mstore\n      0x20\n      add\n      0x00\n      keccak256\n        /* \"contracts/StrongHands.sol\":2049:2074  allUsers[msg.sender].flag */\n      0x02\n      add\n      0x00\n      swap1\n      sload\n      swap1\n      0x0100\n      exp\n      swap1\n      div\n      0xff\n      and\n        /* \"contracts/StrongHands.sol\":2049:2083  allUsers[msg.sender].flag == false */\n      iszero\n      iszero\n      sub\n        /* \"contracts/StrongHands.sol\":2046:2194  if(allUsers[msg.sender].flag == false)... */\n      tag_38\n      jumpi\n        /* \"contracts/StrongHands.sol\":2137:2141  true */\n      0x01\n        /* \"contracts/StrongHands.sol\":2109:2117  allUsers */\n      0x00\n        /* \"contracts/StrongHands.sol\":2109:2129  allUsers[msg.sender] */\n      dup1\n        /* \"contracts/StrongHands.sol\":2118:2128  msg.sender */\n      caller\n        /* \"contracts/StrongHands.sol\":2109:2129  allUsers[msg.sender] */\n      0xffffffffffffffffffffffffffffffffffffffff\n      and\n      0xffffffffffffffffffffffffffffffffffffffff\n      and\n      dup2\n      mstore\n      0x20\n      add\n      swap1\n      dup2\n      mstore\n      0x20\n      add\n      0x00\n      keccak256\n        /* \"contracts/StrongHands.sol\":2109:2134  allUsers[msg.sender].flag */\n      0x02\n      add\n      0x00\n        /* \"contracts/StrongHands.sol\":2109:2141  allUsers[msg.sender].flag = true */\n      0x0100\n      exp\n      dup2\n      sload\n      dup2\n      0xff\n      mul\n      not\n      and\n      swap1\n      dup4\n      iszero\n      iszero\n      mul\n      or\n      swap1\n      sstore\n      pop\n        /* \"contracts/StrongHands.sol\":2156:2165  usernames */\n      0x01\n        /* \"contracts/StrongHands.sol\":2171:2181  msg.sender */\n      caller\n        /* \"contracts/StrongHands.sol\":2156:2182  usernames.push(msg.sender) */\n      swap1\n      dup1\n      0x01\n      dup2\n      sload\n      add\n      dup1\n      dup3\n      sstore\n      dup1\n      swap2\n      pop\n      pop\n      0x01\n      swap1\n      sub\n      swap1\n      0x00\n      mstore\n      keccak256(0x00, 0x20)\n      add\n      0x00\n      swap1\n      swap2\n      swap1\n      swap2\n      swap1\n      swap2\n      0x0100\n      exp\n      dup2\n      sload\n      dup2\n      0xffffffffffffffffffffffffffffffffffffffff\n      mul\n      not\n      and\n      swap1\n      dup4\n      0xffffffffffffffffffffffffffffffffffffffff\n      and\n      mul\n      or\n      swap1\n      sstore\n      pop\n        /* \"contracts/StrongHands.sol\":2046:2194  if(allUsers[msg.sender].flag == false)... */\n    tag_38:\n        /* \"contracts/StrongHands.sol\":2203:2225  depositAave(msg.value) */\n      tag_40\n        /* \"contracts/StrongHands.sol\":2215:2224  msg.value */\n      callvalue\n        /* \"contracts/StrongHands.sol\":2203:2214  depositAave */\n      tag_41\n        /* \"contracts/StrongHands.sol\":2203:2225  depositAave(msg.value) */\n      jump\t// in\n    tag_40:\n        /* \"contracts/StrongHands.sol\":2253:2262  msg.value */\n      callvalue\n        /* \"contracts/StrongHands.sol\":2235:2250  depositedAmount */\n      0x05\n      0x00\n        /* \"contracts/StrongHands.sol\":2235:2262  depositedAmount +=msg.value */\n      dup3\n      dup3\n      sload\n      tag_42\n      swap2\n      swap1\n      tag_37\n      jump\t// in\n    tag_42:\n      swap3\n      pop\n      pop\n      dup2\n      swap1\n      sstore\n      pop\n        /* \"contracts/StrongHands.sol\":1821:2270  function sendEther() public payable... */\n      jump\t// out\n        /* \"contracts/StrongHands.sol\":1016:1043  uint public depositedAmount */\n    tag_17:\n      sload(0x05)\n      dup2\n      jump\t// out\n        /* \"contracts/StrongHands.sol\":1627:1735  function getUserData() public view returns(uint v)... */\n    tag_22:\n        /* \"contracts/StrongHands.sol\":1670:1676  uint v */\n      0x00\n        /* \"contracts/StrongHands.sol\":1701:1709  allUsers */\n      dup1\n        /* \"contracts/StrongHands.sol\":1701:1721  allUsers[msg.sender] */\n      0x00\n        /* \"contracts/StrongHands.sol\":1710:1720  msg.sender */\n      caller\n        /* \"contracts/StrongHands.sol\":1701:1721  allUsers[msg.sender] */\n      0xffffffffffffffffffffffffffffffffffffffff\n      and\n      0xffffffffffffffffffffffffffffffffffffffff\n      and\n      dup2\n      mstore\n      0x20\n      add\n      swap1\n      dup2\n      mstore\n      0x20\n      add\n      0x00\n      keccak256\n        /* \"contracts/StrongHands.sol\":1701:1727  allUsers[msg.sender].value */\n      0x00\n      add\n      sload\n        /* \"contracts/StrongHands.sol\":1694:1727  return allUsers[msg.sender].value */\n      swap1\n      pop\n        /* \"contracts/StrongHands.sol\":1627:1735  function getUserData() public view returns(uint v)... */\n      swap1\n      jump\t// out\n        /* \"contracts/StrongHands.sol\":6084:6303  function getCurrentBalanceOfATokens() public view returns(uint a)... */\n    tag_26:\n        /* \"contracts/StrongHands.sol\":6142:6148  uint a */\n      0x00\n        /* \"contracts/StrongHands.sol\":6166:6179  IAToken aWETH */\n      dup1\n        /* \"contracts/StrongHands.sol\":6190:6202  lending_pool */\n      0x04\n      0x00\n      swap1\n      sload\n      swap1\n      0x0100\n      exp\n      swap1\n      div\n      0xffffffffffffffffffffffffffffffffffffffff\n      and\n        /* \"contracts/StrongHands.sol\":6190:6217  lending_pool.getReserveData */\n      0xffffffffffffffffffffffffffffffffffffffff\n      and\n      0x35ea6a75\n        /* \"contracts/StrongHands.sol\":6226:6230  weth */\n      immutable(\"0x2cc0d3dcb20652cd8f106aee76b6a7391771a130885634c0eb2bbe3cde796691\")\n        /* \"contracts/StrongHands.sol\":6190:6232  lending_pool.getReserveData(address(weth)) */\n      mload(0x40)\n      dup3\n      0xffffffff\n      and\n      0xe0\n      shl\n      dup2\n      mstore\n      0x04\n      add\n      tag_45\n      swap2\n      swap1\n      tag_46\n      jump\t// in\n    tag_45:\n      0x0180\n      mload(0x40)\n      dup1\n      dup4\n      sub\n      dup2\n      dup7\n      gas\n      staticcall\n      iszero\n      dup1\n      iszero\n      tag_48\n      jumpi\n      returndatasize\n      0x00\n      dup1\n      returndatacopy\n      revert(0x00, returndatasize)\n    tag_48:\n      pop\n      pop\n      pop\n      pop\n      mload(0x40)\n      returndatasize\n      not(0x1f)\n      0x1f\n      dup3\n      add\n      and\n      dup3\n      add\n      dup1\n      0x40\n      mstore\n      pop\n      dup2\n      add\n      swap1\n      tag_49\n      swap2\n      swap1\n      tag_50\n      jump\t// in\n    tag_49:\n        /* \"contracts/StrongHands.sol\":6190:6246  lending_pool.getReserveData(address(weth)).aTokenAddress */\n      0xe0\n      add\n      mload\n        /* \"contracts/StrongHands.sol\":6166:6247  IAToken aWETH = IAToken(lending_pool.getReserveData(address(weth)).aTokenAddress) */\n      swap1\n      pop\n        /* \"contracts/StrongHands.sol\":6265:6270  aWETH */\n      dup1\n        /* \"contracts/StrongHands.sol\":6265:6280  aWETH.balanceOf */\n      0xffffffffffffffffffffffffffffffffffffffff\n      and\n      0x70a08231\n        /* \"contracts/StrongHands.sol\":6289:6293  this */\n      address\n        /* \"contracts/StrongHands.sol\":6265:6295  aWETH.balanceOf(address(this)) */\n      mload(0x40)\n      dup3\n      0xffffffff\n      and\n      0xe0\n      shl\n      dup2\n      mstore\n      0x04\n      add\n      tag_51\n      swap2\n      swap1\n      tag_46\n      jump\t// in\n    tag_51:\n      0x20\n      mload(0x40)\n      dup1\n      dup4\n      sub\n      dup2\n      dup7\n      gas\n      staticcall\n      iszero\n      dup1\n      iszero\n      tag_53\n      jumpi\n      returndatasize\n      0x00\n      dup1\n      returndatacopy\n      revert(0x00, returndatasize)\n    tag_53:\n      pop\n      pop\n      pop\n      pop\n      mload(0x40)\n      returndatasize\n      not(0x1f)\n      0x1f\n      dup3\n      add\n      and\n      dup3\n      add\n      dup1\n      0x40\n      mstore\n      pop\n      dup2\n      add\n      swap1\n      tag_54\n      swap2\n      swap1\n      tag_55\n      jump\t// in\n    tag_54:\n        /* \"contracts/StrongHands.sol\":6258:6295  return aWETH.balanceOf(address(this)) */\n      swap2\n      pop\n      pop\n        /* \"contracts/StrongHands.sol\":6084:6303  function getCurrentBalanceOfATokens() public view returns(uint a)... */\n      swap1\n      jump\t// out\n        /* \"contracts/StrongHands.sol\":2483:5237  function getMyEther() public payable... */\n    tag_29:\n        /* \"contracts/StrongHands.sol\":2536:2559  uint currentMoneyOfUser */\n      0x00\n        /* \"contracts/StrongHands.sol\":2562:2570  allUsers */\n      dup1\n        /* \"contracts/StrongHands.sol\":2562:2582  allUsers[msg.sender] */\n      0x00\n        /* \"contracts/StrongHands.sol\":2571:2581  msg.sender */\n      caller\n        /* \"contracts/StrongHands.sol\":2562:2582  allUsers[msg.sender] */\n      0xffffffffffffffffffffffffffffffffffffffff\n      and\n      0xffffffffffffffffffffffffffffffffffffffff\n      and\n      dup2\n      mstore\n      0x20\n      add\n      swap1\n      dup2\n      mstore\n      0x20\n      add\n      0x00\n      keccak256\n        /* \"contracts/StrongHands.sol\":2562:2588  allUsers[msg.sender].value */\n      0x00\n      add\n      sload\n        /* \"contracts/StrongHands.sol\":2536:2588  uint currentMoneyOfUser = allUsers[msg.sender].value */\n      swap1\n      pop\n        /* \"contracts/StrongHands.sol\":2628:2629  0 */\n      0x00\n        /* \"contracts/StrongHands.sol\":2607:2625  currentMoneyOfUser */\n      dup2\n        /* \"contracts/StrongHands.sol\":2607:2629  currentMoneyOfUser > 0 */\n      gt\n        /* \"contracts/StrongHands.sol\":2599:2663  require(currentMoneyOfUser > 0, \"User don't have deposited ETH\") */\n      tag_57\n      jumpi\n      mload(0x40)\n      0x08c379a000000000000000000000000000000000000000000000000000000000\n      dup2\n      mstore\n      0x04\n      add\n      tag_58\n      swap1\n      tag_59\n      jump\t// in\n    tag_58:\n      mload(0x40)\n      dup1\n      swap2\n      sub\n      swap1\n      revert\n    tag_57:\n        /* \"contracts/StrongHands.sol\":2674:2693  uint lockTimeOfUser */\n      0x00\n        /* \"contracts/StrongHands.sol\":2696:2704  allUsers */\n      dup1\n        /* \"contracts/StrongHands.sol\":2696:2716  allUsers[msg.sender] */\n      0x00\n        /* \"contracts/StrongHands.sol\":2705:2715  msg.sender */\n      caller\n        /* \"contracts/StrongHands.sol\":2696:2716  allUsers[msg.sender] */\n      0xffffffffffffffffffffffffffffffffffffffff\n      and\n      0xffffffffffffffffffffffffffffffffffffffff\n      and\n      dup2\n      mstore\n      0x20\n      add\n      swap1\n      dup2\n      mstore\n      0x20\n      add\n      0x00\n      keccak256\n        /* \"contracts/StrongHands.sol\":2696:2725  allUsers[msg.sender].lockTime */\n      0x01\n      add\n      sload\n        /* \"contracts/StrongHands.sol\":2674:2725  uint lockTimeOfUser = allUsers[msg.sender].lockTime */\n      swap1\n      pop\n        /* \"contracts/StrongHands.sol\":2736:2757  uint currentBlockTime */\n      0x00\n        /* \"contracts/StrongHands.sol\":2760:2775  block.timestamp */\n      timestamp\n        /* \"contracts/StrongHands.sol\":2736:2775  uint currentBlockTime = block.timestamp */\n      swap1\n      pop\n        /* \"contracts/StrongHands.sol\":2825:2839  timeToBeLocked */\n      immutable(\"0xcc143a676b82d5e07b2c9d57717b403ab3c58caa273a42cdb95b15980141a86c\")\n        /* \"contracts/StrongHands.sol\":2808:2822  lockTimeOfUser */\n      dup3\n        /* \"contracts/StrongHands.sol\":2808:2839  lockTimeOfUser + timeToBeLocked */\n      tag_60\n      swap2\n      swap1\n      tag_37\n      jump\t// in\n    tag_60:\n        /* \"contracts/StrongHands.sol\":2789:2805  currentBlockTime */\n      dup2\n        /* \"contracts/StrongHands.sol\":2789:2839  currentBlockTime > lockTimeOfUser + timeToBeLocked */\n      gt\n        /* \"contracts/StrongHands.sol\":2786:3339  if(currentBlockTime > lockTimeOfUser + timeToBeLocked )  ... */\n      iszero\n      tag_61\n      jumpi\n        /* \"contracts/StrongHands.sol\":3063:3064  0 */\n      0x00\n        /* \"contracts/StrongHands.sol\":3034:3042  allUsers */\n      dup1\n        /* \"contracts/StrongHands.sol\":3034:3054  allUsers[msg.sender] */\n      0x00\n        /* \"contracts/StrongHands.sol\":3043:3053  msg.sender */\n      caller\n        /* \"contracts/StrongHands.sol\":3034:3054  allUsers[msg.sender] */\n      0xffffffffffffffffffffffffffffffffffffffff\n      and\n      0xffffffffffffffffffffffffffffffffffffffff\n      and\n      dup2\n      mstore\n      0x20\n      add\n      swap1\n      dup2\n      mstore\n      0x20\n      add\n      0x00\n      keccak256\n        /* \"contracts/StrongHands.sol\":3034:3060  allUsers[msg.sender].value */\n      0x00\n      add\n        /* \"contracts/StrongHands.sol\":3034:3064  allUsers[msg.sender].value = 0 */\n      dup2\n      swap1\n      sstore\n      pop\n        /* \"contracts/StrongHands.sol\":3115:3133  currentMoneyOfUser */\n      dup3\n        /* \"contracts/StrongHands.sol\":3097:3112  depositedAmount */\n      sload(0x05)\n        /* \"contracts/StrongHands.sol\":3097:3133  depositedAmount - currentMoneyOfUser */\n      tag_62\n      swap2\n      swap1\n      tag_63\n      jump\t// in\n    tag_62:\n        /* \"contracts/StrongHands.sol\":3079:3094  depositedAmount */\n      0x05\n        /* \"contracts/StrongHands.sol\":3079:3133  depositedAmount = depositedAmount - currentMoneyOfUser */\n      dup2\n      swap1\n      sstore\n      pop\n        /* \"contracts/StrongHands.sol\":3148:3180  withdrawWETH(currentMoneyOfUser) */\n      tag_64\n        /* \"contracts/StrongHands.sol\":3161:3179  currentMoneyOfUser */\n      dup4\n        /* \"contracts/StrongHands.sol\":3148:3160  withdrawWETH */\n      tag_65\n        /* \"contracts/StrongHands.sol\":3148:3180  withdrawWETH(currentMoneyOfUser) */\n      jump\t// in\n    tag_64:\n        /* \"contracts/StrongHands.sol\":3196:3205  bool succ */\n      0x00\n        /* \"contracts/StrongHands.sol\":3211:3221  msg.sender */\n      caller\n        /* \"contracts/StrongHands.sol\":3211:3226  msg.sender.call */\n      0xffffffffffffffffffffffffffffffffffffffff\n      and\n        /* \"contracts/StrongHands.sol\":3235:3253  currentMoneyOfUser */\n      dup5\n        /* \"contracts/StrongHands.sol\":3211:3258  msg.sender.call{value : currentMoneyOfUser}(\"\") */\n      mload(0x40)\n      tag_66\n      swap1\n      tag_67\n      jump\t// in\n    tag_66:\n      0x00\n      mload(0x40)\n      dup1\n      dup4\n      sub\n      dup2\n      dup6\n      dup8\n      gas\n      call\n      swap3\n      pop\n      pop\n      pop\n      returndatasize\n      dup1\n      0x00\n      dup2\n      eq\n      tag_70\n      jumpi\n      mload(0x40)\n      swap2\n      pop\n      and(add(returndatasize, 0x3f), not(0x1f))\n      dup3\n      add\n      0x40\n      mstore\n      returndatasize\n      dup3\n      mstore\n      returndatasize\n      0x00\n      0x20\n      dup5\n      add\n      returndatacopy\n      jump(tag_69)\n    tag_70:\n      0x60\n      swap2\n      pop\n    tag_69:\n      pop\n        /* \"contracts/StrongHands.sol\":3195:3258  (bool succ, ) = msg.sender.call{value : currentMoneyOfUser}(\"\") */\n      pop\n      swap1\n      pop\n        /* \"contracts/StrongHands.sol\":3281:3285  succ */\n      dup1\n        /* \"contracts/StrongHands.sol\":3273:3306  require(succ, \"Transfer failed.\") */\n      tag_71\n      jumpi\n      mload(0x40)\n      0x08c379a000000000000000000000000000000000000000000000000000000000\n      dup2\n      mstore\n      0x04\n      add\n      tag_72\n      swap1\n      tag_73\n      jump\t// in\n    tag_72:\n      mload(0x40)\n      dup1\n      swap2\n      sub\n      swap1\n      revert\n    tag_71:\n        /* \"contracts/StrongHands.sol\":3321:3328  return; */\n      pop\n      pop\n      pop\n      pop\n      jump(tag_56)\n        /* \"contracts/StrongHands.sol\":2786:3339  if(currentBlockTime > lockTimeOfUser + timeToBeLocked )  ... */\n    tag_61:\n        /* \"contracts/StrongHands.sol\":3664:3678  uint spentTime */\n      0x00\n        /* \"contracts/StrongHands.sol\":3722:3736  timeToBeLocked */\n      immutable(\"0xcc143a676b82d5e07b2c9d57717b403ab3c58caa273a42cdb95b15980141a86c\")\n        /* \"contracts/StrongHands.sol\":3716:3719  100 */\n      0x64\n        /* \"contracts/StrongHands.sol\":3700:3714  lockTimeOfUser */\n      dup5\n        /* \"contracts/StrongHands.sol\":3683:3699  currentBlockTime */\n      dup5\n        /* \"contracts/StrongHands.sol\":3683:3714  currentBlockTime-lockTimeOfUser */\n      tag_74\n      swap2\n      swap1\n      tag_63\n      jump\t// in\n    tag_74:\n        /* \"contracts/StrongHands.sol\":3682:3719  (currentBlockTime-lockTimeOfUser)*100 */\n      tag_75\n      swap2\n      swap1\n      tag_76\n      jump\t// in\n    tag_75:\n        /* \"contracts/StrongHands.sol\":3681:3737  ((currentBlockTime-lockTimeOfUser)*100)/(timeToBeLocked) */\n      tag_77\n      swap2\n      swap1\n      tag_78\n      jump\t// in\n    tag_77:\n        /* \"contracts/StrongHands.sol\":3664:3737  uint spentTime = ((currentBlockTime-lockTimeOfUser)*100)/(timeToBeLocked) */\n      swap1\n      pop\n        /* \"contracts/StrongHands.sol\":3777:3791  uint toBePayed */\n      0x00\n        /* \"contracts/StrongHands.sol\":3840:3843  100 */\n      0x64\n        /* \"contracts/StrongHands.sol\":3835:3836  2 */\n      0x02\n        /* \"contracts/StrongHands.sol\":3824:3833  spentTime */\n      dup4\n        /* \"contracts/StrongHands.sol\":3818:3821  100 */\n      0x64\n        /* \"contracts/StrongHands.sol\":3818:3833  100 - spentTime */\n      tag_79\n      swap2\n      swap1\n      tag_63\n      jump\t// in\n    tag_79:\n        /* \"contracts/StrongHands.sol\":3817:3836  (100 - spentTime)/2 */\n      tag_80\n      swap2\n      swap1\n      tag_78\n      jump\t// in\n    tag_80:\n        /* \"contracts/StrongHands.sol\":3795:3813  currentMoneyOfUser */\n      dup7\n        /* \"contracts/StrongHands.sol\":3795:3837  currentMoneyOfUser * ((100 - spentTime)/2) */\n      tag_81\n      swap2\n      swap1\n      tag_76\n      jump\t// in\n    tag_81:\n        /* \"contracts/StrongHands.sol\":3794:3843  (currentMoneyOfUser * ((100 - spentTime)/2)) /100 */\n      tag_82\n      swap2\n      swap1\n      tag_78\n      jump\t// in\n    tag_82:\n        /* \"contracts/StrongHands.sol\":3777:3843  uint toBePayed = (currentMoneyOfUser * ((100 - spentTime)/2)) /100 */\n      swap1\n      pop\n        /* \"contracts/StrongHands.sol\":3877:3883  uint x */\n      0x00\n        /* \"contracts/StrongHands.sol\":3886:3895  toBePayed */\n      dup2\n        /* \"contracts/StrongHands.sol\":3877:3895  uint x = toBePayed */\n      swap1\n      pop\n        /* \"contracts/StrongHands.sol\":4018:4028  uint money */\n      0x00\n        /* \"contracts/StrongHands.sol\":4050:4068  currentMoneyOfUser */\n      dup7\n        /* \"contracts/StrongHands.sol\":4031:4046  depositedAmount */\n      sload(0x05)\n        /* \"contracts/StrongHands.sol\":4031:4068  depositedAmount -  currentMoneyOfUser */\n      tag_83\n      swap2\n      swap1\n      tag_63\n      jump\t// in\n    tag_83:\n        /* \"contracts/StrongHands.sol\":4018:4068  uint money = depositedAmount -  currentMoneyOfUser */\n      swap1\n      pop\n        /* \"contracts/StrongHands.sol\":4142:4171  address [] memory  _usernames */\n      0x00\n        /* \"contracts/StrongHands.sol\":4174:4183  usernames */\n      0x01\n        /* \"contracts/StrongHands.sol\":4142:4183  address [] memory  _usernames = usernames */\n      dup1\n      sload\n      dup1\n      0x20\n      mul\n      0x20\n      add\n      mload(0x40)\n      swap1\n      dup2\n      add\n      0x40\n      mstore\n      dup1\n      swap3\n      swap2\n      swap1\n      dup2\n      dup2\n      mstore\n      0x20\n      add\n      dup3\n      dup1\n      sload\n      dup1\n      iszero\n      tag_84\n      jumpi\n      0x20\n      mul\n      dup3\n      add\n      swap2\n      swap1\n      0x00\n      mstore\n      keccak256(0x00, 0x20)\n      swap1\n    tag_85:\n      dup2\n      0x00\n      swap1\n      sload\n      swap1\n      0x0100\n      exp\n      swap1\n      div\n      0xffffffffffffffffffffffffffffffffffffffff\n      and\n      0xffffffffffffffffffffffffffffffffffffffff\n      and\n      dup2\n      mstore\n      0x20\n      add\n      swap1\n      0x01\n      add\n      swap1\n      dup1\n      dup4\n      gt\n      tag_85\n      jumpi\n    tag_84:\n      pop\n      pop\n      pop\n      pop\n      pop\n      swap1\n      pop\n        /* \"contracts/StrongHands.sol\":4194:4203  uint perc */\n      0x00\n        /* \"contracts/StrongHands.sol\":4215:4225  uint toPay */\n      dup1\n        /* \"contracts/StrongHands.sol\":4241:4247  uint i */\n      0x00\n        /* \"contracts/StrongHands.sol\":4236:4845  for (uint i = 0; i < _usernames.length; i++)... */\n    tag_86:\n        /* \"contracts/StrongHands.sol\":4257:4267  _usernames */\n      dup4\n        /* \"contracts/StrongHands.sol\":4257:4274  _usernames.length */\n      mload\n        /* \"contracts/StrongHands.sol\":4253:4254  i */\n      dup2\n        /* \"contracts/StrongHands.sol\":4253:4274  i < _usernames.length */\n      lt\n        /* \"contracts/StrongHands.sol\":4236:4845  for (uint i = 0; i < _usernames.length; i++)... */\n      iszero\n      tag_87\n      jumpi\n        /* \"contracts/StrongHands.sol\":4305:4332  uint currentMappedUserValue */\n      0x00\n        /* \"contracts/StrongHands.sol\":4335:4343  allUsers */\n      dup1\n        /* \"contracts/StrongHands.sol\":4335:4358  allUsers[_usernames[i]] */\n      0x00\n        /* \"contracts/StrongHands.sol\":4344:4354  _usernames */\n      dup7\n        /* \"contracts/StrongHands.sol\":4355:4356  i */\n      dup5\n        /* \"contracts/StrongHands.sol\":4344:4357  _usernames[i] */\n      dup2\n      mload\n      dup2\n      lt\n      tag_89\n      jumpi\n      tag_90\n      tag_91\n      jump\t// in\n    tag_90:\n    tag_89:\n      0x20\n      mul\n      0x20\n      add\n      add\n      mload\n        /* \"contracts/StrongHands.sol\":4335:4358  allUsers[_usernames[i]] */\n      0xffffffffffffffffffffffffffffffffffffffff\n      and\n      0xffffffffffffffffffffffffffffffffffffffff\n      and\n      dup2\n      mstore\n      0x20\n      add\n      swap1\n      dup2\n      mstore\n      0x20\n      add\n      0x00\n      keccak256\n        /* \"contracts/StrongHands.sol\":4335:4364  allUsers[_usernames[i]].value */\n      0x00\n      add\n      sload\n        /* \"contracts/StrongHands.sol\":4305:4364  uint currentMappedUserValue = allUsers[_usernames[i]].value */\n      swap1\n      pop\n        /* \"contracts/StrongHands.sol\":4397:4407  msg.sender */\n      caller\n        /* \"contracts/StrongHands.sol\":4382:4407  _usernames[i]!=msg.sender */\n      0xffffffffffffffffffffffffffffffffffffffff\n      and\n        /* \"contracts/StrongHands.sol\":4382:4392  _usernames */\n      dup6\n        /* \"contracts/StrongHands.sol\":4393:4394  i */\n      dup4\n        /* \"contracts/StrongHands.sol\":4382:4395  _usernames[i] */\n      dup2\n      mload\n      dup2\n      lt\n      tag_92\n      jumpi\n      tag_93\n      tag_91\n      jump\t// in\n    tag_93:\n    tag_92:\n      0x20\n      mul\n      0x20\n      add\n      add\n      mload\n        /* \"contracts/StrongHands.sol\":4382:4407  _usernames[i]!=msg.sender */\n      0xffffffffffffffffffffffffffffffffffffffff\n      and\n      eq\n      iszero\n        /* \"contracts/StrongHands.sol\":4382:4438  _usernames[i]!=msg.sender &&  currentMappedUserValue > 0 */\n      dup1\n      iszero\n      tag_94\n      jumpi\n      pop\n        /* \"contracts/StrongHands.sol\":4437:4438  0 */\n      0x00\n        /* \"contracts/StrongHands.sol\":4412:4434  currentMappedUserValue */\n      dup2\n        /* \"contracts/StrongHands.sol\":4412:4438  currentMappedUserValue > 0 */\n      gt\n        /* \"contracts/StrongHands.sol\":4382:4438  _usernames[i]!=msg.sender &&  currentMappedUserValue > 0 */\n    tag_94:\n        /* \"contracts/StrongHands.sol\":4379:4834  if(_usernames[i]!=msg.sender &&  currentMappedUserValue > 0)... */\n      iszero\n      tag_95\n      jumpi\n        /* \"contracts/StrongHands.sol\":4669:4674  money */\n      dup6\n        /* \"contracts/StrongHands.sol\":1076:1081  10000 */\n      0x2710\n        /* \"contracts/StrongHands.sol\":4631:4653  currentMappedUserValue */\n      dup3\n        /* \"contracts/StrongHands.sol\":4631:4665  currentMappedUserValue * percision */\n      tag_96\n      swap2\n      swap1\n      tag_76\n      jump\t// in\n    tag_96:\n        /* \"contracts/StrongHands.sol\":4630:4674  (currentMappedUserValue * percision) / money */\n      tag_97\n      swap2\n      swap1\n      tag_78\n      jump\t// in\n    tag_97:\n        /* \"contracts/StrongHands.sol\":4623:4674  perc = (currentMappedUserValue * percision) / money */\n      swap4\n      pop\n        /* \"contracts/StrongHands.sol\":1076:1081  10000 */\n      0x2710\n        /* \"contracts/StrongHands.sol\":4713:4717  perc */\n      dup5\n        /* \"contracts/StrongHands.sol\":4703:4712  toBePayed */\n      dup10\n        /* \"contracts/StrongHands.sol\":4703:4717  toBePayed*perc */\n      tag_98\n      swap2\n      swap1\n      tag_76\n      jump\t// in\n    tag_98:\n        /* \"contracts/StrongHands.sol\":4702:4730  (toBePayed*perc)/(percision) */\n      tag_99\n      swap2\n      swap1\n      tag_78\n      jump\t// in\n    tag_99:\n        /* \"contracts/StrongHands.sol\":4694:4730  toPay = (toBePayed*perc)/(percision) */\n      swap3\n      pop\n        /* \"contracts/StrongHands.sol\":4757:4762  toPay */\n      dup3\n        /* \"contracts/StrongHands.sol\":4753:4754  x */\n      dup8\n        /* \"contracts/StrongHands.sol\":4753:4762  x - toPay */\n      tag_100\n      swap2\n      swap1\n      tag_63\n      jump\t// in\n    tag_100:\n        /* \"contracts/StrongHands.sol\":4749:4762  x = x - toPay */\n      swap7\n      pop\n        /* \"contracts/StrongHands.sol\":4813:4818  toPay */\n      dup3\n        /* \"contracts/StrongHands.sol\":4781:4789  allUsers */\n      0x00\n        /* \"contracts/StrongHands.sol\":4781:4804  allUsers[_usernames[i]] */\n      dup1\n        /* \"contracts/StrongHands.sol\":4790:4800  _usernames */\n      dup8\n        /* \"contracts/StrongHands.sol\":4801:4802  i */\n      dup6\n        /* \"contracts/StrongHands.sol\":4790:4803  _usernames[i] */\n      dup2\n      mload\n      dup2\n      lt\n      tag_101\n      jumpi\n      tag_102\n      tag_91\n      jump\t// in\n    tag_102:\n    tag_101:\n      0x20\n      mul\n      0x20\n      add\n      add\n      mload\n        /* \"contracts/StrongHands.sol\":4781:4804  allUsers[_usernames[i]] */\n      0xffffffffffffffffffffffffffffffffffffffff\n      and\n      0xffffffffffffffffffffffffffffffffffffffff\n      and\n      dup2\n      mstore\n      0x20\n      add\n      swap1\n      dup2\n      mstore\n      0x20\n      add\n      0x00\n      keccak256\n        /* \"contracts/StrongHands.sol\":4781:4810  allUsers[_usernames[i]].value */\n      0x00\n      add\n      0x00\n        /* \"contracts/StrongHands.sol\":4781:4818  allUsers[_usernames[i]].value +=toPay */\n      dup3\n      dup3\n      sload\n      tag_103\n      swap2\n      swap1\n      tag_37\n      jump\t// in\n    tag_103:\n      swap3\n      pop\n      pop\n      dup2\n      swap1\n      sstore\n      pop\n        /* \"contracts/StrongHands.sol\":4379:4834  if(_usernames[i]!=msg.sender &&  currentMappedUserValue > 0)... */\n    tag_95:\n        /* \"contracts/StrongHands.sol\":4290:4845  {... */\n      pop\n        /* \"contracts/StrongHands.sol\":4276:4279  i++ */\n      dup1\n      dup1\n      tag_104\n      swap1\n      tag_105\n      jump\t// in\n    tag_104:\n      swap2\n      pop\n      pop\n        /* \"contracts/StrongHands.sol\":4236:4845  for (uint i = 0; i < _usernames.length; i++)... */\n      jump(tag_86)\n    tag_87:\n      pop\n        /* \"contracts/StrongHands.sol\":4911:4912  x */\n      dup5\n        /* \"contracts/StrongHands.sol\":4899:4908  toBePayed */\n      dup7\n        /* \"contracts/StrongHands.sol\":4878:4896  currentMoneyOfUser */\n      dup12\n        /* \"contracts/StrongHands.sol\":4878:4908  currentMoneyOfUser - toBePayed */\n      tag_106\n      swap2\n      swap1\n      tag_63\n      jump\t// in\n    tag_106:\n        /* \"contracts/StrongHands.sol\":4878:4912  currentMoneyOfUser - toBePayed + x */\n      tag_107\n      swap2\n      swap1\n      tag_37\n      jump\t// in\n    tag_107:\n        /* \"contracts/StrongHands.sol\":4857:4912  currentMoneyOfUser = currentMoneyOfUser - toBePayed + x */\n      swap10\n      pop\n        /* \"contracts/StrongHands.sol\":4960:4978  currentMoneyOfUser */\n      dup10\n        /* \"contracts/StrongHands.sol\":4942:4957  depositedAmount */\n      sload(0x05)\n        /* \"contracts/StrongHands.sol\":4942:4978  depositedAmount - currentMoneyOfUser */\n      tag_108\n      swap2\n      swap1\n      tag_63\n      jump\t// in\n    tag_108:\n        /* \"contracts/StrongHands.sol\":4924:4939  depositedAmount */\n      0x05\n        /* \"contracts/StrongHands.sol\":4924:4978  depositedAmount = depositedAmount - currentMoneyOfUser */\n      dup2\n      swap1\n      sstore\n      pop\n        /* \"contracts/StrongHands.sol\":5018:5019  0 */\n      0x00\n        /* \"contracts/StrongHands.sol\":4989:4997  allUsers */\n      dup1\n        /* \"contracts/StrongHands.sol\":4989:5009  allUsers[msg.sender] */\n      0x00\n        /* \"contracts/StrongHands.sol\":4998:5008  msg.sender */\n      caller\n        /* \"contracts/StrongHands.sol\":4989:5009  allUsers[msg.sender] */\n      0xffffffffffffffffffffffffffffffffffffffff\n      and\n      0xffffffffffffffffffffffffffffffffffffffff\n      and\n      dup2\n      mstore\n      0x20\n      add\n      swap1\n      dup2\n      mstore\n      0x20\n      add\n      0x00\n      keccak256\n        /* \"contracts/StrongHands.sol\":4989:5015  allUsers[msg.sender].value */\n      0x00\n      add\n        /* \"contracts/StrongHands.sol\":4989:5019  allUsers[msg.sender].value = 0 */\n      dup2\n      swap1\n      sstore\n      pop\n        /* \"contracts/StrongHands.sol\":5030:5062  withdrawWETH(currentMoneyOfUser) */\n      tag_109\n        /* \"contracts/StrongHands.sol\":5043:5061  currentMoneyOfUser */\n      dup11\n        /* \"contracts/StrongHands.sol\":5030:5042  withdrawWETH */\n      tag_65\n        /* \"contracts/StrongHands.sol\":5030:5062  withdrawWETH(currentMoneyOfUser) */\n      jump\t// in\n    tag_109:\n        /* \"contracts/StrongHands.sol\":5074:5086  bool success */\n      0x00\n        /* \"contracts/StrongHands.sol\":5092:5102  msg.sender */\n      caller\n        /* \"contracts/StrongHands.sol\":5092:5107  msg.sender.call */\n      0xffffffffffffffffffffffffffffffffffffffff\n      and\n        /* \"contracts/StrongHands.sol\":5116:5134  currentMoneyOfUser */\n      dup12\n        /* \"contracts/StrongHands.sol\":5092:5139  msg.sender.call{value : currentMoneyOfUser}(\"\") */\n      mload(0x40)\n      tag_110\n      swap1\n      tag_67\n      jump\t// in\n    tag_110:\n      0x00\n      mload(0x40)\n      dup1\n      dup4\n      sub\n      dup2\n      dup6\n      dup8\n      gas\n      call\n      swap3\n      pop\n      pop\n      pop\n      returndatasize\n      dup1\n      0x00\n      dup2\n      eq\n      tag_113\n      jumpi\n      mload(0x40)\n      swap2\n      pop\n      and(add(returndatasize, 0x3f), not(0x1f))\n      dup3\n      add\n      0x40\n      mstore\n      returndatasize\n      dup3\n      mstore\n      returndatasize\n      0x00\n      0x20\n      dup5\n      add\n      returndatacopy\n      jump(tag_112)\n    tag_113:\n      0x60\n      swap2\n      pop\n    tag_112:\n      pop\n        /* \"contracts/StrongHands.sol\":5073:5139  (bool success, ) = msg.sender.call{value : currentMoneyOfUser}(\"\") */\n      pop\n      swap1\n      pop\n        /* \"contracts/StrongHands.sol\":5158:5165  success */\n      dup1\n        /* \"contracts/StrongHands.sol\":5150:5186  require(success, \"Transfer failed.\") */\n      tag_114\n      jumpi\n      mload(0x40)\n      0x08c379a000000000000000000000000000000000000000000000000000000000\n      dup2\n      mstore\n      0x04\n      add\n      tag_115\n      swap1\n      tag_73\n      jump\t// in\n    tag_115:\n      mload(0x40)\n      dup1\n      swap2\n      sub\n      swap1\n      revert\n    tag_114:\n        /* \"contracts/StrongHands.sol\":5226:5227  0 */\n      0x00\n        /* \"contracts/StrongHands.sol\":5197:5205  allUsers */\n      dup1\n        /* \"contracts/StrongHands.sol\":5197:5217  allUsers[msg.sender] */\n      0x00\n        /* \"contracts/StrongHands.sol\":5206:5216  msg.sender */\n      caller\n        /* \"contracts/StrongHands.sol\":5197:5217  allUsers[msg.sender] */\n      0xffffffffffffffffffffffffffffffffffffffff\n      and\n      0xffffffffffffffffffffffffffffffffffffffff\n      and\n      dup2\n      mstore\n      0x20\n      add\n      swap1\n      dup2\n      mstore\n      0x20\n      add\n      0x00\n      keccak256\n        /* \"contracts/StrongHands.sol\":5197:5223  allUsers[msg.sender].value */\n      0x00\n      add\n        /* \"contracts/StrongHands.sol\":5197:5227  allUsers[msg.sender].value = 0 */\n      dup2\n      swap1\n      sstore\n      pop\n        /* \"contracts/StrongHands.sol\":2525:5237  {... */\n      pop\n      pop\n      pop\n      pop\n      pop\n      pop\n      pop\n      pop\n      pop\n      pop\n      pop\n        /* \"contracts/StrongHands.sol\":2483:5237  function getMyEther() public payable... */\n    tag_56:\n      jump\t// out\n        /* \"contracts/StrongHands.sol\":5371:5692  function sendKajmakToOwner() public payable onlyOwner... */\n    tag_31:\n        /* \"contracts/StrongHands.sol\":5758:5765  manager */\n      0x02\n      0x00\n      swap1\n      sload\n      swap1\n      0x0100\n      exp\n      swap1\n      div\n      0xffffffffffffffffffffffffffffffffffffffff\n      and\n        /* \"contracts/StrongHands.sol\":5744:5765  msg.sender == manager */\n      0xffffffffffffffffffffffffffffffffffffffff\n      and\n        /* \"contracts/StrongHands.sol\":5744:5754  msg.sender */\n      caller\n        /* \"contracts/StrongHands.sol\":5744:5765  msg.sender == manager */\n      0xffffffffffffffffffffffffffffffffffffffff\n      and\n      eq\n        /* \"contracts/StrongHands.sol\":5736:5804  require(msg.sender == manager , \"Only owner can call this function\") */\n      tag_117\n      jumpi\n      mload(0x40)\n      0x08c379a000000000000000000000000000000000000000000000000000000000\n      dup2\n      mstore\n      0x04\n      add\n      tag_118\n      swap1\n      tag_119\n      jump\t// in\n    tag_118:\n      mload(0x40)\n      dup1\n      swap2\n      sub\n      swap1\n      revert\n    tag_117:\n        /* \"contracts/StrongHands.sol\":5443:5454  uint income */\n      0x00\n        /* \"contracts/StrongHands.sol\":5488:5503  depositedAmount */\n      sload(0x05)\n        /* \"contracts/StrongHands.sol\":5457:5485  getCurrentBalanceOfATokens() */\n      tag_121\n        /* \"contracts/StrongHands.sol\":5457:5483  getCurrentBalanceOfATokens */\n      tag_26\n        /* \"contracts/StrongHands.sol\":5457:5485  getCurrentBalanceOfATokens() */\n      jump\t// in\n    tag_121:\n        /* \"contracts/StrongHands.sol\":5457:5503  getCurrentBalanceOfATokens() - depositedAmount */\n      tag_122\n      swap2\n      swap1\n      tag_63\n      jump\t// in\n    tag_122:\n        /* \"contracts/StrongHands.sol\":5443:5503  uint income = getCurrentBalanceOfATokens() - depositedAmount */\n      swap1\n      pop\n        /* \"contracts/StrongHands.sol\":5533:5534  0 */\n      0x00\n        /* \"contracts/StrongHands.sol\":5524:5530  income */\n      dup2\n        /* \"contracts/StrongHands.sol\":5524:5534  income > 0 */\n      gt\n        /* \"contracts/StrongHands.sol\":5516:5535  require(income > 0) */\n      tag_123\n      jumpi\n      0x00\n      dup1\n      revert\n    tag_123:\n        /* \"contracts/StrongHands.sol\":5548:5568  withdrawWETH(income) */\n      tag_124\n        /* \"contracts/StrongHands.sol\":5561:5567  income */\n      dup2\n        /* \"contracts/StrongHands.sol\":5548:5560  withdrawWETH */\n      tag_65\n        /* \"contracts/StrongHands.sol\":5548:5568  withdrawWETH(income) */\n      jump\t// in\n    tag_124:\n        /* \"contracts/StrongHands.sol\":5582:5594  bool success */\n      0x00\n        /* \"contracts/StrongHands.sol\":5600:5610  msg.sender */\n      caller\n        /* \"contracts/StrongHands.sol\":5600:5615  msg.sender.call */\n      0xffffffffffffffffffffffffffffffffffffffff\n      and\n        /* \"contracts/StrongHands.sol\":5624:5630  income */\n      dup3\n        /* \"contracts/StrongHands.sol\":5600:5635  msg.sender.call{value : income}(\"\") */\n      mload(0x40)\n      tag_125\n      swap1\n      tag_67\n      jump\t// in\n    tag_125:\n      0x00\n      mload(0x40)\n      dup1\n      dup4\n      sub\n      dup2\n      dup6\n      dup8\n      gas\n      call\n      swap3\n      pop\n      pop\n      pop\n      returndatasize\n      dup1\n      0x00\n      dup2\n      eq\n      tag_128\n      jumpi\n      mload(0x40)\n      swap2\n      pop\n      and(add(returndatasize, 0x3f), not(0x1f))\n      dup3\n      add\n      0x40\n      mstore\n      returndatasize\n      dup3\n      mstore\n      returndatasize\n      0x00\n      0x20\n      dup5\n      add\n      returndatacopy\n      jump(tag_127)\n    tag_128:\n      0x60\n      swap2\n      pop\n    tag_127:\n      pop\n        /* \"contracts/StrongHands.sol\":5581:5635  (bool success, ) = msg.sender.call{value : income}(\"\") */\n      pop\n      swap1\n      pop\n        /* \"contracts/StrongHands.sol\":5656:5663  success */\n      dup1\n        /* \"contracts/StrongHands.sol\":5648:5684  require(success, \"Transfer failed.\") */\n      tag_129\n      jumpi\n      mload(0x40)\n      0x08c379a000000000000000000000000000000000000000000000000000000000\n      dup2\n      mstore\n      0x04\n      add\n      tag_130\n      swap1\n      tag_73\n      jump\t// in\n    tag_130:\n      mload(0x40)\n      dup1\n      swap2\n      sub\n      swap1\n      revert\n    tag_129:\n        /* \"contracts/StrongHands.sol\":5430:5692  {... */\n      pop\n      pop\n        /* \"contracts/StrongHands.sol\":5371:5692  function sendKajmakToOwner() public payable onlyOwner... */\n      jump\t// out\n        /* \"contracts/StrongHands.sol\":6782:6951  function depositAave(uint val) internal ... */\n    tag_41:\n        /* \"contracts/StrongHands.sol\":6851:6852  0 */\n      0x00\n        /* \"contracts/StrongHands.sol\":6845:6848  val */\n      dup2\n        /* \"contracts/StrongHands.sol\":6845:6852  val > 0 */\n      gt\n        /* \"contracts/StrongHands.sol\":6837:6853  require(val > 0) */\n      tag_132\n      jumpi\n      0x00\n      dup1\n      revert\n    tag_132:\n        /* \"contracts/StrongHands.sol\":6862:6877  depositETH(val) */\n      tag_133\n        /* \"contracts/StrongHands.sol\":6873:6876  val */\n      dup2\n        /* \"contracts/StrongHands.sol\":6862:6872  depositETH */\n      tag_134\n        /* \"contracts/StrongHands.sol\":6862:6877  depositETH(val) */\n      jump\t// in\n    tag_133:\n        /* \"contracts/StrongHands.sol\":6886:6898  lending_pool */\n      0x04\n      0x00\n      swap1\n      sload\n      swap1\n      0x0100\n      exp\n      swap1\n      div\n      0xffffffffffffffffffffffffffffffffffffffff\n      and\n        /* \"contracts/StrongHands.sol\":6886:6906  lending_pool.deposit */\n      0xffffffffffffffffffffffffffffffffffffffff\n      and\n      0xe8eda9df\n        /* \"contracts/StrongHands.sol\":6915:6919  weth */\n      immutable(\"0x2cc0d3dcb20652cd8f106aee76b6a7391771a130885634c0eb2bbe3cde796691\")\n        /* \"contracts/StrongHands.sol\":6921:6924  val */\n      dup4\n        /* \"contracts/StrongHands.sol\":6934:6938  this */\n      address\n        /* \"contracts/StrongHands.sol\":6941:6942  0 */\n      0x00\n        /* \"contracts/StrongHands.sol\":6886:6943  lending_pool.deposit(address(weth),val, address(this), 0) */\n      mload(0x40)\n      dup6\n      0xffffffff\n      and\n      0xe0\n      shl\n      dup2\n      mstore\n      0x04\n      add\n      tag_135\n      swap5\n      swap4\n      swap3\n      swap2\n      swap1\n      tag_136\n      jump\t// in\n    tag_135:\n      0x00\n      mload(0x40)\n      dup1\n      dup4\n      sub\n      dup2\n      0x00\n      dup8\n      dup1\n      extcodesize\n      iszero\n      dup1\n      iszero\n      tag_137\n      jumpi\n      0x00\n      dup1\n      revert\n    tag_137:\n      pop\n      gas\n      call\n      iszero\n      dup1\n      iszero\n      tag_139\n      jumpi\n      returndatasize\n      0x00\n      dup1\n      returndatacopy\n      revert(0x00, returndatasize)\n    tag_139:\n      pop\n      pop\n      pop\n      pop\n        /* \"contracts/StrongHands.sol\":6782:6951  function depositAave(uint val) internal ... */\n      pop\n      jump\t// out\n        /* \"contracts/StrongHands.sol\":6467:6697  function withdrawWETH(uint val) internal ... */\n    tag_65:\n        /* \"contracts/StrongHands.sol\":6527:6539  lending_pool */\n      0x04\n      0x00\n      swap1\n      sload\n      swap1\n      0x0100\n      exp\n      swap1\n      div\n      0xffffffffffffffffffffffffffffffffffffffff\n      and\n        /* \"contracts/StrongHands.sol\":6527:6548  lending_pool.withdraw */\n      0xffffffffffffffffffffffffffffffffffffffff\n      and\n      0x69328dec\n        /* \"contracts/StrongHands.sol\":6557:6561  weth */\n      immutable(\"0x2cc0d3dcb20652cd8f106aee76b6a7391771a130885634c0eb2bbe3cde796691\")\n        /* \"contracts/StrongHands.sol\":6563:6566  val */\n      dup4\n        /* \"contracts/StrongHands.sol\":6576:6580  this */\n      address\n        /* \"contracts/StrongHands.sol\":6527:6582  lending_pool.withdraw(address(weth),val, address(this)) */\n      mload(0x40)\n      dup5\n      0xffffffff\n      and\n      0xe0\n      shl\n      dup2\n      mstore\n      0x04\n      add\n      tag_141\n      swap4\n      swap3\n      swap2\n      swap1\n      tag_142\n      jump\t// in\n    tag_141:\n      0x20\n      mload(0x40)\n      dup1\n      dup4\n      sub\n      dup2\n      0x00\n      dup8\n      gas\n      call\n      iszero\n      dup1\n      iszero\n      tag_144\n      jumpi\n      returndatasize\n      0x00\n      dup1\n      returndatacopy\n      revert(0x00, returndatasize)\n    tag_144:\n      pop\n      pop\n      pop\n      pop\n      mload(0x40)\n      returndatasize\n      not(0x1f)\n      0x1f\n      dup3\n      add\n      and\n      dup3\n      add\n      dup1\n      0x40\n      mstore\n      pop\n      dup2\n      add\n      swap1\n      tag_145\n      swap2\n      swap1\n      tag_55\n      jump\t// in\n    tag_145:\n      pop\n        /* \"contracts/StrongHands.sol\":6593:6602  bool torf */\n      0x00\n        /* \"contracts/StrongHands.sol\":6605:6609  weth */\n      immutable(\"0x2cc0d3dcb20652cd8f106aee76b6a7391771a130885634c0eb2bbe3cde796691\")\n        /* \"contracts/StrongHands.sol\":6605:6617  weth.approve */\n      0xffffffffffffffffffffffffffffffffffffffff\n      and\n      0x095ea7b3\n        /* \"contracts/StrongHands.sol\":6626:6630  this */\n      address\n        /* \"contracts/StrongHands.sol\":6634:6637  val */\n      dup5\n        /* \"contracts/StrongHands.sol\":6605:6638  weth.approve(address(this) , val) */\n      mload(0x40)\n      dup4\n      0xffffffff\n      and\n      0xe0\n      shl\n      dup2\n      mstore\n      0x04\n      add\n      tag_146\n      swap3\n      swap2\n      swap1\n      tag_147\n      jump\t// in\n    tag_146:\n      0x20\n      mload(0x40)\n      dup1\n      dup4\n      sub\n      dup2\n      0x00\n      dup8\n      gas\n      call\n      iszero\n      dup1\n      iszero\n      tag_149\n      jumpi\n      returndatasize\n      0x00\n      dup1\n      returndatacopy\n      revert(0x00, returndatasize)\n    tag_149:\n      pop\n      pop\n      pop\n      pop\n      mload(0x40)\n      returndatasize\n      not(0x1f)\n      0x1f\n      dup3\n      add\n      and\n      dup3\n      add\n      dup1\n      0x40\n      mstore\n      pop\n      dup2\n      add\n      swap1\n      tag_150\n      swap2\n      swap1\n      tag_151\n      jump\t// in\n    tag_150:\n        /* \"contracts/StrongHands.sol\":6593:6638  bool torf = weth.approve(address(this) , val) */\n      swap1\n      pop\n        /* \"contracts/StrongHands.sol\":6652:6656  torf */\n      dup1\n        /* \"contracts/StrongHands.sol\":6649:6689  if(torf)... */\n      iszero\n      tag_152\n      jumpi\n        /* \"contracts/StrongHands.sol\":6671:6675  weth */\n      immutable(\"0x2cc0d3dcb20652cd8f106aee76b6a7391771a130885634c0eb2bbe3cde796691\")\n        /* \"contracts/StrongHands.sol\":6671:6684  weth.withdraw */\n      0xffffffffffffffffffffffffffffffffffffffff\n      and\n      0x2e1a7d4d\n        /* \"contracts/StrongHands.sol\":6685:6688  val */\n      dup4\n        /* \"contracts/StrongHands.sol\":6671:6689  weth.withdraw(val) */\n      mload(0x40)\n      dup3\n      0xffffffff\n      and\n      0xe0\n      shl\n      dup2\n      mstore\n      0x04\n      add\n      tag_153\n      swap2\n      swap1\n      tag_19\n      jump\t// in\n    tag_153:\n      0x00\n      mload(0x40)\n      dup1\n      dup4\n      sub\n      dup2\n      0x00\n      dup8\n      dup1\n      extcodesize\n      iszero\n      dup1\n      iszero\n      tag_154\n      jumpi\n      0x00\n      dup1\n      revert\n    tag_154:\n      pop\n      gas\n      call\n      iszero\n      dup1\n      iszero\n      tag_156\n      jumpi\n      returndatasize\n      0x00\n      dup1\n      returndatacopy\n      revert(0x00, returndatasize)\n    tag_156:\n      pop\n      pop\n      pop\n      pop\n        /* \"contracts/StrongHands.sol\":6649:6689  if(torf)... */\n    tag_152:\n        /* \"contracts/StrongHands.sol\":6516:6697  {... */\n      pop\n        /* \"contracts/StrongHands.sol\":6467:6697  function withdrawWETH(uint val) internal ... */\n      pop\n      jump\t// out\n        /* \"contracts/StrongHands.sol\":5900:5991  function depositETH(uint val) internal ... */\n    tag_134:\n        /* \"contracts/StrongHands.sol\":5956:5960  weth */\n      immutable(\"0x2cc0d3dcb20652cd8f106aee76b6a7391771a130885634c0eb2bbe3cde796691\")\n        /* \"contracts/StrongHands.sol\":5956:5968  weth.deposit */\n      0xffffffffffffffffffffffffffffffffffffffff\n      and\n      0xd0e30db0\n        /* \"contracts/StrongHands.sol\":5977:5980  val */\n      dup3\n        /* \"contracts/StrongHands.sol\":5956:5983  weth.deposit{value : val}() */\n      mload(0x40)\n      dup3\n      0xffffffff\n      and\n      0xe0\n      shl\n      dup2\n      mstore\n      0x04\n      add\n      0x00\n      mload(0x40)\n      dup1\n      dup4\n      sub\n      dup2\n      dup6\n      dup9\n      dup1\n      extcodesize\n      iszero\n      dup1\n      iszero\n      tag_158\n      jumpi\n      0x00\n      dup1\n      revert\n    tag_158:\n      pop\n      gas\n      call\n      iszero\n      dup1\n      iszero\n      tag_160\n      jumpi\n      returndatasize\n      0x00\n      dup1\n      returndatacopy\n      revert(0x00, returndatasize)\n    tag_160:\n      pop\n      pop\n      pop\n      pop\n      pop\n        /* \"contracts/StrongHands.sol\":5900:5991  function depositETH(uint val) internal ... */\n      pop\n      jump\t// out\n        /* \"#utility.yul\":7:84   */\n    tag_161:\n        /* \"#utility.yul\":44:51   */\n      0x00\n        /* \"#utility.yul\":73:78   */\n      dup2\n        /* \"#utility.yul\":62:78   */\n      swap1\n      pop\n        /* \"#utility.yul\":7:84   */\n      swap2\n      swap1\n      pop\n      jump\t// out\n        /* \"#utility.yul\":90:208   */\n    tag_162:\n        /* \"#utility.yul\":177:201   */\n      tag_215\n        /* \"#utility.yul\":195:200   */\n      dup2\n        /* \"#utility.yul\":177:201   */\n      tag_161\n      jump\t// in\n    tag_215:\n        /* \"#utility.yul\":172:175   */\n      dup3\n        /* \"#utility.yul\":165:202   */\n      mstore\n        /* \"#utility.yul\":90:208   */\n      pop\n      pop\n      jump\t// out\n        /* \"#utility.yul\":214:436   */\n    tag_19:\n        /* \"#utility.yul\":307:311   */\n      0x00\n        /* \"#utility.yul\":345:347   */\n      0x20\n        /* \"#utility.yul\":334:343   */\n      dup3\n        /* \"#utility.yul\":330:348   */\n      add\n        /* \"#utility.yul\":322:348   */\n      swap1\n      pop\n        /* \"#utility.yul\":358:429   */\n      tag_217\n        /* \"#utility.yul\":426:427   */\n      0x00\n        /* \"#utility.yul\":415:424   */\n      dup4\n        /* \"#utility.yul\":411:428   */\n      add\n        /* \"#utility.yul\":402:408   */\n      dup5\n        /* \"#utility.yul\":358:429   */\n      tag_162\n      jump\t// in\n    tag_217:\n        /* \"#utility.yul\":214:436   */\n      swap3\n      swap2\n      pop\n      pop\n      jump\t// out\n        /* \"#utility.yul\":442:611   */\n    tag_163:\n        /* \"#utility.yul\":526:537   */\n      0x00\n        /* \"#utility.yul\":560:566   */\n      dup3\n        /* \"#utility.yul\":555:558   */\n      dup3\n        /* \"#utility.yul\":548:567   */\n      mstore\n        /* \"#utility.yul\":600:604   */\n      0x20\n        /* \"#utility.yul\":595:598   */\n      dup3\n        /* \"#utility.yul\":591:605   */\n      add\n        /* \"#utility.yul\":576:605   */\n      swap1\n      pop\n        /* \"#utility.yul\":442:611   */\n      swap3\n      swap2\n      pop\n      pop\n      jump\t// out\n        /* \"#utility.yul\":617:795   */\n    tag_164:\n        /* \"#utility.yul\":757:787   */\n      0x596f75206d7573742073656e6420736f6d6520746f6b656e732e2e2e00000000\n        /* \"#utility.yul\":753:754   */\n      0x00\n        /* \"#utility.yul\":745:751   */\n      dup3\n        /* \"#utility.yul\":741:755   */\n      add\n        /* \"#utility.yul\":734:788   */\n      mstore\n        /* \"#utility.yul\":617:795   */\n      pop\n      jump\t// out\n        /* \"#utility.yul\":801:1167   */\n    tag_165:\n        /* \"#utility.yul\":943:946   */\n      0x00\n        /* \"#utility.yul\":964:1031   */\n      tag_221\n        /* \"#utility.yul\":1028:1030   */\n      0x1c\n        /* \"#utility.yul\":1023:1026   */\n      dup4\n        /* \"#utility.yul\":964:1031   */\n      tag_163\n      jump\t// in\n    tag_221:\n        /* \"#utility.yul\":957:1031   */\n      swap2\n      pop\n        /* \"#utility.yul\":1040:1133   */\n      tag_222\n        /* \"#utility.yul\":1129:1132   */\n      dup3\n        /* \"#utility.yul\":1040:1133   */\n      tag_164\n      jump\t// in\n    tag_222:\n        /* \"#utility.yul\":1158:1160   */\n      0x20\n        /* \"#utility.yul\":1153:1156   */\n      dup3\n        /* \"#utility.yul\":1149:1161   */\n      add\n        /* \"#utility.yul\":1142:1161   */\n      swap1\n      pop\n        /* \"#utility.yul\":801:1167   */\n      swap2\n      swap1\n      pop\n      jump\t// out\n        /* \"#utility.yul\":1173:1592   */\n    tag_35:\n        /* \"#utility.yul\":1339:1343   */\n      0x00\n        /* \"#utility.yul\":1377:1379   */\n      0x20\n        /* \"#utility.yul\":1366:1375   */\n      dup3\n        /* \"#utility.yul\":1362:1380   */\n      add\n        /* \"#utility.yul\":1354:1380   */\n      swap1\n      pop\n        /* \"#utility.yul\":1426:1435   */\n      dup2\n        /* \"#utility.yul\":1420:1424   */\n      dup2\n        /* \"#utility.yul\":1416:1436   */\n      sub\n        /* \"#utility.yul\":1412:1413   */\n      0x00\n        /* \"#utility.yul\":1401:1410   */\n      dup4\n        /* \"#utility.yul\":1397:1414   */\n      add\n        /* \"#utility.yul\":1390:1437   */\n      mstore\n        /* \"#utility.yul\":1454:1585   */\n      tag_224\n        /* \"#utility.yul\":1580:1584   */\n      dup2\n        /* \"#utility.yul\":1454:1585   */\n      tag_165\n      jump\t// in\n    tag_224:\n        /* \"#utility.yul\":1446:1585   */\n      swap1\n      pop\n        /* \"#utility.yul\":1173:1592   */\n      swap2\n      swap1\n      pop\n      jump\t// out\n        /* \"#utility.yul\":1598:1778   */\n    tag_166:\n        /* \"#utility.yul\":1646:1723   */\n      0x4e487b7100000000000000000000000000000000000000000000000000000000\n        /* \"#utility.yul\":1643:1644   */\n      0x00\n        /* \"#utility.yul\":1636:1724   */\n      mstore\n        /* \"#utility.yul\":1743:1747   */\n      0x11\n        /* \"#utility.yul\":1740:1741   */\n      0x04\n        /* \"#utility.yul\":1733:1748   */\n      mstore\n        /* \"#utility.yul\":1767:1771   */\n      0x24\n        /* \"#utility.yul\":1764:1765   */\n      0x00\n        /* \"#utility.yul\":1757:1772   */\n      revert\n        /* \"#utility.yul\":1784:2089   */\n    tag_37:\n        /* \"#utility.yul\":1824:1827   */\n      0x00\n        /* \"#utility.yul\":1843:1863   */\n      tag_227\n        /* \"#utility.yul\":1861:1862   */\n      dup3\n        /* \"#utility.yul\":1843:1863   */\n      tag_161\n      jump\t// in\n    tag_227:\n        /* \"#utility.yul\":1838:1863   */\n      swap2\n      pop\n        /* \"#utility.yul\":1877:1897   */\n      tag_228\n        /* \"#utility.yul\":1895:1896   */\n      dup4\n        /* \"#utility.yul\":1877:1897   */\n      tag_161\n      jump\t// in\n    tag_228:\n        /* \"#utility.yul\":1872:1897   */\n      swap3\n      pop\n        /* \"#utility.yul\":2031:2032   */\n      dup3\n        /* \"#utility.yul\":1963:2029   */\n      0xffffffffffffffffffffffffffffffffffffffffffffffffffffffffffffffff\n        /* \"#utility.yul\":1959:2033   */\n      sub\n        /* \"#utility.yul\":1956:1957   */\n      dup3\n        /* \"#utility.yul\":1953:2034   */\n      gt\n        /* \"#utility.yul\":1950:2057   */\n      iszero\n      tag_229\n      jumpi\n        /* \"#utility.yul\":2037:2055   */\n      tag_230\n      tag_166\n      jump\t// in\n    tag_230:\n        /* \"#utility.yul\":1950:2057   */\n    tag_229:\n        /* \"#utility.yul\":2081:2082   */\n      dup3\n        /* \"#utility.yul\":2078:2079   */\n      dup3\n        /* \"#utility.yul\":2074:2083   */\n      add\n        /* \"#utility.yul\":2067:2083   */\n      swap1\n      pop\n        /* \"#utility.yul\":1784:2089   */\n      swap3\n      swap2\n      pop\n      pop\n      jump\t// out\n        /* \"#utility.yul\":2095:2221   */\n    tag_167:\n        /* \"#utility.yul\":2132:2139   */\n      0x00\n        /* \"#utility.yul\":2172:2214   */\n      0xffffffffffffffffffffffffffffffffffffffff\n        /* \"#utility.yul\":2165:2170   */\n      dup3\n        /* \"#utility.yul\":2161:2215   */\n      and\n        /* \"#utility.yul\":2150:2215   */\n      swap1\n      pop\n        /* \"#utility.yul\":2095:2221   */\n      swap2\n      swap1\n      pop\n      jump\t// out\n        /* \"#utility.yul\":2227:2323   */\n    tag_168:\n        /* \"#utility.yul\":2264:2271   */\n      0x00\n        /* \"#utility.yul\":2293:2317   */\n      tag_233\n        /* \"#utility.yul\":2311:2316   */\n      dup3\n        /* \"#utility.yul\":2293:2317   */\n      tag_167\n      jump\t// in\n    tag_233:\n        /* \"#utility.yul\":2282:2317   */\n      swap1\n      pop\n        /* \"#utility.yul\":2227:2323   */\n      swap2\n      swap1\n      pop\n      jump\t// out\n        /* \"#utility.yul\":2329:2447   */\n    tag_169:\n        /* \"#utility.yul\":2416:2440   */\n      tag_235\n        /* \"#utility.yul\":2434:2439   */\n      dup2\n        /* \"#utility.yul\":2416:2440   */\n      tag_168\n      jump\t// in\n    tag_235:\n        /* \"#utility.yul\":2411:2414   */\n      dup3\n        /* \"#utility.yul\":2404:2441   */\n      mstore\n        /* \"#utility.yul\":2329:2447   */\n      pop\n      pop\n      jump\t// out\n        /* \"#utility.yul\":2453:2675   */\n    tag_46:\n        /* \"#utility.yul\":2546:2550   */\n      0x00\n        /* \"#utility.yul\":2584:2586   */\n      0x20\n        /* \"#utility.yul\":2573:2582   */\n      dup3\n        /* \"#utility.yul\":2569:2587   */\n      add\n        /* \"#utility.yul\":2561:2587   */\n      swap1\n      pop\n        /* \"#utility.yul\":2597:2668   */\n      tag_237\n        /* \"#utility.yul\":2665:2666   */\n      0x00\n        /* \"#utility.yul\":2654:2663   */\n      dup4\n        /* \"#utility.yul\":2650:2667   */\n      add\n        /* \"#utility.yul\":2641:2647   */\n      dup5\n        /* \"#utility.yul\":2597:2668   */\n      tag_169\n      jump\t// in\n    tag_237:\n        /* \"#utility.yul\":2453:2675   */\n      swap3\n      swap2\n      pop\n      pop\n      jump\t// out\n        /* \"#utility.yul\":2681:2756   */\n    tag_170:\n        /* \"#utility.yul\":2714:2720   */\n      0x00\n        /* \"#utility.yul\":2747:2749   */\n      0x40\n        /* \"#utility.yul\":2741:2750   */\n      mload\n        /* \"#utility.yul\":2731:2750   */\n      swap1\n      pop\n        /* \"#utility.yul\":2681:2756   */\n      swap1\n      jump\t// out\n        /* \"#utility.yul\":2762:2879   */\n    tag_171:\n        /* \"#utility.yul\":2871:2872   */\n      0x00\n        /* \"#utility.yul\":2868:2869   */\n      dup1\n        /* \"#utility.yul\":2861:2873   */\n      revert\n        /* \"#utility.yul\":3008:3125   */\n    tag_173:\n        /* \"#utility.yul\":3117:3118   */\n      0x00\n        /* \"#utility.yul\":3114:3115   */\n      dup1\n        /* \"#utility.yul\":3107:3119   */\n      revert\n        /* \"#utility.yul\":3131:3233   */\n    tag_174:\n        /* \"#utility.yul\":3172:3178   */\n      0x00\n        /* \"#utility.yul\":3223:3225   */\n      0x1f\n        /* \"#utility.yul\":3219:3226   */\n      not\n        /* \"#utility.yul\":3214:3216   */\n      0x1f\n        /* \"#utility.yul\":3207:3212   */\n      dup4\n        /* \"#utility.yul\":3203:3217   */\n      add\n        /* \"#utility.yul\":3199:3227   */\n      and\n        /* \"#utility.yul\":3189:3227   */\n      swap1\n      pop\n        /* \"#utility.yul\":3131:3233   */\n      swap2\n      swap1\n      pop\n      jump\t// out\n        /* \"#utility.yul\":3239:3419   */\n    tag_175:\n        /* \"#utility.yul\":3287:3364   */\n      0x4e487b7100000000000000000000000000000000000000000000000000000000\n        /* \"#utility.yul\":3284:3285   */\n      0x00\n        /* \"#utility.yul\":3277:3365   */\n      mstore\n        /* \"#utility.yul\":3384:3388   */\n      0x41\n        /* \"#utility.yul\":3381:3382   */\n      0x04\n        /* \"#utility.yul\":3374:3389   */\n      mstore\n        /* \"#utility.yul\":3408:3412   */\n      0x24\n        /* \"#utility.yul\":3405:3406   */\n      0x00\n        /* \"#utility.yul\":3398:3413   */\n      revert\n        /* \"#utility.yul\":3425:3706   */\n    tag_176:\n        /* \"#utility.yul\":3508:3535   */\n      tag_245\n        /* \"#utility.yul\":3530:3534   */\n      dup3\n        /* \"#utility.yul\":3508:3535   */\n      tag_174\n      jump\t// in\n    tag_245:\n        /* \"#utility.yul\":3500:3506   */\n      dup2\n        /* \"#utility.yul\":3496:3536   */\n      add\n        /* \"#utility.yul\":3638:3644   */\n      dup2\n        /* \"#utility.yul\":3626:3636   */\n      dup2\n        /* \"#utility.yul\":3623:3645   */\n      lt\n        /* \"#utility.yul\":3602:3620   */\n      0xffffffffffffffff\n        /* \"#utility.yul\":3590:3600   */\n      dup3\n        /* \"#utility.yul\":3587:3621   */\n      gt\n        /* \"#utility.yul\":3584:3646   */\n      or\n        /* \"#utility.yul\":3581:3669   */\n      iszero\n      tag_246\n      jumpi\n        /* \"#utility.yul\":3649:3667   */\n      tag_247\n      tag_175\n      jump\t// in\n    tag_247:\n        /* \"#utility.yul\":3581:3669   */\n    tag_246:\n        /* \"#utility.yul\":3689:3699   */\n      dup1\n        /* \"#utility.yul\":3685:3687   */\n      0x40\n        /* \"#utility.yul\":3678:3700   */\n      mstore\n        /* \"#utility.yul\":3468:3706   */\n      pop\n        /* \"#utility.yul\":3425:3706   */\n      pop\n      pop\n      jump\t// out\n        /* \"#utility.yul\":3712:3841   */\n    tag_177:\n        /* \"#utility.yul\":3746:3752   */\n      0x00\n        /* \"#utility.yul\":3773:3793   */\n      tag_249\n      tag_170\n      jump\t// in\n    tag_249:\n        /* \"#utility.yul\":3763:3793   */\n      swap1\n      pop\n        /* \"#utility.yul\":3802:3835   */\n      tag_250\n        /* \"#utility.yul\":3830:3834   */\n      dup3\n        /* \"#utility.yul\":3822:3828   */\n      dup3\n        /* \"#utility.yul\":3802:3835   */\n      tag_176\n      jump\t// in\n    tag_250:\n        /* \"#utility.yul\":3712:3841   */\n      swap2\n      swap1\n      pop\n      jump\t// out\n        /* \"#utility.yul\":3970:4092   */\n    tag_179:\n        /* \"#utility.yul\":4043:4067   */\n      tag_253\n        /* \"#utility.yul\":4061:4066   */\n      dup2\n        /* \"#utility.yul\":4043:4067   */\n      tag_161\n      jump\t// in\n    tag_253:\n        /* \"#utility.yul\":4036:4041   */\n      dup2\n        /* \"#utility.yul\":4033:4068   */\n      eq\n        /* \"#utility.yul\":4023:4086   */\n      tag_254\n      jumpi\n        /* \"#utility.yul\":4082:4083   */\n      0x00\n        /* \"#utility.yul\":4079:4080   */\n      dup1\n        /* \"#utility.yul\":4072:4084   */\n      revert\n        /* \"#utility.yul\":4023:4086   */\n    tag_254:\n        /* \"#utility.yul\":3970:4092   */\n      pop\n      jump\t// out\n        /* \"#utility.yul\":4098:4241   */\n    tag_180:\n        /* \"#utility.yul\":4155:4160   */\n      0x00\n        /* \"#utility.yul\":4186:4192   */\n      dup2\n        /* \"#utility.yul\":4180:4193   */\n      mload\n        /* \"#utility.yul\":4171:4193   */\n      swap1\n      pop\n        /* \"#utility.yul\":4202:4235   */\n      tag_256\n        /* \"#utility.yul\":4229:4234   */\n      dup2\n        /* \"#utility.yul\":4202:4235   */\n      tag_179\n      jump\t// in\n    tag_256:\n        /* \"#utility.yul\":4098:4241   */\n      swap3\n      swap2\n      pop\n      pop\n      jump\t// out\n        /* \"#utility.yul\":4295:4746   */\n    tag_181:\n        /* \"#utility.yul\":4396:4401   */\n      0x00\n        /* \"#utility.yul\":4440:4444   */\n      0x20\n        /* \"#utility.yul\":4428:4437   */\n      dup3\n        /* \"#utility.yul\":4423:4426   */\n      dup5\n        /* \"#utility.yul\":4419:4438   */\n      sub\n        /* \"#utility.yul\":4415:4445   */\n      slt\n        /* \"#utility.yul\":4412:4529   */\n      iszero\n      tag_258\n      jumpi\n        /* \"#utility.yul\":4448:4527   */\n      tag_259\n      tag_173\n      jump\t// in\n    tag_259:\n        /* \"#utility.yul\":4412:4529   */\n    tag_258:\n        /* \"#utility.yul\":4547:4568   */\n      tag_260\n        /* \"#utility.yul\":4563:4567   */\n      0x20\n        /* \"#utility.yul\":4547:4568   */\n      tag_177\n      jump\t// in\n    tag_260:\n        /* \"#utility.yul\":4538:4568   */\n      swap1\n      pop\n        /* \"#utility.yul\":4627:4628   */\n      0x00\n        /* \"#utility.yul\":4667:4727   */\n      tag_261\n        /* \"#utility.yul\":4723:4726   */\n      dup5\n        /* \"#utility.yul\":4714:4720   */\n      dup3\n        /* \"#utility.yul\":4703:4712   */\n      dup6\n        /* \"#utility.yul\":4699:4721   */\n      add\n        /* \"#utility.yul\":4667:4727   */\n      tag_180\n      jump\t// in\n    tag_261:\n        /* \"#utility.yul\":4660:4664   */\n      0x00\n        /* \"#utility.yul\":4653:4658   */\n      dup4\n        /* \"#utility.yul\":4649:4665   */\n      add\n        /* \"#utility.yul\":4642:4728   */\n      mstore\n        /* \"#utility.yul\":4578:4739   */\n      pop\n        /* \"#utility.yul\":4295:4746   */\n      swap3\n      swap2\n      pop\n      pop\n      jump\t// out\n        /* \"#utility.yul\":4752:4870   */\n    tag_182:\n        /* \"#utility.yul\":4789:4796   */\n      0x00\n        /* \"#utility.yul\":4829:4863   */\n      0xffffffffffffffffffffffffffffffff\n        /* \"#utility.yul\":4822:4827   */\n      dup3\n        /* \"#utility.yul\":4818:4864   */\n      and\n        /* \"#utility.yul\":4807:4864   */\n      swap1\n      pop\n        /* \"#utility.yul\":4752:4870   */\n      swap2\n      swap1\n      pop\n      jump\t// out\n        /* \"#utility.yul\":4876:4998   */\n    tag_183:\n        /* \"#utility.yul\":4949:4973   */\n      tag_264\n        /* \"#utility.yul\":4967:4972   */\n      dup2\n        /* \"#utility.yul\":4949:4973   */\n      tag_182\n      jump\t// in\n    tag_264:\n        /* \"#utility.yul\":4942:4947   */\n      dup2\n        /* \"#utility.yul\":4939:4974   */\n      eq\n        /* \"#utility.yul\":4929:4992   */\n      tag_265\n      jumpi\n        /* \"#utility.yul\":4988:4989   */\n      0x00\n        /* \"#utility.yul\":4985:4986   */\n      dup1\n        /* \"#utility.yul\":4978:4990   */\n      revert\n        /* \"#utility.yul\":4929:4992   */\n    tag_265:\n        /* \"#utility.yul\":4876:4998   */\n      pop\n      jump\t// out\n        /* \"#utility.yul\":5004:5147   */\n    tag_184:\n        /* \"#utility.yul\":5061:5066   */\n      0x00\n        /* \"#utility.yul\":5092:5098   */\n      dup2\n        /* \"#utility.yul\":5086:5099   */\n      mload\n        /* \"#utility.yul\":5077:5099   */\n      swap1\n      pop\n        /* \"#utility.yul\":5108:5141   */\n      tag_267\n        /* \"#utility.yul\":5135:5140   */\n      dup2\n        /* \"#utility.yul\":5108:5141   */\n      tag_183\n      jump\t// in\n    tag_267:\n        /* \"#utility.yul\":5004:5147   */\n      swap3\n      swap2\n      pop\n      pop\n      jump\t// out\n        /* \"#utility.yul\":5153:5248   */\n    tag_185:\n        /* \"#utility.yul\":5189:5196   */\n      0x00\n        /* \"#utility.yul\":5229:5241   */\n      0xffffffffff\n        /* \"#utility.yul\":5222:5227   */\n      dup3\n        /* \"#utility.yul\":5218:5242   */\n      and\n        /* \"#utility.yul\":5207:5242   */\n      swap1\n      pop\n        /* \"#utility.yul\":5153:5248   */\n      swap2\n      swap1\n      pop\n      jump\t// out\n        /* \"#utility.yul\":5254:5374   */\n    tag_186:\n        /* \"#utility.yul\":5326:5349   */\n      tag_270\n        /* \"#utility.yul\":5343:5348   */\n      dup2\n        /* \"#utility.yul\":5326:5349   */\n      tag_185\n      jump\t// in\n    tag_270:\n        /* \"#utility.yul\":5319:5324   */\n      dup2\n        /* \"#utility.yul\":5316:5350   */\n      eq\n        /* \"#utility.yul\":5306:5368   */\n      tag_271\n      jumpi\n        /* \"#utility.yul\":5364:5365   */\n      0x00\n        /* \"#utility.yul\":5361:5362   */\n      dup1\n        /* \"#utility.yul\":5354:5366   */\n      revert\n        /* \"#utility.yul\":5306:5368   */\n    tag_271:\n        /* \"#utility.yul\":5254:5374   */\n      pop\n      jump\t// out\n        /* \"#utility.yul\":5380:5521   */\n    tag_187:\n        /* \"#utility.yul\":5436:5441   */\n      0x00\n        /* \"#utility.yul\":5467:5473   */\n      dup2\n        /* \"#utility.yul\":5461:5474   */\n      mload\n        /* \"#utility.yul\":5452:5474   */\n      swap1\n      pop\n        /* \"#utility.yul\":5483:5515   */\n      tag_273\n        /* \"#utility.yul\":5509:5514   */\n      dup2\n        /* \"#utility.yul\":5483:5515   */\n      tag_186\n      jump\t// in\n    tag_273:\n        /* \"#utility.yul\":5380:5521   */\n      swap3\n      swap2\n      pop\n      pop\n      jump\t// out\n        /* \"#utility.yul\":5527:5649   */\n    tag_188:\n        /* \"#utility.yul\":5600:5624   */\n      tag_275\n        /* \"#utility.yul\":5618:5623   */\n      dup2\n        /* \"#utility.yul\":5600:5624   */\n      tag_168\n      jump\t// in\n    tag_275:\n        /* \"#utility.yul\":5593:5598   */\n      dup2\n        /* \"#utility.yul\":5590:5625   */\n      eq\n        /* \"#utility.yul\":5580:5643   */\n      tag_276\n      jumpi\n        /* \"#utility.yul\":5639:5640   */\n      0x00\n        /* \"#utility.yul\":5636:5637   */\n      dup1\n        /* \"#utility.yul\":5629:5641   */\n      revert\n        /* \"#utility.yul\":5580:5643   */\n    tag_276:\n        /* \"#utility.yul\":5527:5649   */\n      pop\n      jump\t// out\n        /* \"#utility.yul\":5655:5798   */\n    tag_189:\n        /* \"#utility.yul\":5712:5717   */\n      0x00\n        /* \"#utility.yul\":5743:5749   */\n      dup2\n        /* \"#utility.yul\":5737:5750   */\n      mload\n        /* \"#utility.yul\":5728:5750   */\n      swap1\n      pop\n        /* \"#utility.yul\":5759:5792   */\n      tag_278\n        /* \"#utility.yul\":5786:5791   */\n      dup2\n        /* \"#utility.yul\":5759:5792   */\n      tag_188\n      jump\t// in\n    tag_278:\n        /* \"#utility.yul\":5655:5798   */\n      swap3\n      swap2\n      pop\n      pop\n      jump\t// out\n        /* \"#utility.yul\":5804:5890   */\n    tag_190:\n        /* \"#utility.yul\":5839:5846   */\n      0x00\n        /* \"#utility.yul\":5879:5883   */\n      0xff\n        /* \"#utility.yul\":5872:5877   */\n      dup3\n        /* \"#utility.yul\":5868:5884   */\n      and\n        /* \"#utility.yul\":5857:5884   */\n      swap1\n      pop\n        /* \"#utility.yul\":5804:5890   */\n      swap2\n      swap1\n      pop\n      jump\t// out\n        /* \"#utility.yul\":5896:6014   */\n    tag_191:\n        /* \"#utility.yul\":5967:5989   */\n      tag_281\n        /* \"#utility.yul\":5983:5988   */\n      dup2\n        /* \"#utility.yul\":5967:5989   */\n      tag_190\n      jump\t// in\n    tag_281:\n        /* \"#utility.yul\":5960:5965   */\n      dup2\n        /* \"#utility.yul\":5957:5990   */\n      eq\n        /* \"#utility.yul\":5947:6008   */\n      tag_282\n      jumpi\n        /* \"#utility.yul\":6004:6005   */\n      0x00\n        /* \"#utility.yul\":6001:6002   */\n      dup1\n        /* \"#utility.yul\":5994:6006   */\n      revert\n        /* \"#utility.yul\":5947:6008   */\n    tag_282:\n        /* \"#utility.yul\":5896:6014   */\n      pop\n      jump\t// out\n        /* \"#utility.yul\":6020:6159   */\n    tag_192:\n        /* \"#utility.yul\":6075:6080   */\n      0x00\n        /* \"#utility.yul\":6106:6112   */\n      dup2\n        /* \"#utility.yul\":6100:6113   */\n      mload\n        /* \"#utility.yul\":6091:6113   */\n      swap1\n      pop\n        /* \"#utility.yul\":6122:6153   */\n      tag_284\n        /* \"#utility.yul\":6147:6152   */\n      dup2\n        /* \"#utility.yul\":6122:6153   */\n      tag_191\n      jump\t// in\n    tag_284:\n        /* \"#utility.yul\":6020:6159   */\n      swap3\n      swap2\n      pop\n      pop\n      jump\t// out\n        /* \"#utility.yul\":6201:8763   */\n    tag_193:\n        /* \"#utility.yul\":6290:6295   */\n      0x00\n        /* \"#utility.yul\":6334:6340   */\n      0x0180\n        /* \"#utility.yul\":6322:6331   */\n      dup3\n        /* \"#utility.yul\":6317:6320   */\n      dup5\n        /* \"#utility.yul\":6313:6332   */\n      sub\n        /* \"#utility.yul\":6309:6341   */\n      slt\n        /* \"#utility.yul\":6306:6425   */\n      iszero\n      tag_286\n      jumpi\n        /* \"#utility.yul\":6344:6423   */\n      tag_287\n      tag_173\n      jump\t// in\n    tag_287:\n        /* \"#utility.yul\":6306:6425   */\n    tag_286:\n        /* \"#utility.yul\":6443:6466   */\n      tag_288\n        /* \"#utility.yul\":6459:6465   */\n      0x0180\n        /* \"#utility.yul\":6443:6466   */\n      tag_177\n      jump\t// in\n    tag_288:\n        /* \"#utility.yul\":6434:6466   */\n      swap1\n      pop\n        /* \"#utility.yul\":6534:6535   */\n      0x00\n        /* \"#utility.yul\":6574:6675   */\n      tag_289\n        /* \"#utility.yul\":6671:6674   */\n      dup5\n        /* \"#utility.yul\":6662:6668   */\n      dup3\n        /* \"#utility.yul\":6651:6660   */\n      dup6\n        /* \"#utility.yul\":6647:6669   */\n      add\n        /* \"#utility.yul\":6574:6675   */\n      tag_181\n      jump\t// in\n    tag_289:\n        /* \"#utility.yul\":6567:6571   */\n      0x00\n        /* \"#utility.yul\":6560:6565   */\n      dup4\n        /* \"#utility.yul\":6556:6572   */\n      add\n        /* \"#utility.yul\":6549:6676   */\n      mstore\n        /* \"#utility.yul\":6476:6687   */\n      pop\n        /* \"#utility.yul\":6756:6758   */\n      0x20\n        /* \"#utility.yul\":6797:6857   */\n      tag_290\n        /* \"#utility.yul\":6853:6856   */\n      dup5\n        /* \"#utility.yul\":6844:6850   */\n      dup3\n        /* \"#utility.yul\":6833:6842   */\n      dup6\n        /* \"#utility.yul\":6829:6851   */\n      add\n        /* \"#utility.yul\":6797:6857   */\n      tag_184\n      jump\t// in\n    tag_290:\n        /* \"#utility.yul\":6790:6794   */\n      0x20\n        /* \"#utility.yul\":6783:6788   */\n      dup4\n        /* \"#utility.yul\":6779:6795   */\n      add\n        /* \"#utility.yul\":6772:6858   */\n      mstore\n        /* \"#utility.yul\":6697:6869   */\n      pop\n        /* \"#utility.yul\":6943:6945   */\n      0x40\n        /* \"#utility.yul\":6984:7044   */\n      tag_291\n        /* \"#utility.yul\":7040:7043   */\n      dup5\n        /* \"#utility.yul\":7031:7037   */\n      dup3\n        /* \"#utility.yul\":7020:7029   */\n      dup6\n        /* \"#utility.yul\":7016:7038   */\n      add\n        /* \"#utility.yul\":6984:7044   */\n      tag_184\n      jump\t// in\n    tag_291:\n        /* \"#utility.yul\":6977:6981   */\n      0x40\n        /* \"#utility.yul\":6970:6975   */\n      dup4\n        /* \"#utility.yul\":6966:6982   */\n      add\n        /* \"#utility.yul\":6959:7045   */\n      mstore\n        /* \"#utility.yul\":6879:7056   */\n      pop\n        /* \"#utility.yul\":7131:7133   */\n      0x60\n        /* \"#utility.yul\":7172:7232   */\n      tag_292\n        /* \"#utility.yul\":7228:7231   */\n      dup5\n        /* \"#utility.yul\":7219:7225   */\n      dup3\n        /* \"#utility.yul\":7208:7217   */\n      dup6\n        /* \"#utility.yul\":7204:7226   */\n      add\n        /* \"#utility.yul\":7172:7232   */\n      tag_184\n      jump\t// in\n    tag_292:\n        /* \"#utility.yul\":7165:7169   */\n      0x60\n        /* \"#utility.yul\":7158:7163   */\n      dup4\n        /* \"#utility.yul\":7154:7170   */\n      add\n        /* \"#utility.yul\":7147:7233   */\n      mstore\n        /* \"#utility.yul\":7066:7244   */\n      pop\n        /* \"#utility.yul\":7324:7327   */\n      0x80\n        /* \"#utility.yul\":7366:7426   */\n      tag_293\n        /* \"#utility.yul\":7422:7425   */\n      dup5\n        /* \"#utility.yul\":7413:7419   */\n      dup3\n        /* \"#utility.yul\":7402:7411   */\n      dup6\n        /* \"#utility.yul\":7398:7420   */\n      add\n        /* \"#utility.yul\":7366:7426   */\n      tag_184\n      jump\t// in\n    tag_293:\n        /* \"#utility.yul\":7359:7363   */\n      0x80\n        /* \"#utility.yul\":7352:7357   */\n      dup4\n        /* \"#utility.yul\":7348:7364   */\n      add\n        /* \"#utility.yul\":7341:7427   */\n      mstore\n        /* \"#utility.yul\":7254:7438   */\n      pop\n        /* \"#utility.yul\":7516:7519   */\n      0xa0\n        /* \"#utility.yul\":7558:7618   */\n      tag_294\n        /* \"#utility.yul\":7614:7617   */\n      dup5\n        /* \"#utility.yul\":7605:7611   */\n      dup3\n        /* \"#utility.yul\":7594:7603   */\n      dup6\n        /* \"#utility.yul\":7590:7612   */\n      add\n        /* \"#utility.yul\":7558:7618   */\n      tag_184\n      jump\t// in\n    tag_294:\n        /* \"#utility.yul\":7551:7555   */\n      0xa0\n        /* \"#utility.yul\":7544:7549   */\n      dup4\n        /* \"#utility.yul\":7540:7556   */\n      add\n        /* \"#utility.yul\":7533:7619   */\n      mstore\n        /* \"#utility.yul\":7448:7630   */\n      pop\n        /* \"#utility.yul\":7704:7707   */\n      0xc0\n        /* \"#utility.yul\":7746:7805   */\n      tag_295\n        /* \"#utility.yul\":7801:7804   */\n      dup5\n        /* \"#utility.yul\":7792:7798   */\n      dup3\n        /* \"#utility.yul\":7781:7790   */\n      dup6\n        /* \"#utility.yul\":7777:7799   */\n      add\n        /* \"#utility.yul\":7746:7805   */\n      tag_187\n      jump\t// in\n    tag_295:\n        /* \"#utility.yul\":7739:7743   */\n      0xc0\n        /* \"#utility.yul\":7732:7737   */\n      dup4\n        /* \"#utility.yul\":7728:7744   */\n      add\n        /* \"#utility.yul\":7721:7806   */\n      mstore\n        /* \"#utility.yul\":7640:7817   */\n      pop\n        /* \"#utility.yul\":7885:7888   */\n      0xe0\n        /* \"#utility.yul\":7927:7987   */\n      tag_296\n        /* \"#utility.yul\":7983:7986   */\n      dup5\n        /* \"#utility.yul\":7974:7980   */\n      dup3\n        /* \"#utility.yul\":7963:7972   */\n      dup6\n        /* \"#utility.yul\":7959:7981   */\n      add\n        /* \"#utility.yul\":7927:7987   */\n      tag_189\n      jump\t// in\n    tag_296:\n        /* \"#utility.yul\":7920:7924   */\n      0xe0\n        /* \"#utility.yul\":7913:7918   */\n      dup4\n        /* \"#utility.yul\":7909:7925   */\n      add\n        /* \"#utility.yul\":7902:7988   */\n      mstore\n        /* \"#utility.yul\":7827:7999   */\n      pop\n        /* \"#utility.yul\":8076:8079   */\n      0x0100\n        /* \"#utility.yul\":8120:8180   */\n      tag_297\n        /* \"#utility.yul\":8176:8179   */\n      dup5\n        /* \"#utility.yul\":8167:8173   */\n      dup3\n        /* \"#utility.yul\":8156:8165   */\n      dup6\n        /* \"#utility.yul\":8152:8174   */\n      add\n        /* \"#utility.yul\":8120:8180   */\n      tag_189\n      jump\t// in\n    tag_297:\n        /* \"#utility.yul\":8111:8117   */\n      0x0100\n        /* \"#utility.yul\":8104:8109   */\n      dup4\n        /* \"#utility.yul\":8100:8118   */\n      add\n        /* \"#utility.yul\":8093:8181   */\n      mstore\n        /* \"#utility.yul\":8009:8192   */\n      pop\n        /* \"#utility.yul\":8271:8274   */\n      0x0120\n        /* \"#utility.yul\":8315:8375   */\n      tag_298\n        /* \"#utility.yul\":8371:8374   */\n      dup5\n        /* \"#utility.yul\":8362:8368   */\n      dup3\n        /* \"#utility.yul\":8351:8360   */\n      dup6\n        /* \"#utility.yul\":8347:8369   */\n      add\n        /* \"#utility.yul\":8315:8375   */\n      tag_189\n      jump\t// in\n    tag_298:\n        /* \"#utility.yul\":8306:8312   */\n      0x0120\n        /* \"#utility.yul\":8299:8304   */\n      dup4\n        /* \"#utility.yul\":8295:8313   */\n      add\n        /* \"#utility.yul\":8288:8376   */\n      mstore\n        /* \"#utility.yul\":8202:8387   */\n      pop\n        /* \"#utility.yul\":8469:8472   */\n      0x0140\n        /* \"#utility.yul\":8513:8573   */\n      tag_299\n        /* \"#utility.yul\":8569:8572   */\n      dup5\n        /* \"#utility.yul\":8560:8566   */\n      dup3\n        /* \"#utility.yul\":8549:8558   */\n      dup6\n        /* \"#utility.yul\":8545:8567   */\n      add\n        /* \"#utility.yul\":8513:8573   */\n      tag_189\n      jump\t// in\n    tag_299:\n        /* \"#utility.yul\":8504:8510   */\n      0x0140\n        /* \"#utility.yul\":8497:8502   */\n      dup4\n        /* \"#utility.yul\":8493:8511   */\n      add\n        /* \"#utility.yul\":8486:8574   */\n      mstore\n        /* \"#utility.yul\":8397:8585   */\n      pop\n        /* \"#utility.yul\":8642:8645   */\n      0x0160\n        /* \"#utility.yul\":8686:8744   */\n      tag_300\n        /* \"#utility.yul\":8740:8743   */\n      dup5\n        /* \"#utility.yul\":8731:8737   */\n      dup3\n        /* \"#utility.yul\":8720:8729   */\n      dup6\n        /* \"#utility.yul\":8716:8738   */\n      add\n        /* \"#utility.yul\":8686:8744   */\n      tag_192\n      jump\t// in\n    tag_300:\n        /* \"#utility.yul\":8677:8683   */\n      0x0160\n        /* \"#utility.yul\":8670:8675   */\n      dup4\n        /* \"#utility.yul\":8666:8684   */\n      add\n        /* \"#utility.yul\":8659:8745   */\n      mstore\n        /* \"#utility.yul\":8595:8756   */\n      pop\n        /* \"#utility.yul\":6201:8763   */\n      swap3\n      swap2\n      pop\n      pop\n      jump\t// out\n        /* \"#utility.yul\":8769:9179   */\n    tag_50:\n        /* \"#utility.yul\":8868:8874   */\n      0x00\n        /* \"#utility.yul\":8917:8920   */\n      0x0180\n        /* \"#utility.yul\":8905:8914   */\n      dup3\n        /* \"#utility.yul\":8896:8903   */\n      dup5\n        /* \"#utility.yul\":8892:8915   */\n      sub\n        /* \"#utility.yul\":8888:8921   */\n      slt\n        /* \"#utility.yul\":8885:9005   */\n      iszero\n      tag_302\n      jumpi\n        /* \"#utility.yul\":8924:9003   */\n      tag_303\n      tag_171\n      jump\t// in\n    tag_303:\n        /* \"#utility.yul\":8885:9005   */\n    tag_302:\n        /* \"#utility.yul\":9044:9045   */\n      0x00\n        /* \"#utility.yul\":9069:9162   */\n      tag_304\n        /* \"#utility.yul\":9154:9161   */\n      dup5\n        /* \"#utility.yul\":9145:9151   */\n      dup3\n        /* \"#utility.yul\":9134:9143   */\n      dup6\n        /* \"#utility.yul\":9130:9152   */\n      add\n        /* \"#utility.yul\":9069:9162   */\n      tag_193\n      jump\t// in\n    tag_304:\n        /* \"#utility.yul\":9059:9162   */\n      swap2\n      pop\n        /* \"#utility.yul\":9015:9172   */\n      pop\n        /* \"#utility.yul\":8769:9179   */\n      swap3\n      swap2\n      pop\n      pop\n      jump\t// out\n        /* \"#utility.yul\":9185:9536   */\n    tag_55:\n        /* \"#utility.yul\":9255:9261   */\n      0x00\n        /* \"#utility.yul\":9304:9306   */\n      0x20\n        /* \"#utility.yul\":9292:9301   */\n      dup3\n        /* \"#utility.yul\":9283:9290   */\n      dup5\n        /* \"#utility.yul\":9279:9302   */\n      sub\n        /* \"#utility.yul\":9275:9307   */\n      slt\n        /* \"#utility.yul\":9272:9391   */\n      iszero\n      tag_306\n      jumpi\n        /* \"#utility.yul\":9310:9389   */\n      tag_307\n      tag_171\n      jump\t// in\n    tag_307:\n        /* \"#utility.yul\":9272:9391   */\n    tag_306:\n        /* \"#utility.yul\":9430:9431   */\n      0x00\n        /* \"#utility.yul\":9455:9519   */\n      tag_308\n        /* \"#utility.yul\":9511:9518   */\n      dup5\n        /* \"#utility.yul\":9502:9508   */\n      dup3\n        /* \"#utility.yul\":9491:9500   */\n      dup6\n        /* \"#utility.yul\":9487:9509   */\n      add\n        /* \"#utility.yul\":9455:9519   */\n      tag_180\n      jump\t// in\n    tag_308:\n        /* \"#utility.yul\":9445:9519   */\n      swap2\n      pop\n        /* \"#utility.yul\":9401:9529   */\n      pop\n        /* \"#utility.yul\":9185:9536   */\n      swap3\n      swap2\n      pop\n      pop\n      jump\t// out\n        /* \"#utility.yul\":9542:9721   */\n    tag_194:\n        /* \"#utility.yul\":9682:9713   */\n      0x5573657220646f6e27742068617665206465706f736974656420455448000000\n        /* \"#utility.yul\":9678:9679   */\n      0x00\n        /* \"#utility.yul\":9670:9676   */\n      dup3\n        /* \"#utility.yul\":9666:9680   */\n      add\n        /* \"#utility.yul\":9659:9714   */\n      mstore\n        /* \"#utility.yul\":9542:9721   */\n      pop\n      jump\t// out\n        /* \"#utility.yul\":9727:10093   */\n    tag_195:\n        /* \"#utility.yul\":9869:9872   */\n      0x00\n        /* \"#utility.yul\":9890:9957   */\n      tag_311\n        /* \"#utility.yul\":9954:9956   */\n      0x1d\n        /* \"#utility.yul\":9949:9952   */\n      dup4\n        /* \"#utility.yul\":9890:9957   */\n      tag_163\n      jump\t// in\n    tag_311:\n        /* \"#utility.yul\":9883:9957   */\n      swap2\n      pop\n        /* \"#utility.yul\":9966:10059   */\n      tag_312\n        /* \"#utility.yul\":10055:10058   */\n      dup3\n        /* \"#utility.yul\":9966:10059   */\n      tag_194\n      jump\t// in\n    tag_312:\n        /* \"#utility.yul\":10084:10086   */\n      0x20\n        /* \"#utility.yul\":10079:10082   */\n      dup3\n        /* \"#utility.yul\":10075:10087   */\n      add\n        /* \"#utility.yul\":10068:10087   */\n      swap1\n      pop\n        /* \"#utility.yul\":9727:10093   */\n      swap2\n      swap1\n      pop\n      jump\t// out\n        /* \"#utility.yul\":10099:10518   */\n    tag_59:\n        /* \"#utility.yul\":10265:10269   */\n      0x00\n        /* \"#utility.yul\":10303:10305   */\n      0x20\n        /* \"#utility.yul\":10292:10301   */\n      dup3\n        /* \"#utility.yul\":10288:10306   */\n      add\n        /* \"#utility.yul\":10280:10306   */\n      swap1\n      pop\n        /* \"#utility.yul\":10352:10361   */\n      dup2\n        /* \"#utility.yul\":10346:10350   */\n      dup2\n        /* \"#utility.yul\":10342:10362   */\n      sub\n        /* \"#utility.yul\":10338:10339   */\n      0x00\n        /* \"#utility.yul\":10327:10336   */\n      dup4\n        /* \"#utility.yul\":10323:10340   */\n      add\n        /* \"#utility.yul\":10316:10363   */\n      mstore\n        /* \"#utility.yul\":10380:10511   */\n      tag_314\n        /* \"#utility.yul\":10506:10510   */\n      dup2\n        /* \"#utility.yul\":10380:10511   */\n      tag_195\n      jump\t// in\n    tag_314:\n        /* \"#utility.yul\":10372:10511   */\n      swap1\n      pop\n        /* \"#utility.yul\":10099:10518   */\n      swap2\n      swap1\n      pop\n      jump\t// out\n        /* \"#utility.yul\":10524:10715   */\n    tag_63:\n        /* \"#utility.yul\":10564:10568   */\n      0x00\n        /* \"#utility.yul\":10584:10604   */\n      tag_316\n        /* \"#utility.yul\":10602:10603   */\n      dup3\n        /* \"#utility.yul\":10584:10604   */\n      tag_161\n      jump\t// in\n    tag_316:\n        /* \"#utility.yul\":10579:10604   */\n      swap2\n      pop\n        /* \"#utility.yul\":10618:10638   */\n      tag_317\n        /* \"#utility.yul\":10636:10637   */\n      dup4\n        /* \"#utility.yul\":10618:10638   */\n      tag_161\n      jump\t// in\n    tag_317:\n        /* \"#utility.yul\":10613:10638   */\n      swap3\n      pop\n        /* \"#utility.yul\":10657:10658   */\n      dup3\n        /* \"#utility.yul\":10654:10655   */\n      dup3\n        /* \"#utility.yul\":10651:10659   */\n      lt\n        /* \"#utility.yul\":10648:10682   */\n      iszero\n      tag_318\n      jumpi\n        /* \"#utility.yul\":10662:10680   */\n      tag_319\n      tag_166\n      jump\t// in\n    tag_319:\n        /* \"#utility.yul\":10648:10682   */\n    tag_318:\n        /* \"#utility.yul\":10707:10708   */\n      dup3\n        /* \"#utility.yul\":10704:10705   */\n      dup3\n        /* \"#utility.yul\":10700:10709   */\n      sub\n        /* \"#utility.yul\":10692:10709   */\n      swap1\n      pop\n        /* \"#utility.yul\":10524:10715   */\n      swap3\n      swap2\n      pop\n      pop\n      jump\t// out\n        /* \"#utility.yul\":10721:10868   */\n    tag_196:\n        /* \"#utility.yul\":10822:10833   */\n      0x00\n        /* \"#utility.yul\":10859:10862   */\n      dup2\n        /* \"#utility.yul\":10844:10862   */\n      swap1\n      pop\n        /* \"#utility.yul\":10721:10868   */\n      swap3\n      swap2\n      pop\n      pop\n      jump\t// out\n        /* \"#utility.yul\":10874:10988   */\n    tag_197:\n      pop\n      jump\t// out\n        /* \"#utility.yul\":10994:11392   */\n    tag_198:\n        /* \"#utility.yul\":11153:11156   */\n      0x00\n        /* \"#utility.yul\":11174:11257   */\n      tag_323\n        /* \"#utility.yul\":11255:11256   */\n      0x00\n        /* \"#utility.yul\":11250:11253   */\n      dup4\n        /* \"#utility.yul\":11174:11257   */\n      tag_196\n      jump\t// in\n    tag_323:\n        /* \"#utility.yul\":11167:11257   */\n      swap2\n      pop\n        /* \"#utility.yul\":11266:11359   */\n      tag_324\n        /* \"#utility.yul\":11355:11358   */\n      dup3\n        /* \"#utility.yul\":11266:11359   */\n      tag_197\n      jump\t// in\n    tag_324:\n        /* \"#utility.yul\":11384:11385   */\n      0x00\n        /* \"#utility.yul\":11379:11382   */\n      dup3\n        /* \"#utility.yul\":11375:11386   */\n      add\n        /* \"#utility.yul\":11368:11386   */\n      swap1\n      pop\n        /* \"#utility.yul\":10994:11392   */\n      swap2\n      swap1\n      pop\n      jump\t// out\n        /* \"#utility.yul\":11398:11777   */\n    tag_67:\n        /* \"#utility.yul\":11582:11585   */\n      0x00\n        /* \"#utility.yul\":11604:11751   */\n      tag_326\n        /* \"#utility.yul\":11747:11750   */\n      dup3\n        /* \"#utility.yul\":11604:11751   */\n      tag_198\n      jump\t// in\n    tag_326:\n        /* \"#utility.yul\":11597:11751   */\n      swap2\n      pop\n        /* \"#utility.yul\":11768:11771   */\n      dup2\n        /* \"#utility.yul\":11761:11771   */\n      swap1\n      pop\n        /* \"#utility.yul\":11398:11777   */\n      swap2\n      swap1\n      pop\n      jump\t// out\n        /* \"#utility.yul\":11783:11949   */\n    tag_199:\n        /* \"#utility.yul\":11923:11941   */\n      0x5472616e73666572206661696c65642e00000000000000000000000000000000\n        /* \"#utility.yul\":11919:11920   */\n      0x00\n        /* \"#utility.yul\":11911:11917   */\n      dup3\n        /* \"#utility.yul\":11907:11921   */\n      add\n        /* \"#utility.yul\":11900:11942   */\n      mstore\n        /* \"#utility.yul\":11783:11949   */\n      pop\n      jump\t// out\n        /* \"#utility.yul\":11955:12321   */\n    tag_200:\n        /* \"#utility.yul\":12097:12100   */\n      0x00\n        /* \"#utility.yul\":12118:12185   */\n      tag_329\n        /* \"#utility.yul\":12182:12184   */\n      0x10\n        /* \"#utility.yul\":12177:12180   */\n      dup4\n        /* \"#utility.yul\":12118:12185   */\n      tag_163\n      jump\t// in\n    tag_329:\n        /* \"#utility.yul\":12111:12185   */\n      swap2\n      pop\n        /* \"#utility.yul\":12194:12287   */\n      tag_330\n        /* \"#utility.yul\":12283:12286   */\n      dup3\n        /* \"#utility.yul\":12194:12287   */\n      tag_199\n      jump\t// in\n    tag_330:\n        /* \"#utility.yul\":12312:12314   */\n      0x20\n        /* \"#utility.yul\":12307:12310   */\n      dup3\n        /* \"#utility.yul\":12303:12315   */\n      add\n        /* \"#utility.yul\":12296:12315   */\n      swap1\n      pop\n        /* \"#utility.yul\":11955:12321   */\n      swap2\n      swap1\n      pop\n      jump\t// out\n        /* \"#utility.yul\":12327:12746   */\n    tag_73:\n        /* \"#utility.yul\":12493:12497   */\n      0x00\n        /* \"#utility.yul\":12531:12533   */\n      0x20\n        /* \"#utility.yul\":12520:12529   */\n      dup3\n        /* \"#utility.yul\":12516:12534   */\n      add\n        /* \"#utility.yul\":12508:12534   */\n      swap1\n      pop\n        /* \"#utility.yul\":12580:12589   */\n      dup2\n        /* \"#utility.yul\":12574:12578   */\n      dup2\n        /* \"#utility.yul\":12570:12590   */\n      sub\n        /* \"#utility.yul\":12566:12567   */\n      0x00\n        /* \"#utility.yul\":12555:12564   */\n      dup4\n        /* \"#utility.yul\":12551:12568   */\n      add\n        /* \"#utility.yul\":12544:12591   */\n      mstore\n        /* \"#utility.yul\":12608:12739   */\n      tag_332\n        /* \"#utility.yul\":12734:12738   */\n      dup2\n        /* \"#utility.yul\":12608:12739   */\n      tag_200\n      jump\t// in\n    tag_332:\n        /* \"#utility.yul\":12600:12739   */\n      swap1\n      pop\n        /* \"#utility.yul\":12327:12746   */\n      swap2\n      swap1\n      pop\n      jump\t// out\n        /* \"#utility.yul\":12752:13100   */\n    tag_76:\n        /* \"#utility.yul\":12792:12799   */\n      0x00\n        /* \"#utility.yul\":12815:12835   */\n      tag_334\n        /* \"#utility.yul\":12833:12834   */\n      dup3\n        /* \"#utility.yul\":12815:12835   */\n      tag_161\n      jump\t// in\n    tag_334:\n        /* \"#utility.yul\":12810:12835   */\n      swap2\n      pop\n        /* \"#utility.yul\":12849:12869   */\n      tag_335\n        /* \"#utility.yul\":12867:12868   */\n      dup4\n        /* \"#utility.yul\":12849:12869   */\n      tag_161\n      jump\t// in\n    tag_335:\n        /* \"#utility.yul\":12844:12869   */\n      swap3\n      pop\n        /* \"#utility.yul\":13037:13038   */\n      dup2\n        /* \"#utility.yul\":12969:13035   */\n      0xffffffffffffffffffffffffffffffffffffffffffffffffffffffffffffffff\n        /* \"#utility.yul\":12965:13039   */\n      div\n        /* \"#utility.yul\":12962:12963   */\n      dup4\n        /* \"#utility.yul\":12959:13040   */\n      gt\n        /* \"#utility.yul\":12954:12955   */\n      dup3\n        /* \"#utility.yul\":12947:12956   */\n      iszero\n        /* \"#utility.yul\":12940:12957   */\n      iszero\n        /* \"#utility.yul\":12936:13041   */\n      and\n        /* \"#utility.yul\":12933:13064   */\n      iszero\n      tag_336\n      jumpi\n        /* \"#utility.yul\":13044:13062   */\n      tag_337\n      tag_166\n      jump\t// in\n    tag_337:\n        /* \"#utility.yul\":12933:13064   */\n    tag_336:\n        /* \"#utility.yul\":13092:13093   */\n      dup3\n        /* \"#utility.yul\":13089:13090   */\n      dup3\n        /* \"#utility.yul\":13085:13094   */\n      mul\n        /* \"#utility.yul\":13074:13094   */\n      swap1\n      pop\n        /* \"#utility.yul\":12752:13100   */\n      swap3\n      swap2\n      pop\n      pop\n      jump\t// out\n        /* \"#utility.yul\":13106:13286   */\n    tag_201:\n        /* \"#utility.yul\":13154:13231   */\n      0x4e487b7100000000000000000000000000000000000000000000000000000000\n        /* \"#utility.yul\":13151:13152   */\n      0x00\n        /* \"#utility.yul\":13144:13232   */\n      mstore\n        /* \"#utility.yul\":13251:13255   */\n      0x12\n        /* \"#utility.yul\":13248:13249   */\n      0x04\n        /* \"#utility.yul\":13241:13256   */\n      mstore\n        /* \"#utility.yul\":13275:13279   */\n      0x24\n        /* \"#utility.yul\":13272:13273   */\n      0x00\n        /* \"#utility.yul\":13265:13280   */\n      revert\n        /* \"#utility.yul\":13292:13477   */\n    tag_78:\n        /* \"#utility.yul\":13332:13333   */\n      0x00\n        /* \"#utility.yul\":13349:13369   */\n      tag_340\n        /* \"#utility.yul\":13367:13368   */\n      dup3\n        /* \"#utility.yul\":13349:13369   */\n      tag_161\n      jump\t// in\n    tag_340:\n        /* \"#utility.yul\":13344:13369   */\n      swap2\n      pop\n        /* \"#utility.yul\":13383:13403   */\n      tag_341\n        /* \"#utility.yul\":13401:13402   */\n      dup4\n        /* \"#utility.yul\":13383:13403   */\n      tag_161\n      jump\t// in\n    tag_341:\n        /* \"#utility.yul\":13378:13403   */\n      swap3\n      pop\n        /* \"#utility.yul\":13422:13423   */\n      dup3\n        /* \"#utility.yul\":13412:13447   */\n      tag_342\n      jumpi\n        /* \"#utility.yul\":13427:13445   */\n      tag_343\n      tag_201\n      jump\t// in\n    tag_343:\n        /* \"#utility.yul\":13412:13447   */\n    tag_342:\n        /* \"#utility.yul\":13469:13470   */\n      dup3\n        /* \"#utility.yul\":13466:13467   */\n      dup3\n        /* \"#utility.yul\":13462:13471   */\n      div\n        /* \"#utility.yul\":13457:13471   */\n      swap1\n      pop\n        /* \"#utility.yul\":13292:13477   */\n      swap3\n      swap2\n      pop\n      pop\n      jump\t// out\n        /* \"#utility.yul\":13483:13663   */\n    tag_91:\n        /* \"#utility.yul\":13531:13608   */\n      0x4e487b7100000000000000000000000000000000000000000000000000000000\n        /* \"#utility.yul\":13528:13529   */\n      0x00\n        /* \"#utility.yul\":13521:13609   */\n      mstore\n        /* \"#utility.yul\":13628:13632   */\n      0x32\n        /* \"#utility.yul\":13625:13626   */\n      0x04\n        /* \"#utility.yul\":13618:13633   */\n      mstore\n        /* \"#utility.yul\":13652:13656   */\n      0x24\n        /* \"#utility.yul\":13649:13650   */\n      0x00\n        /* \"#utility.yul\":13642:13657   */\n      revert\n        /* \"#utility.yul\":13669:13902   */\n    tag_105:\n        /* \"#utility.yul\":13708:13711   */\n      0x00\n        /* \"#utility.yul\":13731:13755   */\n      tag_346\n        /* \"#utility.yul\":13749:13754   */\n      dup3\n        /* \"#utility.yul\":13731:13755   */\n      tag_161\n      jump\t// in\n    tag_346:\n        /* \"#utility.yul\":13722:13755   */\n      swap2\n      pop\n        /* \"#utility.yul\":13777:13843   */\n      0xffffffffffffffffffffffffffffffffffffffffffffffffffffffffffffffff\n        /* \"#utility.yul\":13770:13775   */\n      dup3\n        /* \"#utility.yul\":13767:13844   */\n      sub\n        /* \"#utility.yul\":13764:13867   */\n      tag_347\n      jumpi\n        /* \"#utility.yul\":13847:13865   */\n      tag_348\n      tag_166\n      jump\t// in\n    tag_348:\n        /* \"#utility.yul\":13764:13867   */\n    tag_347:\n        /* \"#utility.yul\":13894:13895   */\n      0x01\n        /* \"#utility.yul\":13887:13892   */\n      dup3\n        /* \"#utility.yul\":13883:13896   */\n      add\n        /* \"#utility.yul\":13876:13896   */\n      swap1\n      pop\n        /* \"#utility.yul\":13669:13902   */\n      swap2\n      swap1\n      pop\n      jump\t// out\n        /* \"#utility.yul\":13908:14128   */\n    tag_202:\n        /* \"#utility.yul\":14048:14082   */\n      0x4f6e6c79206f776e65722063616e2063616c6c20746869732066756e6374696f\n        /* \"#utility.yul\":14044:14045   */\n      0x00\n        /* \"#utility.yul\":14036:14042   */\n      dup3\n        /* \"#utility.yul\":14032:14046   */\n      add\n        /* \"#utility.yul\":14025:14083   */\n      mstore\n        /* \"#utility.yul\":14117:14120   */\n      0x6e00000000000000000000000000000000000000000000000000000000000000\n        /* \"#utility.yul\":14112:14114   */\n      0x20\n        /* \"#utility.yul\":14104:14110   */\n      dup3\n        /* \"#utility.yul\":14100:14115   */\n      add\n        /* \"#utility.yul\":14093:14121   */\n      mstore\n        /* \"#utility.yul\":13908:14128   */\n      pop\n      jump\t// out\n        /* \"#utility.yul\":14134:14500   */\n    tag_203:\n        /* \"#utility.yul\":14276:14279   */\n      0x00\n        /* \"#utility.yul\":14297:14364   */\n      tag_351\n        /* \"#utility.yul\":14361:14363   */\n      0x21\n        /* \"#utility.yul\":14356:14359   */\n      dup4\n        /* \"#utility.yul\":14297:14364   */\n      tag_163\n      jump\t// in\n    tag_351:\n        /* \"#utility.yul\":14290:14364   */\n      swap2\n      pop\n        /* \"#utility.yul\":14373:14466   */\n      tag_352\n        /* \"#utility.yul\":14462:14465   */\n      dup3\n        /* \"#utility.yul\":14373:14466   */\n      tag_202\n      jump\t// in\n    tag_352:\n        /* \"#utility.yul\":14491:14493   */\n      0x40\n        /* \"#utility.yul\":14486:14489   */\n      dup3\n        /* \"#utility.yul\":14482:14494   */\n      add\n        /* \"#utility.yul\":14475:14494   */\n      swap1\n      pop\n        /* \"#utility.yul\":14134:14500   */\n      swap2\n      swap1\n      pop\n      jump\t// out\n        /* \"#utility.yul\":14506:14925   */\n    tag_119:\n        /* \"#utility.yul\":14672:14676   */\n      0x00\n        /* \"#utility.yul\":14710:14712   */\n      0x20\n        /* \"#utility.yul\":14699:14708   */\n      dup3\n        /* \"#utility.yul\":14695:14713   */\n      add\n        /* \"#utility.yul\":14687:14713   */\n      swap1\n      pop\n        /* \"#utility.yul\":14759:14768   */\n      dup2\n        /* \"#utility.yul\":14753:14757   */\n      dup2\n        /* \"#utility.yul\":14749:14769   */\n      sub\n        /* \"#utility.yul\":14745:14746   */\n      0x00\n        /* \"#utility.yul\":14734:14743   */\n      dup4\n        /* \"#utility.yul\":14730:14747   */\n      add\n        /* \"#utility.yul\":14723:14770   */\n      mstore\n        /* \"#utility.yul\":14787:14918   */\n      tag_354\n        /* \"#utility.yul\":14913:14917   */\n      dup2\n        /* \"#utility.yul\":14787:14918   */\n      tag_203\n      jump\t// in\n    tag_354:\n        /* \"#utility.yul\":14779:14918   */\n      swap1\n      pop\n        /* \"#utility.yul\":14506:14925   */\n      swap2\n      swap1\n      pop\n      jump\t// out\n        /* \"#utility.yul\":14931:15016   */\n    tag_204:\n        /* \"#utility.yul\":14976:14983   */\n      0x00\n        /* \"#utility.yul\":15005:15010   */\n      dup2\n        /* \"#utility.yul\":14994:15010   */\n      swap1\n      pop\n        /* \"#utility.yul\":14931:15016   */\n      swap2\n      swap1\n      pop\n      jump\t// out\n        /* \"#utility.yul\":15022:15111   */\n    tag_205:\n        /* \"#utility.yul\":15058:15065   */\n      0x00\n        /* \"#utility.yul\":15098:15104   */\n      0xffff\n        /* \"#utility.yul\":15091:15096   */\n      dup3\n        /* \"#utility.yul\":15087:15105   */\n      and\n        /* \"#utility.yul\":15076:15105   */\n      swap1\n      pop\n        /* \"#utility.yul\":15022:15111   */\n      swap2\n      swap1\n      pop\n      jump\t// out\n        /* \"#utility.yul\":15117:15177   */\n    tag_206:\n        /* \"#utility.yul\":15145:15148   */\n      0x00\n        /* \"#utility.yul\":15166:15171   */\n      dup2\n        /* \"#utility.yul\":15159:15171   */\n      swap1\n      pop\n        /* \"#utility.yul\":15117:15177   */\n      swap2\n      swap1\n      pop\n      jump\t// out\n        /* \"#utility.yul\":15183:15339   */\n    tag_207:\n        /* \"#utility.yul\":15240:15249   */\n      0x00\n        /* \"#utility.yul\":15273:15333   */\n      tag_359\n        /* \"#utility.yul\":15290:15332   */\n      tag_360\n        /* \"#utility.yul\":15299:15331   */\n      tag_361\n        /* \"#utility.yul\":15325:15330   */\n      dup5\n        /* \"#utility.yul\":15299:15331   */\n      tag_204\n      jump\t// in\n    tag_361:\n        /* \"#utility.yul\":15290:15332   */\n      tag_206\n      jump\t// in\n    tag_360:\n        /* \"#utility.yul\":15273:15333   */\n      tag_205\n      jump\t// in\n    tag_359:\n        /* \"#utility.yul\":15260:15333   */\n      swap1\n      pop\n        /* \"#utility.yul\":15183:15339   */\n      swap2\n      swap1\n      pop\n      jump\t// out\n        /* \"#utility.yul\":15345:15490   */\n    tag_208:\n        /* \"#utility.yul\":15439:15483   */\n      tag_363\n        /* \"#utility.yul\":15477:15482   */\n      dup2\n        /* \"#utility.yul\":15439:15483   */\n      tag_207\n      jump\t// in\n    tag_363:\n        /* \"#utility.yul\":15434:15437   */\n      dup3\n        /* \"#utility.yul\":15427:15484   */\n      mstore\n        /* \"#utility.yul\":15345:15490   */\n      pop\n      pop\n      jump\t// out\n        /* \"#utility.yul\":15496:16063   */\n    tag_136:\n        /* \"#utility.yul\":15680:15684   */\n      0x00\n        /* \"#utility.yul\":15718:15721   */\n      0x80\n        /* \"#utility.yul\":15707:15716   */\n      dup3\n        /* \"#utility.yul\":15703:15722   */\n      add\n        /* \"#utility.yul\":15695:15722   */\n      swap1\n      pop\n        /* \"#utility.yul\":15732:15803   */\n      tag_365\n        /* \"#utility.yul\":15800:15801   */\n      0x00\n        /* \"#utility.yul\":15789:15798   */\n      dup4\n        /* \"#utility.yul\":15785:15802   */\n      add\n        /* \"#utility.yul\":15776:15782   */\n      dup8\n        /* \"#utility.yul\":15732:15803   */\n      tag_169\n      jump\t// in\n    tag_365:\n        /* \"#utility.yul\":15813:15885   */\n      tag_366\n        /* \"#utility.yul\":15881:15883   */\n      0x20\n        /* \"#utility.yul\":15870:15879   */\n      dup4\n        /* \"#utility.yul\":15866:15884   */\n      add\n        /* \"#utility.yul\":15857:15863   */\n      dup7\n        /* \"#utility.yul\":15813:15885   */\n      tag_162\n      jump\t// in\n    tag_366:\n        /* \"#utility.yul\":15895:15967   */\n      tag_367\n        /* \"#utility.yul\":15963:15965   */\n      0x40\n        /* \"#utility.yul\":15952:15961   */\n      dup4\n        /* \"#utility.yul\":15948:15966   */\n      add\n        /* \"#utility.yul\":15939:15945   */\n      dup6\n        /* \"#utility.yul\":15895:15967   */\n      tag_169\n      jump\t// in\n    tag_367:\n        /* \"#utility.yul\":15977:16056   */\n      tag_368\n        /* \"#utility.yul\":16052:16054   */\n      0x60\n        /* \"#utility.yul\":16041:16050   */\n      dup4\n        /* \"#utility.yul\":16037:16055   */\n      add\n        /* \"#utility.yul\":16028:16034   */\n      dup5\n        /* \"#utility.yul\":15977:16056   */\n      tag_208\n      jump\t// in\n    tag_368:\n        /* \"#utility.yul\":15496:16063   */\n      swap6\n      swap5\n      pop\n      pop\n      pop\n      pop\n      pop\n      jump\t// out\n        /* \"#utility.yul\":16069:16511   */\n    tag_142:\n        /* \"#utility.yul\":16218:16222   */\n      0x00\n        /* \"#utility.yul\":16256:16258   */\n      0x60\n        /* \"#utility.yul\":16245:16254   */\n      dup3\n        /* \"#utility.yul\":16241:16259   */\n      add\n        /* \"#utility.yul\":16233:16259   */\n      swap1\n      pop\n        /* \"#utility.yul\":16269:16340   */\n      tag_370\n        /* \"#utility.yul\":16337:16338   */\n      0x00\n        /* \"#utility.yul\":16326:16335   */\n      dup4\n        /* \"#utility.yul\":16322:16339   */\n      add\n        /* \"#utility.yul\":16313:16319   */\n      dup7\n        /* \"#utility.yul\":16269:16340   */\n      tag_169\n      jump\t// in\n    tag_370:\n        /* \"#utility.yul\":16350:16422   */\n      tag_371\n        /* \"#utility.yul\":16418:16420   */\n      0x20\n        /* \"#utility.yul\":16407:16416   */\n      dup4\n        /* \"#utility.yul\":16403:16421   */\n      add\n        /* \"#utility.yul\":16394:16400   */\n      dup6\n        /* \"#utility.yul\":16350:16422   */\n      tag_162\n      jump\t// in\n    tag_371:\n        /* \"#utility.yul\":16432:16504   */\n      tag_372\n        /* \"#utility.yul\":16500:16502   */\n      0x40\n        /* \"#utility.yul\":16489:16498   */\n      dup4\n        /* \"#utility.yul\":16485:16503   */\n      add\n        /* \"#utility.yul\":16476:16482   */\n      dup5\n        /* \"#utility.yul\":16432:16504   */\n      tag_169\n      jump\t// in\n    tag_372:\n        /* \"#utility.yul\":16069:16511   */\n      swap5\n      swap4\n      pop\n      pop\n      pop\n      pop\n      jump\t// out\n        /* \"#utility.yul\":16517:16849   */\n    tag_147:\n        /* \"#utility.yul\":16638:16642   */\n      0x00\n        /* \"#utility.yul\":16676:16678   */\n      0x40\n        /* \"#utility.yul\":16665:16674   */\n      dup3\n        /* \"#utility.yul\":16661:16679   */\n      add\n        /* \"#utility.yul\":16653:16679   */\n      swap1\n      pop\n        /* \"#utility.yul\":16689:16760   */\n      tag_374\n        /* \"#utility.yul\":16757:16758   */\n      0x00\n        /* \"#utility.yul\":16746:16755   */\n      dup4\n        /* \"#utility.yul\":16742:16759   */\n      add\n        /* \"#utility.yul\":16733:16739   */\n      dup6\n        /* \"#utility.yul\":16689:16760   */\n      tag_169\n      jump\t// in\n    tag_374:\n        /* \"#utility.yul\":16770:16842   */\n      tag_375\n        /* \"#utility.yul\":16838:16840   */\n      0x20\n        /* \"#utility.yul\":16827:16836   */\n      dup4\n        /* \"#utility.yul\":16823:16841   */\n      add\n        /* \"#utility.yul\":16814:16820   */\n      dup5\n        /* \"#utility.yul\":16770:16842   */\n      tag_162\n      jump\t// in\n    tag_375:\n        /* \"#utility.yul\":16517:16849   */\n      swap4\n      swap3\n      pop\n      pop\n      pop\n      jump\t// out\n        /* \"#utility.yul\":16855:16945   */\n    tag_209:\n        /* \"#utility.yul\":16889:16896   */\n      0x00\n        /* \"#utility.yul\":16932:16937   */\n      dup2\n        /* \"#utility.yul\":16925:16938   */\n      iszero\n        /* \"#utility.yul\":16918:16939   */\n      iszero\n        /* \"#utility.yul\":16907:16939   */\n      swap1\n      pop\n        /* \"#utility.yul\":16855:16945   */\n      swap2\n      swap1\n      pop\n      jump\t// out\n        /* \"#utility.yul\":16951:17067   */\n    tag_210:\n        /* \"#utility.yul\":17021:17042   */\n      tag_378\n        /* \"#utility.yul\":17036:17041   */\n      dup2\n        /* \"#utility.yul\":17021:17042   */\n      tag_209\n      jump\t// in\n    tag_378:\n        /* \"#utility.yul\":17014:17019   */\n      dup2\n        /* \"#utility.yul\":17011:17043   */\n      eq\n        /* \"#utility.yul\":17001:17061   */\n      tag_379\n      jumpi\n        /* \"#utility.yul\":17057:17058   */\n      0x00\n        /* \"#utility.yul\":17054:17055   */\n      dup1\n        /* \"#utility.yul\":17047:17059   */\n      revert\n        /* \"#utility.yul\":17001:17061   */\n    tag_379:\n        /* \"#utility.yul\":16951:17067   */\n      pop\n      jump\t// out\n        /* \"#utility.yul\":17073:17210   */\n    tag_211:\n        /* \"#utility.yul\":17127:17132   */\n      0x00\n        /* \"#utility.yul\":17158:17164   */\n      dup2\n        /* \"#utility.yul\":17152:17165   */\n      mload\n        /* \"#utility.yul\":17143:17165   */\n      swap1\n      pop\n        /* \"#utility.yul\":17174:17204   */\n      tag_381\n        /* \"#utility.yul\":17198:17203   */\n      dup2\n        /* \"#utility.yul\":17174:17204   */\n      tag_210\n      jump\t// in\n    tag_381:\n        /* \"#utility.yul\":17073:17210   */\n      swap3\n      swap2\n      pop\n      pop\n      jump\t// out\n        /* \"#utility.yul\":17216:17561   */\n    tag_151:\n        /* \"#utility.yul\":17283:17289   */\n      0x00\n        /* \"#utility.yul\":17332:17334   */\n      0x20\n        /* \"#utility.yul\":17320:17329   */\n      dup3\n        /* \"#utility.yul\":17311:17318   */\n      dup5\n        /* \"#utility.yul\":17307:17330   */\n      sub\n        /* \"#utility.yul\":17303:17335   */\n      slt\n        /* \"#utility.yul\":17300:17419   */\n      iszero\n      tag_383\n      jumpi\n        /* \"#utility.yul\":17338:17417   */\n      tag_384\n      tag_171\n      jump\t// in\n    tag_384:\n        /* \"#utility.yul\":17300:17419   */\n    tag_383:\n        /* \"#utility.yul\":17458:17459   */\n      0x00\n        /* \"#utility.yul\":17483:17544   */\n      tag_385\n        /* \"#utility.yul\":17536:17543   */\n      dup5\n        /* \"#utility.yul\":17527:17533   */\n      dup3\n        /* \"#utility.yul\":17516:17525   */\n      dup6\n        /* \"#utility.yul\":17512:17534   */\n      add\n        /* \"#utility.yul\":17483:17544   */\n      tag_211\n      jump\t// in\n    tag_385:\n        /* \"#utility.yul\":17473:17544   */\n      swap2\n      pop\n        /* \"#utility.yul\":17429:17554   */\n      pop\n        /* \"#utility.yul\":17216:17561   */\n      swap3\n      swap2\n      pop\n      pop\n      jump\t// out\n\n    auxdata: 0xa264697066735822122079dd0c3a03bdec3f0b558a5f28007ce7f2632448d8d47535fe64ec3eea379ec064736f6c634300080f0033\n}\n",
				"bytecode": {
					"linkReferences": {},
					"object": "60c06040523480156200001157600080fd5b5060405162001e4738038062001e47833981810160405281019062000037919062000308565b33600260006101000a81548173ffffffffffffffffffffffffffffffffffffffff021916908373ffffffffffffffffffffffffffffffffffffffff160217905550806080818152505073d0a1e359811322d97991e03f863a0c30c2cf029c73ffffffffffffffffffffffffffffffffffffffff1660a08173ffffffffffffffffffffffffffffffffffffffff16815250507388757f2f99175387ab4c6a4b3067c77a695b0349600360006101000a81548173ffffffffffffffffffffffffffffffffffffffff021916908373ffffffffffffffffffffffffffffffffffffffff160217905550600360009054906101000a900473ffffffffffffffffffffffffffffffffffffffff1673ffffffffffffffffffffffffffffffffffffffff16630261bf8b6040518163ffffffff1660e01b8152600401602060405180830381865afa1580156200018b573d6000803e3d6000fd5b505050506040513d601f19601f82011682018060405250810190620001b191906200039f565b600460006101000a81548173ffffffffffffffffffffffffffffffffffffffff021916908373ffffffffffffffffffffffffffffffffffffffff160217905550600060058190555060a05173ffffffffffffffffffffffffffffffffffffffff1663095ea7b3600460009054906101000a900473ffffffffffffffffffffffffffffffffffffffff167fffffffffffffffffffffffffffffffffffffffffffffffffffffffffffffffff6040518363ffffffff1660e01b81526004016200027a929190620003f3565b6020604051808303816000875af11580156200029a573d6000803e3d6000fd5b505050506040513d601f19601f82011682018060405250810190620002c091906200045d565b50506200048f565b600080fd5b6000819050919050565b620002e281620002cd565b8114620002ee57600080fd5b50565b6000815190506200030281620002d7565b92915050565b600060208284031215620003215762000320620002c8565b5b60006200033184828501620002f1565b91505092915050565b600073ffffffffffffffffffffffffffffffffffffffff82169050919050565b600062000367826200033a565b9050919050565b62000379816200035a565b81146200038557600080fd5b50565b60008151905062000399816200036e565b92915050565b600060208284031215620003b857620003b7620002c8565b5b6000620003c88482850162000388565b91505092915050565b620003dc816200035a565b82525050565b620003ed81620002cd565b82525050565b60006040820190506200040a6000830185620003d1565b620004196020830184620003e2565b9392505050565b60008115159050919050565b620004378162000420565b81146200044357600080fd5b50565b60008151905062000457816200042c565b92915050565b600060208284031215620004765762000475620002c8565b5b6000620004868482850162000446565b91505092915050565b60805160a051611968620004df600039600081816103b001528181610cc901528181610d8001528181610e0701528181610ead0152610f3d01526000818161058901526106d701526119686000f3fe6080604052600436106100595760003560e01c80630e29df22146100625780631d01364c1461006c57806322e8c87d14610097578063c3d40853146100c2578063db88031a146100ed578063e2ec0c2d146100f757610060565b3661006057005b005b61006a610101565b005b34801561007857600080fd5b5061008161031e565b60405161008e9190610fd8565b60405180910390f35b3480156100a357600080fd5b506100ac610324565b6040516100b99190610fd8565b60405180910390f35b3480156100ce57600080fd5b506100d761036d565b6040516100e49190610fd8565b60405180910390f35b6100f56104b3565b005b6100ff610b04565b005b60003411610144576040517f08c379a000000000000000000000000000000000000000000000000000000000815260040161013b90611050565b60405180910390fd5b346000803373ffffffffffffffffffffffffffffffffffffffff1673ffffffffffffffffffffffffffffffffffffffff1681526020019081526020016000206000016000828254610195919061109f565b92505081905550426000803373ffffffffffffffffffffffffffffffffffffffff1673ffffffffffffffffffffffffffffffffffffffff16815260200190815260200160002060010181905550600015156000803373ffffffffffffffffffffffffffffffffffffffff1673ffffffffffffffffffffffffffffffffffffffff16815260200190815260200160002060020160009054906101000a900460ff161515036102fa5760016000803373ffffffffffffffffffffffffffffffffffffffff1673ffffffffffffffffffffffffffffffffffffffff16815260200190815260200160002060020160006101000a81548160ff0219169083151502179055506001339080600181540180825580915050600190039060005260206000200160009091909190916101000a81548173ffffffffffffffffffffffffffffffffffffffff021916908373ffffffffffffffffffffffffffffffffffffffff1602179055505b61030334610c73565b3460056000828254610315919061109f565b92505081905550565b60055481565b60008060003373ffffffffffffffffffffffffffffffffffffffff1673ffffffffffffffffffffffffffffffffffffffff16815260200190815260200160002060000154905090565b600080600460009054906101000a900473ffffffffffffffffffffffffffffffffffffffff1673ffffffffffffffffffffffffffffffffffffffff166335ea6a757f00000000000000000000000000000000000000000000000000000000000000006040518263ffffffff1660e01b81526004016103eb9190611136565b61018060405180830381865afa158015610409573d6000803e3d6000fd5b505050506040513d601f19601f8201168201806040525081019061042d9190611465565b60e0015190508073ffffffffffffffffffffffffffffffffffffffff166370a08231306040518263ffffffff1660e01b815260040161046c9190611136565b602060405180830381865afa158015610489573d6000803e3d6000fd5b505050506040513d601f19601f820116820180604052508101906104ad9190611493565b91505090565b60008060003373ffffffffffffffffffffffffffffffffffffffff1673ffffffffffffffffffffffffffffffffffffffff1681526020019081526020016000206000015490506000811161053c576040517f08c379a00000000000000000000000000000000000000000000000000000000081526004016105339061150c565b60405180910390fd5b60008060003373ffffffffffffffffffffffffffffffffffffffff1673ffffffffffffffffffffffffffffffffffffffff16815260200190815260200160002060010154905060004290507f0000000000000000000000000000000000000000000000000000000000000000826105b3919061109f565b8111156106d35760008060003373ffffffffffffffffffffffffffffffffffffffff1673ffffffffffffffffffffffffffffffffffffffff168152602001908152602001600020600001819055508260055461060f919061152c565b60058190555061061e83610d40565b60003373ffffffffffffffffffffffffffffffffffffffff168460405161064490611591565b60006040518083038185875af1925050503d8060008114610681576040519150601f19603f3d011682016040523d82523d6000602084013e610686565b606091505b50509050806106ca576040517f08c379a00000000000000000000000000000000000000000000000000000000081526004016106c1906115f2565b60405180910390fd5b50505050610b02565b60007f000000000000000000000000000000000000000000000000000000000000000060648484610704919061152c565b61070e9190611612565b610718919061169b565b905060006064600283606461072d919061152c565b610737919061169b565b866107429190611612565b61074c919061169b565b90506000819050600086600554610763919061152c565b9050600060018054806020026020016040519081016040528092919081815260200182805480156107e957602002820191906000526020600020905b8160009054906101000a900473ffffffffffffffffffffffffffffffffffffffff1673ffffffffffffffffffffffffffffffffffffffff168152602001906001019080831161079f575b5050505050905060008060005b8351811015610985576000806000868481518110610817576108166116cc565b5b602002602001015173ffffffffffffffffffffffffffffffffffffffff1673ffffffffffffffffffffffffffffffffffffffff1681526020019081526020016000206000015490503373ffffffffffffffffffffffffffffffffffffffff16858381518110610889576108886116cc565b5b602002602001015173ffffffffffffffffffffffffffffffffffffffff16141580156108b55750600081115b156109715785612710826108c99190611612565b6108d3919061169b565b935061271084896108e49190611612565b6108ee919061169b565b925082876108fc919061152c565b965082600080878581518110610915576109146116cc565b5b602002602001015173ffffffffffffffffffffffffffffffffffffffff1673ffffffffffffffffffffffffffffffffffffffff1681526020019081526020016000206000016000828254610969919061109f565b925050819055505b50808061097d906116fb565b9150506107f6565b5084868b610993919061152c565b61099d919061109f565b9950896005546109ad919061152c565b60058190555060008060003373ffffffffffffffffffffffffffffffffffffffff1673ffffffffffffffffffffffffffffffffffffffff16815260200190815260200160002060000181905550610a038a610d40565b60003373ffffffffffffffffffffffffffffffffffffffff168b604051610a2990611591565b60006040518083038185875af1925050503d8060008114610a66576040519150601f19603f3d011682016040523d82523d6000602084013e610a6b565b606091505b5050905080610aaf576040517f08c379a0000000000000000000000000000000000000000000000000000000008152600401610aa6906115f2565b60405180910390fd5b60008060003373ffffffffffffffffffffffffffffffffffffffff1673ffffffffffffffffffffffffffffffffffffffff1681526020019081526020016000206000018190555050505050505050505050505b565b600260009054906101000a900473ffffffffffffffffffffffffffffffffffffffff1673ffffffffffffffffffffffffffffffffffffffff163373ffffffffffffffffffffffffffffffffffffffff1614610b94576040517f08c379a0000000000000000000000000000000000000000000000000000000008152600401610b8b906117b5565b60405180910390fd5b6000600554610ba161036d565b610bab919061152c565b905060008111610bba57600080fd5b610bc381610d40565b60003373ffffffffffffffffffffffffffffffffffffffff1682604051610be990611591565b60006040518083038185875af1925050503d8060008114610c26576040519150601f19603f3d011682016040523d82523d6000602084013e610c2b565b606091505b5050905080610c6f576040517f08c379a0000000000000000000000000000000000000000000000000000000008152600401610c66906115f2565b60405180910390fd5b5050565b60008111610c8057600080fd5b610c8981610f3b565b600460009054906101000a900473ffffffffffffffffffffffffffffffffffffffff1673ffffffffffffffffffffffffffffffffffffffff1663e8eda9df7f0000000000000000000000000000000000000000000000000000000000000000833060006040518563ffffffff1660e01b8152600401610d0b9493929190611828565b600060405180830381600087803b158015610d2557600080fd5b505af1158015610d39573d6000803e3d6000fd5b5050505050565b600460009054906101000a900473ffffffffffffffffffffffffffffffffffffffff1673ffffffffffffffffffffffffffffffffffffffff166369328dec7f000000000000000000000000000000000000000000000000000000000000000083306040518463ffffffff1660e01b8152600401610dbf9392919061186d565b6020604051808303816000875af1158015610dde573d6000803e3d6000fd5b505050506040513d601f19601f82011682018060405250810190610e029190611493565b5060007f000000000000000000000000000000000000000000000000000000000000000073ffffffffffffffffffffffffffffffffffffffff1663095ea7b330846040518363ffffffff1660e01b8152600401610e609291906118a4565b6020604051808303816000875af1158015610e7f573d6000803e3d6000fd5b505050506040513d601f19601f82011682018060405250810190610ea39190611905565b90508015610f37577f000000000000000000000000000000000000000000000000000000000000000073ffffffffffffffffffffffffffffffffffffffff16632e1a7d4d836040518263ffffffff1660e01b8152600401610f049190610fd8565b600060405180830381600087803b158015610f1e57600080fd5b505af1158015610f32573d6000803e3d6000fd5b505050505b5050565b7f000000000000000000000000000000000000000000000000000000000000000073ffffffffffffffffffffffffffffffffffffffff1663d0e30db0826040518263ffffffff1660e01b81526004016000604051808303818588803b158015610fa357600080fd5b505af1158015610fb7573d6000803e3d6000fd5b505050505050565b6000819050919050565b610fd281610fbf565b82525050565b6000602082019050610fed6000830184610fc9565b92915050565b600082825260208201905092915050565b7f596f75206d7573742073656e6420736f6d6520746f6b656e732e2e2e00000000600082015250565b600061103a601c83610ff3565b915061104582611004565b602082019050919050565b600060208201905081810360008301526110698161102d565b9050919050565b7f4e487b7100000000000000000000000000000000000000000000000000000000600052601160045260246000fd5b60006110aa82610fbf565b91506110b583610fbf565b9250827fffffffffffffffffffffffffffffffffffffffffffffffffffffffffffffffff038211156110ea576110e9611070565b5b828201905092915050565b600073ffffffffffffffffffffffffffffffffffffffff82169050919050565b6000611120826110f5565b9050919050565b61113081611115565b82525050565b600060208201905061114b6000830184611127565b92915050565b6000604051905090565b600080fd5b600080fd5b6000601f19601f8301169050919050565b7f4e487b7100000000000000000000000000000000000000000000000000000000600052604160045260246000fd5b6111ae82611165565b810181811067ffffffffffffffff821117156111cd576111cc611176565b5b80604052505050565b60006111e0611151565b90506111ec82826111a5565b919050565b6111fa81610fbf565b811461120557600080fd5b50565b600081519050611217816111f1565b92915050565b60006020828403121561123357611232611160565b5b61123d60206111d6565b9050600061124d84828501611208565b60008301525092915050565b60006fffffffffffffffffffffffffffffffff82169050919050565b61127e81611259565b811461128957600080fd5b50565b60008151905061129b81611275565b92915050565b600064ffffffffff82169050919050565b6112bb816112a1565b81146112c657600080fd5b50565b6000815190506112d8816112b2565b92915050565b6112e781611115565b81146112f257600080fd5b50565b600081519050611304816112de565b92915050565b600060ff82169050919050565b6113208161130a565b811461132b57600080fd5b50565b60008151905061133d81611317565b92915050565b6000610180828403121561135a57611359611160565b5b6113656101806111d6565b905060006113758482850161121d565b60008301525060206113898482850161128c565b602083015250604061139d8482850161128c565b60408301525060606113b18482850161128c565b60608301525060806113c58482850161128c565b60808301525060a06113d98482850161128c565b60a08301525060c06113ed848285016112c9565b60c08301525060e0611401848285016112f5565b60e083015250610100611416848285016112f5565b6101008301525061012061142c848285016112f5565b61012083015250610140611442848285016112f5565b610140830152506101606114588482850161132e565b6101608301525092915050565b6000610180828403121561147c5761147b61115b565b5b600061148a84828501611343565b91505092915050565b6000602082840312156114a9576114a861115b565b5b60006114b784828501611208565b91505092915050565b7f5573657220646f6e27742068617665206465706f736974656420455448000000600082015250565b60006114f6601d83610ff3565b9150611501826114c0565b602082019050919050565b60006020820190508181036000830152611525816114e9565b9050919050565b600061153782610fbf565b915061154283610fbf565b92508282101561155557611554611070565b5b828203905092915050565b600081905092915050565b50565b600061157b600083611560565b91506115868261156b565b600082019050919050565b600061159c8261156e565b9150819050919050565b7f5472616e73666572206661696c65642e00000000000000000000000000000000600082015250565b60006115dc601083610ff3565b91506115e7826115a6565b602082019050919050565b6000602082019050818103600083015261160b816115cf565b9050919050565b600061161d82610fbf565b915061162883610fbf565b9250817fffffffffffffffffffffffffffffffffffffffffffffffffffffffffffffffff048311821515161561166157611660611070565b5b828202905092915050565b7f4e487b7100000000000000000000000000000000000000000000000000000000600052601260045260246000fd5b60006116a682610fbf565b91506116b183610fbf565b9250826116c1576116c061166c565b5b828204905092915050565b7f4e487b7100000000000000000000000000000000000000000000000000000000600052603260045260246000fd5b600061170682610fbf565b91507fffffffffffffffffffffffffffffffffffffffffffffffffffffffffffffffff820361173857611737611070565b5b600182019050919050565b7f4f6e6c79206f776e65722063616e2063616c6c20746869732066756e6374696f60008201527f6e00000000000000000000000000000000000000000000000000000000000000602082015250565b600061179f602183610ff3565b91506117aa82611743565b604082019050919050565b600060208201905081810360008301526117ce81611792565b9050919050565b6000819050919050565b600061ffff82169050919050565b6000819050919050565b600061181261180d611808846117d5565b6117ed565b6117df565b9050919050565b611822816117f7565b82525050565b600060808201905061183d6000830187611127565b61184a6020830186610fc9565b6118576040830185611127565b6118646060830184611819565b95945050505050565b60006060820190506118826000830186611127565b61188f6020830185610fc9565b61189c6040830184611127565b949350505050565b60006040820190506118b96000830185611127565b6118c66020830184610fc9565b9392505050565b60008115159050919050565b6118e2816118cd565b81146118ed57600080fd5b50565b6000815190506118ff816118d9565b92915050565b60006020828403121561191b5761191a61115b565b5b6000611929848285016118f0565b9150509291505056fea264697066735822122079dd0c3a03bdec3f0b558a5f28007ce7f2632448d8d47535fe64ec3eea379ec064736f6c634300080f0033",
					"opcodes": "PUSH1 0xC0 PUSH1 0x40 MSTORE CALLVALUE DUP1 ISZERO PUSH3 0x11 JUMPI PUSH1 0x0 DUP1 REVERT JUMPDEST POP PUSH1 0x40 MLOAD PUSH3 0x1E47 CODESIZE SUB DUP1 PUSH3 0x1E47 DUP4 CODECOPY DUP2 DUP2 ADD PUSH1 0x40 MSTORE DUP2 ADD SWAP1 PUSH3 0x37 SWAP2 SWAP1 PUSH3 0x308 JUMP JUMPDEST CALLER PUSH1 0x2 PUSH1 0x0 PUSH2 0x100 EXP DUP2 SLOAD DUP2 PUSH20 0xFFFFFFFFFFFFFFFFFFFFFFFFFFFFFFFFFFFFFFFF MUL NOT AND SWAP1 DUP4 PUSH20 0xFFFFFFFFFFFFFFFFFFFFFFFFFFFFFFFFFFFFFFFF AND MUL OR SWAP1 SSTORE POP DUP1 PUSH1 0x80 DUP2 DUP2 MSTORE POP POP PUSH20 0xD0A1E359811322D97991E03F863A0C30C2CF029C PUSH20 0xFFFFFFFFFFFFFFFFFFFFFFFFFFFFFFFFFFFFFFFF AND PUSH1 0xA0 DUP2 PUSH20 0xFFFFFFFFFFFFFFFFFFFFFFFFFFFFFFFFFFFFFFFF AND DUP2 MSTORE POP POP PUSH20 0x88757F2F99175387AB4C6A4B3067C77A695B0349 PUSH1 0x3 PUSH1 0x0 PUSH2 0x100 EXP DUP2 SLOAD DUP2 PUSH20 0xFFFFFFFFFFFFFFFFFFFFFFFFFFFFFFFFFFFFFFFF MUL NOT AND SWAP1 DUP4 PUSH20 0xFFFFFFFFFFFFFFFFFFFFFFFFFFFFFFFFFFFFFFFF AND MUL OR SWAP1 SSTORE POP PUSH1 0x3 PUSH1 0x0 SWAP1 SLOAD SWAP1 PUSH2 0x100 EXP SWAP1 DIV PUSH20 0xFFFFFFFFFFFFFFFFFFFFFFFFFFFFFFFFFFFFFFFF AND PUSH20 0xFFFFFFFFFFFFFFFFFFFFFFFFFFFFFFFFFFFFFFFF AND PUSH4 0x261BF8B PUSH1 0x40 MLOAD DUP2 PUSH4 0xFFFFFFFF AND PUSH1 0xE0 SHL DUP2 MSTORE PUSH1 0x4 ADD PUSH1 0x20 PUSH1 0x40 MLOAD DUP1 DUP4 SUB DUP2 DUP7 GAS STATICCALL ISZERO DUP1 ISZERO PUSH3 0x18B JUMPI RETURNDATASIZE PUSH1 0x0 DUP1 RETURNDATACOPY RETURNDATASIZE PUSH1 0x0 REVERT JUMPDEST POP POP POP POP PUSH1 0x40 MLOAD RETURNDATASIZE PUSH1 0x1F NOT PUSH1 0x1F DUP3 ADD AND DUP3 ADD DUP1 PUSH1 0x40 MSTORE POP DUP2 ADD SWAP1 PUSH3 0x1B1 SWAP2 SWAP1 PUSH3 0x39F JUMP JUMPDEST PUSH1 0x4 PUSH1 0x0 PUSH2 0x100 EXP DUP2 SLOAD DUP2 PUSH20 0xFFFFFFFFFFFFFFFFFFFFFFFFFFFFFFFFFFFFFFFF MUL NOT AND SWAP1 DUP4 PUSH20 0xFFFFFFFFFFFFFFFFFFFFFFFFFFFFFFFFFFFFFFFF AND MUL OR SWAP1 SSTORE POP PUSH1 0x0 PUSH1 0x5 DUP2 SWAP1 SSTORE POP PUSH1 0xA0 MLOAD PUSH20 0xFFFFFFFFFFFFFFFFFFFFFFFFFFFFFFFFFFFFFFFF AND PUSH4 0x95EA7B3 PUSH1 0x4 PUSH1 0x0 SWAP1 SLOAD SWAP1 PUSH2 0x100 EXP SWAP1 DIV PUSH20 0xFFFFFFFFFFFFFFFFFFFFFFFFFFFFFFFFFFFFFFFF AND PUSH32 0xFFFFFFFFFFFFFFFFFFFFFFFFFFFFFFFFFFFFFFFFFFFFFFFFFFFFFFFFFFFFFFFF PUSH1 0x40 MLOAD DUP4 PUSH4 0xFFFFFFFF AND PUSH1 0xE0 SHL DUP2 MSTORE PUSH1 0x4 ADD PUSH3 0x27A SWAP3 SWAP2 SWAP1 PUSH3 0x3F3 JUMP JUMPDEST PUSH1 0x20 PUSH1 0x40 MLOAD DUP1 DUP4 SUB DUP2 PUSH1 0x0 DUP8 GAS CALL ISZERO DUP1 ISZERO PUSH3 0x29A JUMPI RETURNDATASIZE PUSH1 0x0 DUP1 RETURNDATACOPY RETURNDATASIZE PUSH1 0x0 REVERT JUMPDEST POP POP POP POP PUSH1 0x40 MLOAD RETURNDATASIZE PUSH1 0x1F NOT PUSH1 0x1F DUP3 ADD AND DUP3 ADD DUP1 PUSH1 0x40 MSTORE POP DUP2 ADD SWAP1 PUSH3 0x2C0 SWAP2 SWAP1 PUSH3 0x45D JUMP JUMPDEST POP POP PUSH3 0x48F JUMP JUMPDEST PUSH1 0x0 DUP1 REVERT JUMPDEST PUSH1 0x0 DUP2 SWAP1 POP SWAP2 SWAP1 POP JUMP JUMPDEST PUSH3 0x2E2 DUP2 PUSH3 0x2CD JUMP JUMPDEST DUP2 EQ PUSH3 0x2EE JUMPI PUSH1 0x0 DUP1 REVERT JUMPDEST POP JUMP JUMPDEST PUSH1 0x0 DUP2 MLOAD SWAP1 POP PUSH3 0x302 DUP2 PUSH3 0x2D7 JUMP JUMPDEST SWAP3 SWAP2 POP POP JUMP JUMPDEST PUSH1 0x0 PUSH1 0x20 DUP3 DUP5 SUB SLT ISZERO PUSH3 0x321 JUMPI PUSH3 0x320 PUSH3 0x2C8 JUMP JUMPDEST JUMPDEST PUSH1 0x0 PUSH3 0x331 DUP5 DUP3 DUP6 ADD PUSH3 0x2F1 JUMP JUMPDEST SWAP2 POP POP SWAP3 SWAP2 POP POP JUMP JUMPDEST PUSH1 0x0 PUSH20 0xFFFFFFFFFFFFFFFFFFFFFFFFFFFFFFFFFFFFFFFF DUP3 AND SWAP1 POP SWAP2 SWAP1 POP JUMP JUMPDEST PUSH1 0x0 PUSH3 0x367 DUP3 PUSH3 0x33A JUMP JUMPDEST SWAP1 POP SWAP2 SWAP1 POP JUMP JUMPDEST PUSH3 0x379 DUP2 PUSH3 0x35A JUMP JUMPDEST DUP2 EQ PUSH3 0x385 JUMPI PUSH1 0x0 DUP1 REVERT JUMPDEST POP JUMP JUMPDEST PUSH1 0x0 DUP2 MLOAD SWAP1 POP PUSH3 0x399 DUP2 PUSH3 0x36E JUMP JUMPDEST SWAP3 SWAP2 POP POP JUMP JUMPDEST PUSH1 0x0 PUSH1 0x20 DUP3 DUP5 SUB SLT ISZERO PUSH3 0x3B8 JUMPI PUSH3 0x3B7 PUSH3 0x2C8 JUMP JUMPDEST JUMPDEST PUSH1 0x0 PUSH3 0x3C8 DUP5 DUP3 DUP6 ADD PUSH3 0x388 JUMP JUMPDEST SWAP2 POP POP SWAP3 SWAP2 POP POP JUMP JUMPDEST PUSH3 0x3DC DUP2 PUSH3 0x35A JUMP JUMPDEST DUP3 MSTORE POP POP JUMP JUMPDEST PUSH3 0x3ED DUP2 PUSH3 0x2CD JUMP JUMPDEST DUP3 MSTORE POP POP JUMP JUMPDEST PUSH1 0x0 PUSH1 0x40 DUP3 ADD SWAP1 POP PUSH3 0x40A PUSH1 0x0 DUP4 ADD DUP6 PUSH3 0x3D1 JUMP JUMPDEST PUSH3 0x419 PUSH1 0x20 DUP4 ADD DUP5 PUSH3 0x3E2 JUMP JUMPDEST SWAP4 SWAP3 POP POP POP JUMP JUMPDEST PUSH1 0x0 DUP2 ISZERO ISZERO SWAP1 POP SWAP2 SWAP1 POP JUMP JUMPDEST PUSH3 0x437 DUP2 PUSH3 0x420 JUMP JUMPDEST DUP2 EQ PUSH3 0x443 JUMPI PUSH1 0x0 DUP1 REVERT JUMPDEST POP JUMP JUMPDEST PUSH1 0x0 DUP2 MLOAD SWAP1 POP PUSH3 0x457 DUP2 PUSH3 0x42C JUMP JUMPDEST SWAP3 SWAP2 POP POP JUMP JUMPDEST PUSH1 0x0 PUSH1 0x20 DUP3 DUP5 SUB SLT ISZERO PUSH3 0x476 JUMPI PUSH3 0x475 PUSH3 0x2C8 JUMP JUMPDEST JUMPDEST PUSH1 0x0 PUSH3 0x486 DUP5 DUP3 DUP6 ADD PUSH3 0x446 JUMP JUMPDEST SWAP2 POP POP SWAP3 SWAP2 POP POP JUMP JUMPDEST PUSH1 0x80 MLOAD PUSH1 0xA0 MLOAD PUSH2 0x1968 PUSH3 0x4DF PUSH1 0x0 CODECOPY PUSH1 0x0 DUP2 DUP2 PUSH2 0x3B0 ADD MSTORE DUP2 DUP2 PUSH2 0xCC9 ADD MSTORE DUP2 DUP2 PUSH2 0xD80 ADD MSTORE DUP2 DUP2 PUSH2 0xE07 ADD MSTORE DUP2 DUP2 PUSH2 0xEAD ADD MSTORE PUSH2 0xF3D ADD MSTORE PUSH1 0x0 DUP2 DUP2 PUSH2 0x589 ADD MSTORE PUSH2 0x6D7 ADD MSTORE PUSH2 0x1968 PUSH1 0x0 RETURN INVALID PUSH1 0x80 PUSH1 0x40 MSTORE PUSH1 0x4 CALLDATASIZE LT PUSH2 0x59 JUMPI PUSH1 0x0 CALLDATALOAD PUSH1 0xE0 SHR DUP1 PUSH4 0xE29DF22 EQ PUSH2 0x62 JUMPI DUP1 PUSH4 0x1D01364C EQ PUSH2 0x6C JUMPI DUP1 PUSH4 0x22E8C87D EQ PUSH2 0x97 JUMPI DUP1 PUSH4 0xC3D40853 EQ PUSH2 0xC2 JUMPI DUP1 PUSH4 0xDB88031A EQ PUSH2 0xED JUMPI DUP1 PUSH4 0xE2EC0C2D EQ PUSH2 0xF7 JUMPI PUSH2 0x60 JUMP JUMPDEST CALLDATASIZE PUSH2 0x60 JUMPI STOP JUMPDEST STOP JUMPDEST PUSH2 0x6A PUSH2 0x101 JUMP JUMPDEST STOP JUMPDEST CALLVALUE DUP1 ISZERO PUSH2 0x78 JUMPI PUSH1 0x0 DUP1 REVERT JUMPDEST POP PUSH2 0x81 PUSH2 0x31E JUMP JUMPDEST PUSH1 0x40 MLOAD PUSH2 0x8E SWAP2 SWAP1 PUSH2 0xFD8 JUMP JUMPDEST PUSH1 0x40 MLOAD DUP1 SWAP2 SUB SWAP1 RETURN JUMPDEST CALLVALUE DUP1 ISZERO PUSH2 0xA3 JUMPI PUSH1 0x0 DUP1 REVERT JUMPDEST POP PUSH2 0xAC PUSH2 0x324 JUMP JUMPDEST PUSH1 0x40 MLOAD PUSH2 0xB9 SWAP2 SWAP1 PUSH2 0xFD8 JUMP JUMPDEST PUSH1 0x40 MLOAD DUP1 SWAP2 SUB SWAP1 RETURN JUMPDEST CALLVALUE DUP1 ISZERO PUSH2 0xCE JUMPI PUSH1 0x0 DUP1 REVERT JUMPDEST POP PUSH2 0xD7 PUSH2 0x36D JUMP JUMPDEST PUSH1 0x40 MLOAD PUSH2 0xE4 SWAP2 SWAP1 PUSH2 0xFD8 JUMP JUMPDEST PUSH1 0x40 MLOAD DUP1 SWAP2 SUB SWAP1 RETURN JUMPDEST PUSH2 0xF5 PUSH2 0x4B3 JUMP JUMPDEST STOP JUMPDEST PUSH2 0xFF PUSH2 0xB04 JUMP JUMPDEST STOP JUMPDEST PUSH1 0x0 CALLVALUE GT PUSH2 0x144 JUMPI PUSH1 0x40 MLOAD PUSH32 0x8C379A000000000000000000000000000000000000000000000000000000000 DUP2 MSTORE PUSH1 0x4 ADD PUSH2 0x13B SWAP1 PUSH2 0x1050 JUMP JUMPDEST PUSH1 0x40 MLOAD DUP1 SWAP2 SUB SWAP1 REVERT JUMPDEST CALLVALUE PUSH1 0x0 DUP1 CALLER PUSH20 0xFFFFFFFFFFFFFFFFFFFFFFFFFFFFFFFFFFFFFFFF AND PUSH20 0xFFFFFFFFFFFFFFFFFFFFFFFFFFFFFFFFFFFFFFFF AND DUP2 MSTORE PUSH1 0x20 ADD SWAP1 DUP2 MSTORE PUSH1 0x20 ADD PUSH1 0x0 KECCAK256 PUSH1 0x0 ADD PUSH1 0x0 DUP3 DUP3 SLOAD PUSH2 0x195 SWAP2 SWAP1 PUSH2 0x109F JUMP JUMPDEST SWAP3 POP POP DUP2 SWAP1 SSTORE POP TIMESTAMP PUSH1 0x0 DUP1 CALLER PUSH20 0xFFFFFFFFFFFFFFFFFFFFFFFFFFFFFFFFFFFFFFFF AND PUSH20 0xFFFFFFFFFFFFFFFFFFFFFFFFFFFFFFFFFFFFFFFF AND DUP2 MSTORE PUSH1 0x20 ADD SWAP1 DUP2 MSTORE PUSH1 0x20 ADD PUSH1 0x0 KECCAK256 PUSH1 0x1 ADD DUP2 SWAP1 SSTORE POP PUSH1 0x0 ISZERO ISZERO PUSH1 0x0 DUP1 CALLER PUSH20 0xFFFFFFFFFFFFFFFFFFFFFFFFFFFFFFFFFFFFFFFF AND PUSH20 0xFFFFFFFFFFFFFFFFFFFFFFFFFFFFFFFFFFFFFFFF AND DUP2 MSTORE PUSH1 0x20 ADD SWAP1 DUP2 MSTORE PUSH1 0x20 ADD PUSH1 0x0 KECCAK256 PUSH1 0x2 ADD PUSH1 0x0 SWAP1 SLOAD SWAP1 PUSH2 0x100 EXP SWAP1 DIV PUSH1 0xFF AND ISZERO ISZERO SUB PUSH2 0x2FA JUMPI PUSH1 0x1 PUSH1 0x0 DUP1 CALLER PUSH20 0xFFFFFFFFFFFFFFFFFFFFFFFFFFFFFFFFFFFFFFFF AND PUSH20 0xFFFFFFFFFFFFFFFFFFFFFFFFFFFFFFFFFFFFFFFF AND DUP2 MSTORE PUSH1 0x20 ADD SWAP1 DUP2 MSTORE PUSH1 0x20 ADD PUSH1 0x0 KECCAK256 PUSH1 0x2 ADD PUSH1 0x0 PUSH2 0x100 EXP DUP2 SLOAD DUP2 PUSH1 0xFF MUL NOT AND SWAP1 DUP4 ISZERO ISZERO MUL OR SWAP1 SSTORE POP PUSH1 0x1 CALLER SWAP1 DUP1 PUSH1 0x1 DUP2 SLOAD ADD DUP1 DUP3 SSTORE DUP1 SWAP2 POP POP PUSH1 0x1 SWAP1 SUB SWAP1 PUSH1 0x0 MSTORE PUSH1 0x20 PUSH1 0x0 KECCAK256 ADD PUSH1 0x0 SWAP1 SWAP2 SWAP1 SWAP2 SWAP1 SWAP2 PUSH2 0x100 EXP DUP2 SLOAD DUP2 PUSH20 0xFFFFFFFFFFFFFFFFFFFFFFFFFFFFFFFFFFFFFFFF MUL NOT AND SWAP1 DUP4 PUSH20 0xFFFFFFFFFFFFFFFFFFFFFFFFFFFFFFFFFFFFFFFF AND MUL OR SWAP1 SSTORE POP JUMPDEST PUSH2 0x303 CALLVALUE PUSH2 0xC73 JUMP JUMPDEST CALLVALUE PUSH1 0x5 PUSH1 0x0 DUP3 DUP3 SLOAD PUSH2 0x315 SWAP2 SWAP1 PUSH2 0x109F JUMP JUMPDEST SWAP3 POP POP DUP2 SWAP1 SSTORE POP JUMP JUMPDEST PUSH1 0x5 SLOAD DUP2 JUMP JUMPDEST PUSH1 0x0 DUP1 PUSH1 0x0 CALLER PUSH20 0xFFFFFFFFFFFFFFFFFFFFFFFFFFFFFFFFFFFFFFFF AND PUSH20 0xFFFFFFFFFFFFFFFFFFFFFFFFFFFFFFFFFFFFFFFF AND DUP2 MSTORE PUSH1 0x20 ADD SWAP1 DUP2 MSTORE PUSH1 0x20 ADD PUSH1 0x0 KECCAK256 PUSH1 0x0 ADD SLOAD SWAP1 POP SWAP1 JUMP JUMPDEST PUSH1 0x0 DUP1 PUSH1 0x4 PUSH1 0x0 SWAP1 SLOAD SWAP1 PUSH2 0x100 EXP SWAP1 DIV PUSH20 0xFFFFFFFFFFFFFFFFFFFFFFFFFFFFFFFFFFFFFFFF AND PUSH20 0xFFFFFFFFFFFFFFFFFFFFFFFFFFFFFFFFFFFFFFFF AND PUSH4 0x35EA6A75 PUSH32 0x0 PUSH1 0x40 MLOAD DUP3 PUSH4 0xFFFFFFFF AND PUSH1 0xE0 SHL DUP2 MSTORE PUSH1 0x4 ADD PUSH2 0x3EB SWAP2 SWAP1 PUSH2 0x1136 JUMP JUMPDEST PUSH2 0x180 PUSH1 0x40 MLOAD DUP1 DUP4 SUB DUP2 DUP7 GAS STATICCALL ISZERO DUP1 ISZERO PUSH2 0x409 JUMPI RETURNDATASIZE PUSH1 0x0 DUP1 RETURNDATACOPY RETURNDATASIZE PUSH1 0x0 REVERT JUMPDEST POP POP POP POP PUSH1 0x40 MLOAD RETURNDATASIZE PUSH1 0x1F NOT PUSH1 0x1F DUP3 ADD AND DUP3 ADD DUP1 PUSH1 0x40 MSTORE POP DUP2 ADD SWAP1 PUSH2 0x42D SWAP2 SWAP1 PUSH2 0x1465 JUMP JUMPDEST PUSH1 0xE0 ADD MLOAD SWAP1 POP DUP1 PUSH20 0xFFFFFFFFFFFFFFFFFFFFFFFFFFFFFFFFFFFFFFFF AND PUSH4 0x70A08231 ADDRESS PUSH1 0x40 MLOAD DUP3 PUSH4 0xFFFFFFFF AND PUSH1 0xE0 SHL DUP2 MSTORE PUSH1 0x4 ADD PUSH2 0x46C SWAP2 SWAP1 PUSH2 0x1136 JUMP JUMPDEST PUSH1 0x20 PUSH1 0x40 MLOAD DUP1 DUP4 SUB DUP2 DUP7 GAS STATICCALL ISZERO DUP1 ISZERO PUSH2 0x489 JUMPI RETURNDATASIZE PUSH1 0x0 DUP1 RETURNDATACOPY RETURNDATASIZE PUSH1 0x0 REVERT JUMPDEST POP POP POP POP PUSH1 0x40 MLOAD RETURNDATASIZE PUSH1 0x1F NOT PUSH1 0x1F DUP3 ADD AND DUP3 ADD DUP1 PUSH1 0x40 MSTORE POP DUP2 ADD SWAP1 PUSH2 0x4AD SWAP2 SWAP1 PUSH2 0x1493 JUMP JUMPDEST SWAP2 POP POP SWAP1 JUMP JUMPDEST PUSH1 0x0 DUP1 PUSH1 0x0 CALLER PUSH20 0xFFFFFFFFFFFFFFFFFFFFFFFFFFFFFFFFFFFFFFFF AND PUSH20 0xFFFFFFFFFFFFFFFFFFFFFFFFFFFFFFFFFFFFFFFF AND DUP2 MSTORE PUSH1 0x20 ADD SWAP1 DUP2 MSTORE PUSH1 0x20 ADD PUSH1 0x0 KECCAK256 PUSH1 0x0 ADD SLOAD SWAP1 POP PUSH1 0x0 DUP2 GT PUSH2 0x53C JUMPI PUSH1 0x40 MLOAD PUSH32 0x8C379A000000000000000000000000000000000000000000000000000000000 DUP2 MSTORE PUSH1 0x4 ADD PUSH2 0x533 SWAP1 PUSH2 0x150C JUMP JUMPDEST PUSH1 0x40 MLOAD DUP1 SWAP2 SUB SWAP1 REVERT JUMPDEST PUSH1 0x0 DUP1 PUSH1 0x0 CALLER PUSH20 0xFFFFFFFFFFFFFFFFFFFFFFFFFFFFFFFFFFFFFFFF AND PUSH20 0xFFFFFFFFFFFFFFFFFFFFFFFFFFFFFFFFFFFFFFFF AND DUP2 MSTORE PUSH1 0x20 ADD SWAP1 DUP2 MSTORE PUSH1 0x20 ADD PUSH1 0x0 KECCAK256 PUSH1 0x1 ADD SLOAD SWAP1 POP PUSH1 0x0 TIMESTAMP SWAP1 POP PUSH32 0x0 DUP3 PUSH2 0x5B3 SWAP2 SWAP1 PUSH2 0x109F JUMP JUMPDEST DUP2 GT ISZERO PUSH2 0x6D3 JUMPI PUSH1 0x0 DUP1 PUSH1 0x0 CALLER PUSH20 0xFFFFFFFFFFFFFFFFFFFFFFFFFFFFFFFFFFFFFFFF AND PUSH20 0xFFFFFFFFFFFFFFFFFFFFFFFFFFFFFFFFFFFFFFFF AND DUP2 MSTORE PUSH1 0x20 ADD SWAP1 DUP2 MSTORE PUSH1 0x20 ADD PUSH1 0x0 KECCAK256 PUSH1 0x0 ADD DUP2 SWAP1 SSTORE POP DUP3 PUSH1 0x5 SLOAD PUSH2 0x60F SWAP2 SWAP1 PUSH2 0x152C JUMP JUMPDEST PUSH1 0x5 DUP2 SWAP1 SSTORE POP PUSH2 0x61E DUP4 PUSH2 0xD40 JUMP JUMPDEST PUSH1 0x0 CALLER PUSH20 0xFFFFFFFFFFFFFFFFFFFFFFFFFFFFFFFFFFFFFFFF AND DUP5 PUSH1 0x40 MLOAD PUSH2 0x644 SWAP1 PUSH2 0x1591 JUMP JUMPDEST PUSH1 0x0 PUSH1 0x40 MLOAD DUP1 DUP4 SUB DUP2 DUP6 DUP8 GAS CALL SWAP3 POP POP POP RETURNDATASIZE DUP1 PUSH1 0x0 DUP2 EQ PUSH2 0x681 JUMPI PUSH1 0x40 MLOAD SWAP2 POP PUSH1 0x1F NOT PUSH1 0x3F RETURNDATASIZE ADD AND DUP3 ADD PUSH1 0x40 MSTORE RETURNDATASIZE DUP3 MSTORE RETURNDATASIZE PUSH1 0x0 PUSH1 0x20 DUP5 ADD RETURNDATACOPY PUSH2 0x686 JUMP JUMPDEST PUSH1 0x60 SWAP2 POP JUMPDEST POP POP SWAP1 POP DUP1 PUSH2 0x6CA JUMPI PUSH1 0x40 MLOAD PUSH32 0x8C379A000000000000000000000000000000000000000000000000000000000 DUP2 MSTORE PUSH1 0x4 ADD PUSH2 0x6C1 SWAP1 PUSH2 0x15F2 JUMP JUMPDEST PUSH1 0x40 MLOAD DUP1 SWAP2 SUB SWAP1 REVERT JUMPDEST POP POP POP POP PUSH2 0xB02 JUMP JUMPDEST PUSH1 0x0 PUSH32 0x0 PUSH1 0x64 DUP5 DUP5 PUSH2 0x704 SWAP2 SWAP1 PUSH2 0x152C JUMP JUMPDEST PUSH2 0x70E SWAP2 SWAP1 PUSH2 0x1612 JUMP JUMPDEST PUSH2 0x718 SWAP2 SWAP1 PUSH2 0x169B JUMP JUMPDEST SWAP1 POP PUSH1 0x0 PUSH1 0x64 PUSH1 0x2 DUP4 PUSH1 0x64 PUSH2 0x72D SWAP2 SWAP1 PUSH2 0x152C JUMP JUMPDEST PUSH2 0x737 SWAP2 SWAP1 PUSH2 0x169B JUMP JUMPDEST DUP7 PUSH2 0x742 SWAP2 SWAP1 PUSH2 0x1612 JUMP JUMPDEST PUSH2 0x74C SWAP2 SWAP1 PUSH2 0x169B JUMP JUMPDEST SWAP1 POP PUSH1 0x0 DUP2 SWAP1 POP PUSH1 0x0 DUP7 PUSH1 0x5 SLOAD PUSH2 0x763 SWAP2 SWAP1 PUSH2 0x152C JUMP JUMPDEST SWAP1 POP PUSH1 0x0 PUSH1 0x1 DUP1 SLOAD DUP1 PUSH1 0x20 MUL PUSH1 0x20 ADD PUSH1 0x40 MLOAD SWAP1 DUP2 ADD PUSH1 0x40 MSTORE DUP1 SWAP3 SWAP2 SWAP1 DUP2 DUP2 MSTORE PUSH1 0x20 ADD DUP3 DUP1 SLOAD DUP1 ISZERO PUSH2 0x7E9 JUMPI PUSH1 0x20 MUL DUP3 ADD SWAP2 SWAP1 PUSH1 0x0 MSTORE PUSH1 0x20 PUSH1 0x0 KECCAK256 SWAP1 JUMPDEST DUP2 PUSH1 0x0 SWAP1 SLOAD SWAP1 PUSH2 0x100 EXP SWAP1 DIV PUSH20 0xFFFFFFFFFFFFFFFFFFFFFFFFFFFFFFFFFFFFFFFF AND PUSH20 0xFFFFFFFFFFFFFFFFFFFFFFFFFFFFFFFFFFFFFFFF AND DUP2 MSTORE PUSH1 0x20 ADD SWAP1 PUSH1 0x1 ADD SWAP1 DUP1 DUP4 GT PUSH2 0x79F JUMPI JUMPDEST POP POP POP POP POP SWAP1 POP PUSH1 0x0 DUP1 PUSH1 0x0 JUMPDEST DUP4 MLOAD DUP2 LT ISZERO PUSH2 0x985 JUMPI PUSH1 0x0 DUP1 PUSH1 0x0 DUP7 DUP5 DUP2 MLOAD DUP2 LT PUSH2 0x817 JUMPI PUSH2 0x816 PUSH2 0x16CC JUMP JUMPDEST JUMPDEST PUSH1 0x20 MUL PUSH1 0x20 ADD ADD MLOAD PUSH20 0xFFFFFFFFFFFFFFFFFFFFFFFFFFFFFFFFFFFFFFFF AND PUSH20 0xFFFFFFFFFFFFFFFFFFFFFFFFFFFFFFFFFFFFFFFF AND DUP2 MSTORE PUSH1 0x20 ADD SWAP1 DUP2 MSTORE PUSH1 0x20 ADD PUSH1 0x0 KECCAK256 PUSH1 0x0 ADD SLOAD SWAP1 POP CALLER PUSH20 0xFFFFFFFFFFFFFFFFFFFFFFFFFFFFFFFFFFFFFFFF AND DUP6 DUP4 DUP2 MLOAD DUP2 LT PUSH2 0x889 JUMPI PUSH2 0x888 PUSH2 0x16CC JUMP JUMPDEST JUMPDEST PUSH1 0x20 MUL PUSH1 0x20 ADD ADD MLOAD PUSH20 0xFFFFFFFFFFFFFFFFFFFFFFFFFFFFFFFFFFFFFFFF AND EQ ISZERO DUP1 ISZERO PUSH2 0x8B5 JUMPI POP PUSH1 0x0 DUP2 GT JUMPDEST ISZERO PUSH2 0x971 JUMPI DUP6 PUSH2 0x2710 DUP3 PUSH2 0x8C9 SWAP2 SWAP1 PUSH2 0x1612 JUMP JUMPDEST PUSH2 0x8D3 SWAP2 SWAP1 PUSH2 0x169B JUMP JUMPDEST SWAP4 POP PUSH2 0x2710 DUP5 DUP10 PUSH2 0x8E4 SWAP2 SWAP1 PUSH2 0x1612 JUMP JUMPDEST PUSH2 0x8EE SWAP2 SWAP1 PUSH2 0x169B JUMP JUMPDEST SWAP3 POP DUP3 DUP8 PUSH2 0x8FC SWAP2 SWAP1 PUSH2 0x152C JUMP JUMPDEST SWAP7 POP DUP3 PUSH1 0x0 DUP1 DUP8 DUP6 DUP2 MLOAD DUP2 LT PUSH2 0x915 JUMPI PUSH2 0x914 PUSH2 0x16CC JUMP JUMPDEST JUMPDEST PUSH1 0x20 MUL PUSH1 0x20 ADD ADD MLOAD PUSH20 0xFFFFFFFFFFFFFFFFFFFFFFFFFFFFFFFFFFFFFFFF AND PUSH20 0xFFFFFFFFFFFFFFFFFFFFFFFFFFFFFFFFFFFFFFFF AND DUP2 MSTORE PUSH1 0x20 ADD SWAP1 DUP2 MSTORE PUSH1 0x20 ADD PUSH1 0x0 KECCAK256 PUSH1 0x0 ADD PUSH1 0x0 DUP3 DUP3 SLOAD PUSH2 0x969 SWAP2 SWAP1 PUSH2 0x109F JUMP JUMPDEST SWAP3 POP POP DUP2 SWAP1 SSTORE POP JUMPDEST POP DUP1 DUP1 PUSH2 0x97D SWAP1 PUSH2 0x16FB JUMP JUMPDEST SWAP2 POP POP PUSH2 0x7F6 JUMP JUMPDEST POP DUP5 DUP7 DUP12 PUSH2 0x993 SWAP2 SWAP1 PUSH2 0x152C JUMP JUMPDEST PUSH2 0x99D SWAP2 SWAP1 PUSH2 0x109F JUMP JUMPDEST SWAP10 POP DUP10 PUSH1 0x5 SLOAD PUSH2 0x9AD SWAP2 SWAP1 PUSH2 0x152C JUMP JUMPDEST PUSH1 0x5 DUP2 SWAP1 SSTORE POP PUSH1 0x0 DUP1 PUSH1 0x0 CALLER PUSH20 0xFFFFFFFFFFFFFFFFFFFFFFFFFFFFFFFFFFFFFFFF AND PUSH20 0xFFFFFFFFFFFFFFFFFFFFFFFFFFFFFFFFFFFFFFFF AND DUP2 MSTORE PUSH1 0x20 ADD SWAP1 DUP2 MSTORE PUSH1 0x20 ADD PUSH1 0x0 KECCAK256 PUSH1 0x0 ADD DUP2 SWAP1 SSTORE POP PUSH2 0xA03 DUP11 PUSH2 0xD40 JUMP JUMPDEST PUSH1 0x0 CALLER PUSH20 0xFFFFFFFFFFFFFFFFFFFFFFFFFFFFFFFFFFFFFFFF AND DUP12 PUSH1 0x40 MLOAD PUSH2 0xA29 SWAP1 PUSH2 0x1591 JUMP JUMPDEST PUSH1 0x0 PUSH1 0x40 MLOAD DUP1 DUP4 SUB DUP2 DUP6 DUP8 GAS CALL SWAP3 POP POP POP RETURNDATASIZE DUP1 PUSH1 0x0 DUP2 EQ PUSH2 0xA66 JUMPI PUSH1 0x40 MLOAD SWAP2 POP PUSH1 0x1F NOT PUSH1 0x3F RETURNDATASIZE ADD AND DUP3 ADD PUSH1 0x40 MSTORE RETURNDATASIZE DUP3 MSTORE RETURNDATASIZE PUSH1 0x0 PUSH1 0x20 DUP5 ADD RETURNDATACOPY PUSH2 0xA6B JUMP JUMPDEST PUSH1 0x60 SWAP2 POP JUMPDEST POP POP SWAP1 POP DUP1 PUSH2 0xAAF JUMPI PUSH1 0x40 MLOAD PUSH32 0x8C379A000000000000000000000000000000000000000000000000000000000 DUP2 MSTORE PUSH1 0x4 ADD PUSH2 0xAA6 SWAP1 PUSH2 0x15F2 JUMP JUMPDEST PUSH1 0x40 MLOAD DUP1 SWAP2 SUB SWAP1 REVERT JUMPDEST PUSH1 0x0 DUP1 PUSH1 0x0 CALLER PUSH20 0xFFFFFFFFFFFFFFFFFFFFFFFFFFFFFFFFFFFFFFFF AND PUSH20 0xFFFFFFFFFFFFFFFFFFFFFFFFFFFFFFFFFFFFFFFF AND DUP2 MSTORE PUSH1 0x20 ADD SWAP1 DUP2 MSTORE PUSH1 0x20 ADD PUSH1 0x0 KECCAK256 PUSH1 0x0 ADD DUP2 SWAP1 SSTORE POP POP POP POP POP POP POP POP POP POP POP POP JUMPDEST JUMP JUMPDEST PUSH1 0x2 PUSH1 0x0 SWAP1 SLOAD SWAP1 PUSH2 0x100 EXP SWAP1 DIV PUSH20 0xFFFFFFFFFFFFFFFFFFFFFFFFFFFFFFFFFFFFFFFF AND PUSH20 0xFFFFFFFFFFFFFFFFFFFFFFFFFFFFFFFFFFFFFFFF AND CALLER PUSH20 0xFFFFFFFFFFFFFFFFFFFFFFFFFFFFFFFFFFFFFFFF AND EQ PUSH2 0xB94 JUMPI PUSH1 0x40 MLOAD PUSH32 0x8C379A000000000000000000000000000000000000000000000000000000000 DUP2 MSTORE PUSH1 0x4 ADD PUSH2 0xB8B SWAP1 PUSH2 0x17B5 JUMP JUMPDEST PUSH1 0x40 MLOAD DUP1 SWAP2 SUB SWAP1 REVERT JUMPDEST PUSH1 0x0 PUSH1 0x5 SLOAD PUSH2 0xBA1 PUSH2 0x36D JUMP JUMPDEST PUSH2 0xBAB SWAP2 SWAP1 PUSH2 0x152C JUMP JUMPDEST SWAP1 POP PUSH1 0x0 DUP2 GT PUSH2 0xBBA JUMPI PUSH1 0x0 DUP1 REVERT JUMPDEST PUSH2 0xBC3 DUP2 PUSH2 0xD40 JUMP JUMPDEST PUSH1 0x0 CALLER PUSH20 0xFFFFFFFFFFFFFFFFFFFFFFFFFFFFFFFFFFFFFFFF AND DUP3 PUSH1 0x40 MLOAD PUSH2 0xBE9 SWAP1 PUSH2 0x1591 JUMP JUMPDEST PUSH1 0x0 PUSH1 0x40 MLOAD DUP1 DUP4 SUB DUP2 DUP6 DUP8 GAS CALL SWAP3 POP POP POP RETURNDATASIZE DUP1 PUSH1 0x0 DUP2 EQ PUSH2 0xC26 JUMPI PUSH1 0x40 MLOAD SWAP2 POP PUSH1 0x1F NOT PUSH1 0x3F RETURNDATASIZE ADD AND DUP3 ADD PUSH1 0x40 MSTORE RETURNDATASIZE DUP3 MSTORE RETURNDATASIZE PUSH1 0x0 PUSH1 0x20 DUP5 ADD RETURNDATACOPY PUSH2 0xC2B JUMP JUMPDEST PUSH1 0x60 SWAP2 POP JUMPDEST POP POP SWAP1 POP DUP1 PUSH2 0xC6F JUMPI PUSH1 0x40 MLOAD PUSH32 0x8C379A000000000000000000000000000000000000000000000000000000000 DUP2 MSTORE PUSH1 0x4 ADD PUSH2 0xC66 SWAP1 PUSH2 0x15F2 JUMP JUMPDEST PUSH1 0x40 MLOAD DUP1 SWAP2 SUB SWAP1 REVERT JUMPDEST POP POP JUMP JUMPDEST PUSH1 0x0 DUP2 GT PUSH2 0xC80 JUMPI PUSH1 0x0 DUP1 REVERT JUMPDEST PUSH2 0xC89 DUP2 PUSH2 0xF3B JUMP JUMPDEST PUSH1 0x4 PUSH1 0x0 SWAP1 SLOAD SWAP1 PUSH2 0x100 EXP SWAP1 DIV PUSH20 0xFFFFFFFFFFFFFFFFFFFFFFFFFFFFFFFFFFFFFFFF AND PUSH20 0xFFFFFFFFFFFFFFFFFFFFFFFFFFFFFFFFFFFFFFFF AND PUSH4 0xE8EDA9DF PUSH32 0x0 DUP4 ADDRESS PUSH1 0x0 PUSH1 0x40 MLOAD DUP6 PUSH4 0xFFFFFFFF AND PUSH1 0xE0 SHL DUP2 MSTORE PUSH1 0x4 ADD PUSH2 0xD0B SWAP5 SWAP4 SWAP3 SWAP2 SWAP1 PUSH2 0x1828 JUMP JUMPDEST PUSH1 0x0 PUSH1 0x40 MLOAD DUP1 DUP4 SUB DUP2 PUSH1 0x0 DUP8 DUP1 EXTCODESIZE ISZERO DUP1 ISZERO PUSH2 0xD25 JUMPI PUSH1 0x0 DUP1 REVERT JUMPDEST POP GAS CALL ISZERO DUP1 ISZERO PUSH2 0xD39 JUMPI RETURNDATASIZE PUSH1 0x0 DUP1 RETURNDATACOPY RETURNDATASIZE PUSH1 0x0 REVERT JUMPDEST POP POP POP POP POP JUMP JUMPDEST PUSH1 0x4 PUSH1 0x0 SWAP1 SLOAD SWAP1 PUSH2 0x100 EXP SWAP1 DIV PUSH20 0xFFFFFFFFFFFFFFFFFFFFFFFFFFFFFFFFFFFFFFFF AND PUSH20 0xFFFFFFFFFFFFFFFFFFFFFFFFFFFFFFFFFFFFFFFF AND PUSH4 0x69328DEC PUSH32 0x0 DUP4 ADDRESS PUSH1 0x40 MLOAD DUP5 PUSH4 0xFFFFFFFF AND PUSH1 0xE0 SHL DUP2 MSTORE PUSH1 0x4 ADD PUSH2 0xDBF SWAP4 SWAP3 SWAP2 SWAP1 PUSH2 0x186D JUMP JUMPDEST PUSH1 0x20 PUSH1 0x40 MLOAD DUP1 DUP4 SUB DUP2 PUSH1 0x0 DUP8 GAS CALL ISZERO DUP1 ISZERO PUSH2 0xDDE JUMPI RETURNDATASIZE PUSH1 0x0 DUP1 RETURNDATACOPY RETURNDATASIZE PUSH1 0x0 REVERT JUMPDEST POP POP POP POP PUSH1 0x40 MLOAD RETURNDATASIZE PUSH1 0x1F NOT PUSH1 0x1F DUP3 ADD AND DUP3 ADD DUP1 PUSH1 0x40 MSTORE POP DUP2 ADD SWAP1 PUSH2 0xE02 SWAP2 SWAP1 PUSH2 0x1493 JUMP JUMPDEST POP PUSH1 0x0 PUSH32 0x0 PUSH20 0xFFFFFFFFFFFFFFFFFFFFFFFFFFFFFFFFFFFFFFFF AND PUSH4 0x95EA7B3 ADDRESS DUP5 PUSH1 0x40 MLOAD DUP4 PUSH4 0xFFFFFFFF AND PUSH1 0xE0 SHL DUP2 MSTORE PUSH1 0x4 ADD PUSH2 0xE60 SWAP3 SWAP2 SWAP1 PUSH2 0x18A4 JUMP JUMPDEST PUSH1 0x20 PUSH1 0x40 MLOAD DUP1 DUP4 SUB DUP2 PUSH1 0x0 DUP8 GAS CALL ISZERO DUP1 ISZERO PUSH2 0xE7F JUMPI RETURNDATASIZE PUSH1 0x0 DUP1 RETURNDATACOPY RETURNDATASIZE PUSH1 0x0 REVERT JUMPDEST POP POP POP POP PUSH1 0x40 MLOAD RETURNDATASIZE PUSH1 0x1F NOT PUSH1 0x1F DUP3 ADD AND DUP3 ADD DUP1 PUSH1 0x40 MSTORE POP DUP2 ADD SWAP1 PUSH2 0xEA3 SWAP2 SWAP1 PUSH2 0x1905 JUMP JUMPDEST SWAP1 POP DUP1 ISZERO PUSH2 0xF37 JUMPI PUSH32 0x0 PUSH20 0xFFFFFFFFFFFFFFFFFFFFFFFFFFFFFFFFFFFFFFFF AND PUSH4 0x2E1A7D4D DUP4 PUSH1 0x40 MLOAD DUP3 PUSH4 0xFFFFFFFF AND PUSH1 0xE0 SHL DUP2 MSTORE PUSH1 0x4 ADD PUSH2 0xF04 SWAP2 SWAP1 PUSH2 0xFD8 JUMP JUMPDEST PUSH1 0x0 PUSH1 0x40 MLOAD DUP1 DUP4 SUB DUP2 PUSH1 0x0 DUP8 DUP1 EXTCODESIZE ISZERO DUP1 ISZERO PUSH2 0xF1E JUMPI PUSH1 0x0 DUP1 REVERT JUMPDEST POP GAS CALL ISZERO DUP1 ISZERO PUSH2 0xF32 JUMPI RETURNDATASIZE PUSH1 0x0 DUP1 RETURNDATACOPY RETURNDATASIZE PUSH1 0x0 REVERT JUMPDEST POP POP POP POP JUMPDEST POP POP JUMP JUMPDEST PUSH32 0x0 PUSH20 0xFFFFFFFFFFFFFFFFFFFFFFFFFFFFFFFFFFFFFFFF AND PUSH4 0xD0E30DB0 DUP3 PUSH1 0x40 MLOAD DUP3 PUSH4 0xFFFFFFFF AND PUSH1 0xE0 SHL DUP2 MSTORE PUSH1 0x4 ADD PUSH1 0x0 PUSH1 0x40 MLOAD DUP1 DUP4 SUB DUP2 DUP6 DUP9 DUP1 EXTCODESIZE ISZERO DUP1 ISZERO PUSH2 0xFA3 JUMPI PUSH1 0x0 DUP1 REVERT JUMPDEST POP GAS CALL ISZERO DUP1 ISZERO PUSH2 0xFB7 JUMPI RETURNDATASIZE PUSH1 0x0 DUP1 RETURNDATACOPY RETURNDATASIZE PUSH1 0x0 REVERT JUMPDEST POP POP POP POP POP POP JUMP JUMPDEST PUSH1 0x0 DUP2 SWAP1 POP SWAP2 SWAP1 POP JUMP JUMPDEST PUSH2 0xFD2 DUP2 PUSH2 0xFBF JUMP JUMPDEST DUP3 MSTORE POP POP JUMP JUMPDEST PUSH1 0x0 PUSH1 0x20 DUP3 ADD SWAP1 POP PUSH2 0xFED PUSH1 0x0 DUP4 ADD DUP5 PUSH2 0xFC9 JUMP JUMPDEST SWAP3 SWAP2 POP POP JUMP JUMPDEST PUSH1 0x0 DUP3 DUP3 MSTORE PUSH1 0x20 DUP3 ADD SWAP1 POP SWAP3 SWAP2 POP POP JUMP JUMPDEST PUSH32 0x596F75206D7573742073656E6420736F6D6520746F6B656E732E2E2E00000000 PUSH1 0x0 DUP3 ADD MSTORE POP JUMP JUMPDEST PUSH1 0x0 PUSH2 0x103A PUSH1 0x1C DUP4 PUSH2 0xFF3 JUMP JUMPDEST SWAP2 POP PUSH2 0x1045 DUP3 PUSH2 0x1004 JUMP JUMPDEST PUSH1 0x20 DUP3 ADD SWAP1 POP SWAP2 SWAP1 POP JUMP JUMPDEST PUSH1 0x0 PUSH1 0x20 DUP3 ADD SWAP1 POP DUP2 DUP2 SUB PUSH1 0x0 DUP4 ADD MSTORE PUSH2 0x1069 DUP2 PUSH2 0x102D JUMP JUMPDEST SWAP1 POP SWAP2 SWAP1 POP JUMP JUMPDEST PUSH32 0x4E487B7100000000000000000000000000000000000000000000000000000000 PUSH1 0x0 MSTORE PUSH1 0x11 PUSH1 0x4 MSTORE PUSH1 0x24 PUSH1 0x0 REVERT JUMPDEST PUSH1 0x0 PUSH2 0x10AA DUP3 PUSH2 0xFBF JUMP JUMPDEST SWAP2 POP PUSH2 0x10B5 DUP4 PUSH2 0xFBF JUMP JUMPDEST SWAP3 POP DUP3 PUSH32 0xFFFFFFFFFFFFFFFFFFFFFFFFFFFFFFFFFFFFFFFFFFFFFFFFFFFFFFFFFFFFFFFF SUB DUP3 GT ISZERO PUSH2 0x10EA JUMPI PUSH2 0x10E9 PUSH2 0x1070 JUMP JUMPDEST JUMPDEST DUP3 DUP3 ADD SWAP1 POP SWAP3 SWAP2 POP POP JUMP JUMPDEST PUSH1 0x0 PUSH20 0xFFFFFFFFFFFFFFFFFFFFFFFFFFFFFFFFFFFFFFFF DUP3 AND SWAP1 POP SWAP2 SWAP1 POP JUMP JUMPDEST PUSH1 0x0 PUSH2 0x1120 DUP3 PUSH2 0x10F5 JUMP JUMPDEST SWAP1 POP SWAP2 SWAP1 POP JUMP JUMPDEST PUSH2 0x1130 DUP2 PUSH2 0x1115 JUMP JUMPDEST DUP3 MSTORE POP POP JUMP JUMPDEST PUSH1 0x0 PUSH1 0x20 DUP3 ADD SWAP1 POP PUSH2 0x114B PUSH1 0x0 DUP4 ADD DUP5 PUSH2 0x1127 JUMP JUMPDEST SWAP3 SWAP2 POP POP JUMP JUMPDEST PUSH1 0x0 PUSH1 0x40 MLOAD SWAP1 POP SWAP1 JUMP JUMPDEST PUSH1 0x0 DUP1 REVERT JUMPDEST PUSH1 0x0 DUP1 REVERT JUMPDEST PUSH1 0x0 PUSH1 0x1F NOT PUSH1 0x1F DUP4 ADD AND SWAP1 POP SWAP2 SWAP1 POP JUMP JUMPDEST PUSH32 0x4E487B7100000000000000000000000000000000000000000000000000000000 PUSH1 0x0 MSTORE PUSH1 0x41 PUSH1 0x4 MSTORE PUSH1 0x24 PUSH1 0x0 REVERT JUMPDEST PUSH2 0x11AE DUP3 PUSH2 0x1165 JUMP JUMPDEST DUP2 ADD DUP2 DUP2 LT PUSH8 0xFFFFFFFFFFFFFFFF DUP3 GT OR ISZERO PUSH2 0x11CD JUMPI PUSH2 0x11CC PUSH2 0x1176 JUMP JUMPDEST JUMPDEST DUP1 PUSH1 0x40 MSTORE POP POP POP JUMP JUMPDEST PUSH1 0x0 PUSH2 0x11E0 PUSH2 0x1151 JUMP JUMPDEST SWAP1 POP PUSH2 0x11EC DUP3 DUP3 PUSH2 0x11A5 JUMP JUMPDEST SWAP2 SWAP1 POP JUMP JUMPDEST PUSH2 0x11FA DUP2 PUSH2 0xFBF JUMP JUMPDEST DUP2 EQ PUSH2 0x1205 JUMPI PUSH1 0x0 DUP1 REVERT JUMPDEST POP JUMP JUMPDEST PUSH1 0x0 DUP2 MLOAD SWAP1 POP PUSH2 0x1217 DUP2 PUSH2 0x11F1 JUMP JUMPDEST SWAP3 SWAP2 POP POP JUMP JUMPDEST PUSH1 0x0 PUSH1 0x20 DUP3 DUP5 SUB SLT ISZERO PUSH2 0x1233 JUMPI PUSH2 0x1232 PUSH2 0x1160 JUMP JUMPDEST JUMPDEST PUSH2 0x123D PUSH1 0x20 PUSH2 0x11D6 JUMP JUMPDEST SWAP1 POP PUSH1 0x0 PUSH2 0x124D DUP5 DUP3 DUP6 ADD PUSH2 0x1208 JUMP JUMPDEST PUSH1 0x0 DUP4 ADD MSTORE POP SWAP3 SWAP2 POP POP JUMP JUMPDEST PUSH1 0x0 PUSH16 0xFFFFFFFFFFFFFFFFFFFFFFFFFFFFFFFF DUP3 AND SWAP1 POP SWAP2 SWAP1 POP JUMP JUMPDEST PUSH2 0x127E DUP2 PUSH2 0x1259 JUMP JUMPDEST DUP2 EQ PUSH2 0x1289 JUMPI PUSH1 0x0 DUP1 REVERT JUMPDEST POP JUMP JUMPDEST PUSH1 0x0 DUP2 MLOAD SWAP1 POP PUSH2 0x129B DUP2 PUSH2 0x1275 JUMP JUMPDEST SWAP3 SWAP2 POP POP JUMP JUMPDEST PUSH1 0x0 PUSH5 0xFFFFFFFFFF DUP3 AND SWAP1 POP SWAP2 SWAP1 POP JUMP JUMPDEST PUSH2 0x12BB DUP2 PUSH2 0x12A1 JUMP JUMPDEST DUP2 EQ PUSH2 0x12C6 JUMPI PUSH1 0x0 DUP1 REVERT JUMPDEST POP JUMP JUMPDEST PUSH1 0x0 DUP2 MLOAD SWAP1 POP PUSH2 0x12D8 DUP2 PUSH2 0x12B2 JUMP JUMPDEST SWAP3 SWAP2 POP POP JUMP JUMPDEST PUSH2 0x12E7 DUP2 PUSH2 0x1115 JUMP JUMPDEST DUP2 EQ PUSH2 0x12F2 JUMPI PUSH1 0x0 DUP1 REVERT JUMPDEST POP JUMP JUMPDEST PUSH1 0x0 DUP2 MLOAD SWAP1 POP PUSH2 0x1304 DUP2 PUSH2 0x12DE JUMP JUMPDEST SWAP3 SWAP2 POP POP JUMP JUMPDEST PUSH1 0x0 PUSH1 0xFF DUP3 AND SWAP1 POP SWAP2 SWAP1 POP JUMP JUMPDEST PUSH2 0x1320 DUP2 PUSH2 0x130A JUMP JUMPDEST DUP2 EQ PUSH2 0x132B JUMPI PUSH1 0x0 DUP1 REVERT JUMPDEST POP JUMP JUMPDEST PUSH1 0x0 DUP2 MLOAD SWAP1 POP PUSH2 0x133D DUP2 PUSH2 0x1317 JUMP JUMPDEST SWAP3 SWAP2 POP POP JUMP JUMPDEST PUSH1 0x0 PUSH2 0x180 DUP3 DUP5 SUB SLT ISZERO PUSH2 0x135A JUMPI PUSH2 0x1359 PUSH2 0x1160 JUMP JUMPDEST JUMPDEST PUSH2 0x1365 PUSH2 0x180 PUSH2 0x11D6 JUMP JUMPDEST SWAP1 POP PUSH1 0x0 PUSH2 0x1375 DUP5 DUP3 DUP6 ADD PUSH2 0x121D JUMP JUMPDEST PUSH1 0x0 DUP4 ADD MSTORE POP PUSH1 0x20 PUSH2 0x1389 DUP5 DUP3 DUP6 ADD PUSH2 0x128C JUMP JUMPDEST PUSH1 0x20 DUP4 ADD MSTORE POP PUSH1 0x40 PUSH2 0x139D DUP5 DUP3 DUP6 ADD PUSH2 0x128C JUMP JUMPDEST PUSH1 0x40 DUP4 ADD MSTORE POP PUSH1 0x60 PUSH2 0x13B1 DUP5 DUP3 DUP6 ADD PUSH2 0x128C JUMP JUMPDEST PUSH1 0x60 DUP4 ADD MSTORE POP PUSH1 0x80 PUSH2 0x13C5 DUP5 DUP3 DUP6 ADD PUSH2 0x128C JUMP JUMPDEST PUSH1 0x80 DUP4 ADD MSTORE POP PUSH1 0xA0 PUSH2 0x13D9 DUP5 DUP3 DUP6 ADD PUSH2 0x128C JUMP JUMPDEST PUSH1 0xA0 DUP4 ADD MSTORE POP PUSH1 0xC0 PUSH2 0x13ED DUP5 DUP3 DUP6 ADD PUSH2 0x12C9 JUMP JUMPDEST PUSH1 0xC0 DUP4 ADD MSTORE POP PUSH1 0xE0 PUSH2 0x1401 DUP5 DUP3 DUP6 ADD PUSH2 0x12F5 JUMP JUMPDEST PUSH1 0xE0 DUP4 ADD MSTORE POP PUSH2 0x100 PUSH2 0x1416 DUP5 DUP3 DUP6 ADD PUSH2 0x12F5 JUMP JUMPDEST PUSH2 0x100 DUP4 ADD MSTORE POP PUSH2 0x120 PUSH2 0x142C DUP5 DUP3 DUP6 ADD PUSH2 0x12F5 JUMP JUMPDEST PUSH2 0x120 DUP4 ADD MSTORE POP PUSH2 0x140 PUSH2 0x1442 DUP5 DUP3 DUP6 ADD PUSH2 0x12F5 JUMP JUMPDEST PUSH2 0x140 DUP4 ADD MSTORE POP PUSH2 0x160 PUSH2 0x1458 DUP5 DUP3 DUP6 ADD PUSH2 0x132E JUMP JUMPDEST PUSH2 0x160 DUP4 ADD MSTORE POP SWAP3 SWAP2 POP POP JUMP JUMPDEST PUSH1 0x0 PUSH2 0x180 DUP3 DUP5 SUB SLT ISZERO PUSH2 0x147C JUMPI PUSH2 0x147B PUSH2 0x115B JUMP JUMPDEST JUMPDEST PUSH1 0x0 PUSH2 0x148A DUP5 DUP3 DUP6 ADD PUSH2 0x1343 JUMP JUMPDEST SWAP2 POP POP SWAP3 SWAP2 POP POP JUMP JUMPDEST PUSH1 0x0 PUSH1 0x20 DUP3 DUP5 SUB SLT ISZERO PUSH2 0x14A9 JUMPI PUSH2 0x14A8 PUSH2 0x115B JUMP JUMPDEST JUMPDEST PUSH1 0x0 PUSH2 0x14B7 DUP5 DUP3 DUP6 ADD PUSH2 0x1208 JUMP JUMPDEST SWAP2 POP POP SWAP3 SWAP2 POP POP JUMP JUMPDEST PUSH32 0x5573657220646F6E27742068617665206465706F736974656420455448000000 PUSH1 0x0 DUP3 ADD MSTORE POP JUMP JUMPDEST PUSH1 0x0 PUSH2 0x14F6 PUSH1 0x1D DUP4 PUSH2 0xFF3 JUMP JUMPDEST SWAP2 POP PUSH2 0x1501 DUP3 PUSH2 0x14C0 JUMP JUMPDEST PUSH1 0x20 DUP3 ADD SWAP1 POP SWAP2 SWAP1 POP JUMP JUMPDEST PUSH1 0x0 PUSH1 0x20 DUP3 ADD SWAP1 POP DUP2 DUP2 SUB PUSH1 0x0 DUP4 ADD MSTORE PUSH2 0x1525 DUP2 PUSH2 0x14E9 JUMP JUMPDEST SWAP1 POP SWAP2 SWAP1 POP JUMP JUMPDEST PUSH1 0x0 PUSH2 0x1537 DUP3 PUSH2 0xFBF JUMP JUMPDEST SWAP2 POP PUSH2 0x1542 DUP4 PUSH2 0xFBF JUMP JUMPDEST SWAP3 POP DUP3 DUP3 LT ISZERO PUSH2 0x1555 JUMPI PUSH2 0x1554 PUSH2 0x1070 JUMP JUMPDEST JUMPDEST DUP3 DUP3 SUB SWAP1 POP SWAP3 SWAP2 POP POP JUMP JUMPDEST PUSH1 0x0 DUP2 SWAP1 POP SWAP3 SWAP2 POP POP JUMP JUMPDEST POP JUMP JUMPDEST PUSH1 0x0 PUSH2 0x157B PUSH1 0x0 DUP4 PUSH2 0x1560 JUMP JUMPDEST SWAP2 POP PUSH2 0x1586 DUP3 PUSH2 0x156B JUMP JUMPDEST PUSH1 0x0 DUP3 ADD SWAP1 POP SWAP2 SWAP1 POP JUMP JUMPDEST PUSH1 0x0 PUSH2 0x159C DUP3 PUSH2 0x156E JUMP JUMPDEST SWAP2 POP DUP2 SWAP1 POP SWAP2 SWAP1 POP JUMP JUMPDEST PUSH32 0x5472616E73666572206661696C65642E00000000000000000000000000000000 PUSH1 0x0 DUP3 ADD MSTORE POP JUMP JUMPDEST PUSH1 0x0 PUSH2 0x15DC PUSH1 0x10 DUP4 PUSH2 0xFF3 JUMP JUMPDEST SWAP2 POP PUSH2 0x15E7 DUP3 PUSH2 0x15A6 JUMP JUMPDEST PUSH1 0x20 DUP3 ADD SWAP1 POP SWAP2 SWAP1 POP JUMP JUMPDEST PUSH1 0x0 PUSH1 0x20 DUP3 ADD SWAP1 POP DUP2 DUP2 SUB PUSH1 0x0 DUP4 ADD MSTORE PUSH2 0x160B DUP2 PUSH2 0x15CF JUMP JUMPDEST SWAP1 POP SWAP2 SWAP1 POP JUMP JUMPDEST PUSH1 0x0 PUSH2 0x161D DUP3 PUSH2 0xFBF JUMP JUMPDEST SWAP2 POP PUSH2 0x1628 DUP4 PUSH2 0xFBF JUMP JUMPDEST SWAP3 POP DUP2 PUSH32 0xFFFFFFFFFFFFFFFFFFFFFFFFFFFFFFFFFFFFFFFFFFFFFFFFFFFFFFFFFFFFFFFF DIV DUP4 GT DUP3 ISZERO ISZERO AND ISZERO PUSH2 0x1661 JUMPI PUSH2 0x1660 PUSH2 0x1070 JUMP JUMPDEST JUMPDEST DUP3 DUP3 MUL SWAP1 POP SWAP3 SWAP2 POP POP JUMP JUMPDEST PUSH32 0x4E487B7100000000000000000000000000000000000000000000000000000000 PUSH1 0x0 MSTORE PUSH1 0x12 PUSH1 0x4 MSTORE PUSH1 0x24 PUSH1 0x0 REVERT JUMPDEST PUSH1 0x0 PUSH2 0x16A6 DUP3 PUSH2 0xFBF JUMP JUMPDEST SWAP2 POP PUSH2 0x16B1 DUP4 PUSH2 0xFBF JUMP JUMPDEST SWAP3 POP DUP3 PUSH2 0x16C1 JUMPI PUSH2 0x16C0 PUSH2 0x166C JUMP JUMPDEST JUMPDEST DUP3 DUP3 DIV SWAP1 POP SWAP3 SWAP2 POP POP JUMP JUMPDEST PUSH32 0x4E487B7100000000000000000000000000000000000000000000000000000000 PUSH1 0x0 MSTORE PUSH1 0x32 PUSH1 0x4 MSTORE PUSH1 0x24 PUSH1 0x0 REVERT JUMPDEST PUSH1 0x0 PUSH2 0x1706 DUP3 PUSH2 0xFBF JUMP JUMPDEST SWAP2 POP PUSH32 0xFFFFFFFFFFFFFFFFFFFFFFFFFFFFFFFFFFFFFFFFFFFFFFFFFFFFFFFFFFFFFFFF DUP3 SUB PUSH2 0x1738 JUMPI PUSH2 0x1737 PUSH2 0x1070 JUMP JUMPDEST JUMPDEST PUSH1 0x1 DUP3 ADD SWAP1 POP SWAP2 SWAP1 POP JUMP JUMPDEST PUSH32 0x4F6E6C79206F776E65722063616E2063616C6C20746869732066756E6374696F PUSH1 0x0 DUP3 ADD MSTORE PUSH32 0x6E00000000000000000000000000000000000000000000000000000000000000 PUSH1 0x20 DUP3 ADD MSTORE POP JUMP JUMPDEST PUSH1 0x0 PUSH2 0x179F PUSH1 0x21 DUP4 PUSH2 0xFF3 JUMP JUMPDEST SWAP2 POP PUSH2 0x17AA DUP3 PUSH2 0x1743 JUMP JUMPDEST PUSH1 0x40 DUP3 ADD SWAP1 POP SWAP2 SWAP1 POP JUMP JUMPDEST PUSH1 0x0 PUSH1 0x20 DUP3 ADD SWAP1 POP DUP2 DUP2 SUB PUSH1 0x0 DUP4 ADD MSTORE PUSH2 0x17CE DUP2 PUSH2 0x1792 JUMP JUMPDEST SWAP1 POP SWAP2 SWAP1 POP JUMP JUMPDEST PUSH1 0x0 DUP2 SWAP1 POP SWAP2 SWAP1 POP JUMP JUMPDEST PUSH1 0x0 PUSH2 0xFFFF DUP3 AND SWAP1 POP SWAP2 SWAP1 POP JUMP JUMPDEST PUSH1 0x0 DUP2 SWAP1 POP SWAP2 SWAP1 POP JUMP JUMPDEST PUSH1 0x0 PUSH2 0x1812 PUSH2 0x180D PUSH2 0x1808 DUP5 PUSH2 0x17D5 JUMP JUMPDEST PUSH2 0x17ED JUMP JUMPDEST PUSH2 0x17DF JUMP JUMPDEST SWAP1 POP SWAP2 SWAP1 POP JUMP JUMPDEST PUSH2 0x1822 DUP2 PUSH2 0x17F7 JUMP JUMPDEST DUP3 MSTORE POP POP JUMP JUMPDEST PUSH1 0x0 PUSH1 0x80 DUP3 ADD SWAP1 POP PUSH2 0x183D PUSH1 0x0 DUP4 ADD DUP8 PUSH2 0x1127 JUMP JUMPDEST PUSH2 0x184A PUSH1 0x20 DUP4 ADD DUP7 PUSH2 0xFC9 JUMP JUMPDEST PUSH2 0x1857 PUSH1 0x40 DUP4 ADD DUP6 PUSH2 0x1127 JUMP JUMPDEST PUSH2 0x1864 PUSH1 0x60 DUP4 ADD DUP5 PUSH2 0x1819 JUMP JUMPDEST SWAP6 SWAP5 POP POP POP POP POP JUMP JUMPDEST PUSH1 0x0 PUSH1 0x60 DUP3 ADD SWAP1 POP PUSH2 0x1882 PUSH1 0x0 DUP4 ADD DUP7 PUSH2 0x1127 JUMP JUMPDEST PUSH2 0x188F PUSH1 0x20 DUP4 ADD DUP6 PUSH2 0xFC9 JUMP JUMPDEST PUSH2 0x189C PUSH1 0x40 DUP4 ADD DUP5 PUSH2 0x1127 JUMP JUMPDEST SWAP5 SWAP4 POP POP POP POP JUMP JUMPDEST PUSH1 0x0 PUSH1 0x40 DUP3 ADD SWAP1 POP PUSH2 0x18B9 PUSH1 0x0 DUP4 ADD DUP6 PUSH2 0x1127 JUMP JUMPDEST PUSH2 0x18C6 PUSH1 0x20 DUP4 ADD DUP5 PUSH2 0xFC9 JUMP JUMPDEST SWAP4 SWAP3 POP POP POP JUMP JUMPDEST PUSH1 0x0 DUP2 ISZERO ISZERO SWAP1 POP SWAP2 SWAP1 POP JUMP JUMPDEST PUSH2 0x18E2 DUP2 PUSH2 0x18CD JUMP JUMPDEST DUP2 EQ PUSH2 0x18ED JUMPI PUSH1 0x0 DUP1 REVERT JUMPDEST POP JUMP JUMPDEST PUSH1 0x0 DUP2 MLOAD SWAP1 POP PUSH2 0x18FF DUP2 PUSH2 0x18D9 JUMP JUMPDEST SWAP3 SWAP2 POP POP JUMP JUMPDEST PUSH1 0x0 PUSH1 0x20 DUP3 DUP5 SUB SLT ISZERO PUSH2 0x191B JUMPI PUSH2 0x191A PUSH2 0x115B JUMP JUMPDEST JUMPDEST PUSH1 0x0 PUSH2 0x1929 DUP5 DUP3 DUP6 ADD PUSH2 0x18F0 JUMP JUMPDEST SWAP2 POP POP SWAP3 SWAP2 POP POP JUMP INVALID LOG2 PUSH5 0x6970667358 0x22 SLT KECCAK256 PUSH26 0xDD0C3A03BDEC3F0B558A5F28007CE7F2632448D8D47535FE64EC RETURNDATACOPY 0xEA CALLDATACOPY SWAP15 0xC0 PUSH5 0x736F6C6343 STOP ADDMOD 0xF STOP CALLER "
				},
				"gasEstimates": {
					"creation": {
						"codeDepositCost": "1300800",
						"executionCost": "infinite",
						"totalCost": "infinite"
					},
					"external": {
						"": "195",
						"depositedAmount()": "2429",
						"getCurrentBalanceOfATokens()": "infinite",
						"getMyEther()": "infinite",
						"getUserData()": "2554",
						"sendEther()": "infinite",
						"sendKajmakToOwner()": "infinite"
					},
					"internal": {
						"depositAave(uint256)": "infinite",
						"depositETH(uint256)": "infinite",
						"withdrawWETH(uint256)": "infinite"
					}
				},
				"methodIdentifiers": {
					"depositedAmount()": "1d01364c",
					"getCurrentBalanceOfATokens()": "c3d40853",
					"getMyEther()": "db88031a",
					"getUserData()": "22e8c87d",
					"sendEther()": "0e29df22",
					"sendKajmakToOwner()": "e2ec0c2d"
				}
			},
			"storageLayout": {
				"storage": [
					{
						"astId": 61,
						"contract": "contracts/StrongHands.sol:StrongHands",
						"label": "allUsers",
						"offset": 0,
						"slot": "0",
						"type": "t_mapping(t_address,t_struct(user)56_storage)"
					},
					{
						"astId": 64,
						"contract": "contracts/StrongHands.sol:StrongHands",
						"label": "usernames",
						"offset": 0,
						"slot": "1",
						"type": "t_array(t_address)dyn_storage"
					},
					{
						"astId": 66,
						"contract": "contracts/StrongHands.sol:StrongHands",
						"label": "manager",
						"offset": 0,
						"slot": "2",
						"type": "t_address"
					},
					{
						"astId": 74,
						"contract": "contracts/StrongHands.sol:StrongHands",
						"label": "provider",
						"offset": 0,
						"slot": "3",
						"type": "t_contract(ILendingPoolAddressesProvider)1336"
					},
					{
						"astId": 77,
						"contract": "contracts/StrongHands.sol:StrongHands",
						"label": "lending_pool",
						"offset": 0,
						"slot": "4",
						"type": "t_contract(ILendingPool)1185"
					},
					{
						"astId": 79,
						"contract": "contracts/StrongHands.sol:StrongHands",
						"label": "depositedAmount",
						"offset": 0,
						"slot": "5",
						"type": "t_uint256"
					}
				],
				"types": {
					"t_address": {
						"encoding": "inplace",
						"label": "address",
						"numberOfBytes": "20"
					},
					"t_array(t_address)dyn_storage": {
						"base": "t_address",
						"encoding": "dynamic_array",
						"label": "address[]",
						"numberOfBytes": "32"
					},
					"t_bool": {
						"encoding": "inplace",
						"label": "bool",
						"numberOfBytes": "1"
					},
					"t_contract(ILendingPool)1185": {
						"encoding": "inplace",
						"label": "contract ILendingPool",
						"numberOfBytes": "20"
					},
					"t_contract(ILendingPoolAddressesProvider)1336": {
						"encoding": "inplace",
						"label": "contract ILendingPoolAddressesProvider",
						"numberOfBytes": "20"
					},
					"t_mapping(t_address,t_struct(user)56_storage)": {
						"encoding": "mapping",
						"key": "t_address",
						"label": "mapping(address => struct StrongHands.user)",
						"numberOfBytes": "32",
						"value": "t_struct(user)56_storage"
					},
					"t_struct(user)56_storage": {
						"encoding": "inplace",
						"label": "struct StrongHands.user",
						"members": [
							{
								"astId": 51,
								"contract": "contracts/StrongHands.sol:StrongHands",
								"label": "value",
								"offset": 0,
								"slot": "0",
								"type": "t_uint256"
							},
							{
								"astId": 53,
								"contract": "contracts/StrongHands.sol:StrongHands",
								"label": "lockTime",
								"offset": 0,
								"slot": "1",
								"type": "t_uint256"
							},
							{
								"astId": 55,
								"contract": "contracts/StrongHands.sol:StrongHands",
								"label": "flag",
								"offset": 0,
								"slot": "2",
								"type": "t_bool"
							}
						],
						"numberOfBytes": "96"
					},
					"t_uint256": {
						"encoding": "inplace",
						"label": "uint256",
						"numberOfBytes": "32"
					}
				}
			},
			"userdoc": {
				"kind": "user",
				"methods": {
					"getCurrentBalanceOfATokens()": {
						"notice": "Returns current balance of AETH tokens for this contract*"
					},
					"getMyEther()": {
						"notice": "A function that returns ETH from AAVE Lending Pool to the user and distributes a portion  to other usersif the user has withdrawn ETH before a defined time period*"
					},
					"getUserData()": {
						"notice": "Function that returns deposited amount of ETH for the user*"
					},
					"sendEther()": {
						"notice": "Function that sends ETH to AAVE V2 Lending Pool *"
					},
					"sendKajmakToOwner()": {
						"notice": "A function that sends passive income to the owner of the contract. manager is the owner*"
					}
				},
				"version": 1
			}
		}
	}
}